{
  "abi": [
    {
      "inputs": [],
      "stateMutability": "nonpayable",
      "type": "constructor"
    },
    {
      "anonymous": false,
      "inputs": [
        {
          "indexed": true,
          "internalType": "address",
          "name": "owner",
          "type": "address"
        },
        {
          "indexed": true,
          "internalType": "address",
          "name": "spender",
          "type": "address"
        },
        {
          "indexed": false,
          "internalType": "uint256",
          "name": "value",
          "type": "uint256"
        }
      ],
      "name": "Approval",
      "type": "event"
    },
    {
      "anonymous": false,
      "inputs": [
        {
          "indexed": true,
          "internalType": "address",
          "name": "delegator",
          "type": "address"
        },
        {
          "indexed": true,
          "internalType": "address",
          "name": "fromDelegate",
          "type": "address"
        },
        {
          "indexed": true,
          "internalType": "address",
          "name": "toDelegate",
          "type": "address"
        }
      ],
      "name": "DelegateChanged",
      "type": "event"
    },
    {
      "anonymous": false,
      "inputs": [
        {
          "indexed": true,
          "internalType": "address",
          "name": "delegate",
          "type": "address"
        },
        {
          "indexed": false,
          "internalType": "uint256",
          "name": "previousBalance",
          "type": "uint256"
        },
        {
          "indexed": false,
          "internalType": "uint256",
          "name": "newBalance",
          "type": "uint256"
        }
      ],
      "name": "DelegateVotesChanged",
      "type": "event"
    },
    {
      "anonymous": false,
      "inputs": [
        {
          "indexed": false,
          "internalType": "uint8",
          "name": "version",
          "type": "uint8"
        }
      ],
      "name": "Initialized",
      "type": "event"
    },
    {
      "anonymous": false,
      "inputs": [
        {
          "indexed": true,
          "internalType": "address",
          "name": "previousOwner",
          "type": "address"
        },
        {
          "indexed": true,
          "internalType": "address",
          "name": "newOwner",
          "type": "address"
        }
      ],
      "name": "OwnershipTransferred",
      "type": "event"
    },
    {
      "anonymous": false,
      "inputs": [
        {
          "indexed": false,
          "internalType": "uint256",
          "name": "id",
          "type": "uint256"
        }
      ],
      "name": "Snapshot",
      "type": "event"
    },
    {
      "anonymous": false,
      "inputs": [
        {
          "indexed": true,
          "internalType": "address",
          "name": "from",
          "type": "address"
        },
        {
          "indexed": true,
          "internalType": "address",
          "name": "to",
          "type": "address"
        },
        {
          "indexed": false,
          "internalType": "uint256",
          "name": "value",
          "type": "uint256"
        }
      ],
      "name": "Transfer",
      "type": "event"
    },
    {
      "inputs": [],
      "name": "DOMAIN_SEPARATOR",
      "outputs": [
        {
          "internalType": "bytes32",
          "name": "",
          "type": "bytes32"
        }
      ],
      "stateMutability": "view",
      "type": "function"
    },
    {
      "inputs": [
        {
          "internalType": "address",
          "name": "owner",
          "type": "address"
        },
        {
          "internalType": "address",
          "name": "spender",
          "type": "address"
        }
      ],
      "name": "allowance",
      "outputs": [
        {
          "internalType": "uint256",
          "name": "",
          "type": "uint256"
        }
      ],
      "stateMutability": "view",
      "type": "function"
    },
    {
      "inputs": [
        {
          "internalType": "address",
          "name": "spender",
          "type": "address"
        },
        {
          "internalType": "uint256",
          "name": "amount",
          "type": "uint256"
        }
      ],
      "name": "approve",
      "outputs": [
        {
          "internalType": "bool",
          "name": "",
          "type": "bool"
        }
      ],
      "stateMutability": "nonpayable",
      "type": "function"
    },
    {
      "inputs": [
        {
          "internalType": "address",
          "name": "account",
          "type": "address"
        }
      ],
      "name": "balanceOf",
      "outputs": [
        {
          "internalType": "uint256",
          "name": "",
          "type": "uint256"
        }
      ],
      "stateMutability": "view",
      "type": "function"
    },
    {
      "inputs": [
        {
          "internalType": "address",
          "name": "account",
          "type": "address"
        },
        {
          "internalType": "uint256",
          "name": "snapshotId",
          "type": "uint256"
        }
      ],
      "name": "balanceOfAt",
      "outputs": [
        {
          "internalType": "uint256",
          "name": "",
          "type": "uint256"
        }
      ],
      "stateMutability": "view",
      "type": "function"
    },
    {
      "inputs": [
        {
          "internalType": "uint256",
          "name": "amount",
          "type": "uint256"
        }
      ],
      "name": "burn",
      "outputs": [],
      "stateMutability": "nonpayable",
      "type": "function"
    },
    {
      "inputs": [
        {
          "internalType": "address",
          "name": "account",
          "type": "address"
        },
        {
          "internalType": "uint256",
          "name": "amount",
          "type": "uint256"
        }
      ],
      "name": "burnFrom",
      "outputs": [],
      "stateMutability": "nonpayable",
      "type": "function"
    },
    {
      "inputs": [
        {
          "internalType": "address",
          "name": "account",
          "type": "address"
        },
        {
          "internalType": "uint32",
          "name": "pos",
          "type": "uint32"
        }
      ],
      "name": "checkpoints",
      "outputs": [
        {
          "components": [
            {
              "internalType": "uint32",
              "name": "fromBlock",
              "type": "uint32"
            },
            {
              "internalType": "uint224",
              "name": "votes",
              "type": "uint224"
            }
          ],
          "internalType": "struct ERC20VotesUpgradeable.Checkpoint",
          "name": "",
          "type": "tuple"
        }
      ],
      "stateMutability": "view",
      "type": "function"
    },
    {
      "inputs": [],
      "name": "decimals",
      "outputs": [
        {
          "internalType": "uint8",
          "name": "",
          "type": "uint8"
        }
      ],
      "stateMutability": "view",
      "type": "function"
    },
    {
      "inputs": [
        {
          "internalType": "address",
          "name": "spender",
          "type": "address"
        },
        {
          "internalType": "uint256",
          "name": "subtractedValue",
          "type": "uint256"
        }
      ],
      "name": "decreaseAllowance",
      "outputs": [
        {
          "internalType": "bool",
          "name": "",
          "type": "bool"
        }
      ],
      "stateMutability": "nonpayable",
      "type": "function"
    },
    {
      "inputs": [
        {
          "internalType": "address",
          "name": "delegatee",
          "type": "address"
        }
      ],
      "name": "delegate",
      "outputs": [],
      "stateMutability": "nonpayable",
      "type": "function"
    },
    {
      "inputs": [
        {
          "internalType": "address",
          "name": "delegatee",
          "type": "address"
        },
        {
          "internalType": "uint256",
          "name": "nonce",
          "type": "uint256"
        },
        {
          "internalType": "uint256",
          "name": "expiry",
          "type": "uint256"
        },
        {
          "internalType": "uint8",
          "name": "v",
          "type": "uint8"
        },
        {
          "internalType": "bytes32",
          "name": "r",
          "type": "bytes32"
        },
        {
          "internalType": "bytes32",
          "name": "s",
          "type": "bytes32"
        }
      ],
      "name": "delegateBySig",
      "outputs": [],
      "stateMutability": "nonpayable",
      "type": "function"
    },
    {
      "inputs": [
        {
          "internalType": "address",
          "name": "account",
          "type": "address"
        }
      ],
      "name": "delegates",
      "outputs": [
        {
          "internalType": "address",
          "name": "",
          "type": "address"
        }
      ],
      "stateMutability": "view",
      "type": "function"
    },
    {
      "inputs": [
        {
          "internalType": "uint256",
          "name": "blockNumber",
          "type": "uint256"
        }
      ],
      "name": "getPastTotalSupply",
      "outputs": [
        {
          "internalType": "uint256",
          "name": "",
          "type": "uint256"
        }
      ],
      "stateMutability": "view",
      "type": "function"
    },
    {
      "inputs": [
        {
          "internalType": "address",
          "name": "account",
          "type": "address"
        },
        {
          "internalType": "uint256",
          "name": "blockNumber",
          "type": "uint256"
        }
      ],
      "name": "getPastVotes",
      "outputs": [
        {
          "internalType": "uint256",
          "name": "",
          "type": "uint256"
        }
      ],
      "stateMutability": "view",
      "type": "function"
    },
    {
      "inputs": [
        {
          "internalType": "address",
          "name": "account",
          "type": "address"
        }
      ],
      "name": "getVotes",
      "outputs": [
        {
          "internalType": "uint256",
          "name": "",
          "type": "uint256"
        }
      ],
      "stateMutability": "view",
      "type": "function"
    },
    {
      "inputs": [
        {
          "internalType": "address",
          "name": "spender",
          "type": "address"
        },
        {
          "internalType": "uint256",
          "name": "addedValue",
          "type": "uint256"
        }
      ],
      "name": "increaseAllowance",
      "outputs": [
        {
          "internalType": "bool",
          "name": "",
          "type": "bool"
        }
      ],
      "stateMutability": "nonpayable",
      "type": "function"
    },
    {
      "inputs": [],
      "name": "initialize",
      "outputs": [],
      "stateMutability": "nonpayable",
      "type": "function"
    },
    {
      "inputs": [
        {
          "internalType": "address",
          "name": "to",
          "type": "address"
        },
        {
          "internalType": "uint256",
          "name": "amount",
          "type": "uint256"
        }
      ],
      "name": "mint",
      "outputs": [],
      "stateMutability": "nonpayable",
      "type": "function"
    },
    {
      "inputs": [],
      "name": "name",
      "outputs": [
        {
          "internalType": "string",
          "name": "",
          "type": "string"
        }
      ],
      "stateMutability": "view",
      "type": "function"
    },
    {
      "inputs": [
        {
          "internalType": "address",
          "name": "owner",
          "type": "address"
        }
      ],
      "name": "nonces",
      "outputs": [
        {
          "internalType": "uint256",
          "name": "",
          "type": "uint256"
        }
      ],
      "stateMutability": "view",
      "type": "function"
    },
    {
      "inputs": [
        {
          "internalType": "address",
          "name": "account",
          "type": "address"
        }
      ],
      "name": "numCheckpoints",
      "outputs": [
        {
          "internalType": "uint32",
          "name": "",
          "type": "uint32"
        }
      ],
      "stateMutability": "view",
      "type": "function"
    },
    {
      "inputs": [],
      "name": "owner",
      "outputs": [
        {
          "internalType": "address",
          "name": "",
          "type": "address"
        }
      ],
      "stateMutability": "view",
      "type": "function"
    },
    {
      "inputs": [
        {
          "internalType": "address",
          "name": "owner",
          "type": "address"
        },
        {
          "internalType": "address",
          "name": "spender",
          "type": "address"
        },
        {
          "internalType": "uint256",
          "name": "value",
          "type": "uint256"
        },
        {
          "internalType": "uint256",
          "name": "deadline",
          "type": "uint256"
        },
        {
          "internalType": "uint8",
          "name": "v",
          "type": "uint8"
        },
        {
          "internalType": "bytes32",
          "name": "r",
          "type": "bytes32"
        },
        {
          "internalType": "bytes32",
          "name": "s",
          "type": "bytes32"
        }
      ],
      "name": "permit",
      "outputs": [],
      "stateMutability": "nonpayable",
      "type": "function"
    },
    {
      "inputs": [],
      "name": "renounceOwnership",
      "outputs": [],
      "stateMutability": "nonpayable",
      "type": "function"
    },
    {
      "inputs": [],
      "name": "snapshot",
      "outputs": [],
      "stateMutability": "nonpayable",
      "type": "function"
    },
    {
      "inputs": [],
      "name": "symbol",
      "outputs": [
        {
          "internalType": "string",
          "name": "",
          "type": "string"
        }
      ],
      "stateMutability": "view",
      "type": "function"
    },
    {
      "inputs": [],
      "name": "totalSupply",
      "outputs": [
        {
          "internalType": "uint256",
          "name": "",
          "type": "uint256"
        }
      ],
      "stateMutability": "view",
      "type": "function"
    },
    {
      "inputs": [
        {
          "internalType": "uint256",
          "name": "snapshotId",
          "type": "uint256"
        }
      ],
      "name": "totalSupplyAt",
      "outputs": [
        {
          "internalType": "uint256",
          "name": "",
          "type": "uint256"
        }
      ],
      "stateMutability": "view",
      "type": "function"
    },
    {
      "inputs": [
        {
          "internalType": "address",
          "name": "to",
          "type": "address"
        },
        {
          "internalType": "uint256",
          "name": "amount",
          "type": "uint256"
        }
      ],
      "name": "transfer",
      "outputs": [
        {
          "internalType": "bool",
          "name": "",
          "type": "bool"
        }
      ],
      "stateMutability": "nonpayable",
      "type": "function"
    },
    {
      "inputs": [
        {
          "internalType": "address",
          "name": "from",
          "type": "address"
        },
        {
          "internalType": "address",
          "name": "to",
          "type": "address"
        },
        {
          "internalType": "uint256",
          "name": "amount",
          "type": "uint256"
        }
      ],
      "name": "transferFrom",
      "outputs": [
        {
          "internalType": "bool",
          "name": "",
          "type": "bool"
        }
      ],
      "stateMutability": "nonpayable",
      "type": "function"
    },
    {
      "inputs": [
        {
          "internalType": "address",
          "name": "newOwner",
          "type": "address"
        }
      ],
      "name": "transferOwnership",
      "outputs": [],
      "stateMutability": "nonpayable",
      "type": "function"
    }
  ],
  "bytecode": {
    "object": "0x60806040523480156200001157600080fd5b506200001c62000022565b620000e4565b600054610100900460ff16156200008f5760405162461bcd60e51b815260206004820152602760248201527f496e697469616c697a61626c653a20636f6e747261637420697320696e697469604482015266616c697a696e6760c81b606482015260840160405180910390fd5b60005460ff9081161015620000e2576000805460ff191660ff9081179091556040519081527f7f26b83ff96e1f2b6a682f133852f6798a09c465da95921460cefb38474024989060200160405180910390a15b565b6129ad80620000f46000396000f3fe608060405234801561001057600080fd5b50600436106101f05760003560e01c806379cc67901161010f5780639ab24eb0116100a2578063d505accf11610071578063d505accf14610445578063dd62ed3e14610458578063f1127ed81461046b578063f2fde38b146104a857600080fd5b80639ab24eb0146103f9578063a457c2d71461040c578063a9059cbb1461041f578063c3cda5201461043257600080fd5b80638e539e8c116100de5780638e539e8c146103c357806395d89b41146103d65780639711715a146103de578063981b24d0146103e657600080fd5b806379cc6790146103845780637ecebe00146103975780638129fc1c146103aa5780638da5cb5b146103b257600080fd5b806340c10f19116101875780635c19a95c116101565780635c19a95c146103185780636fcfff451461032b57806370a0823114610353578063715018a61461037c57600080fd5b806340c10f191461029857806342966c68146102ad5780634ee2cd7e146102c0578063587cde1e146102d357600080fd5b8063313ce567116101c3578063313ce5671461025b5780633644e5151461026a57806339509351146102725780633a46b1a81461028557600080fd5b806306fdde03146101f5578063095ea7b31461021357806318160ddd1461023657806323b872dd14610248575b600080fd5b6101fd6104bb565b60405161020a91906123ed565b60405180910390f35b610226610221366004612452565b61054d565b604051901515815260200161020a565b6035545b60405190815260200161020a565b61022661025636600461247c565b610567565b6040516012815260200161020a565b61023a61058b565b610226610280366004612452565b61059a565b61023a610293366004612452565b6105bc565b6102ab6102a6366004612452565b61063c565b005b6102ab6102bb3660046124b8565b610652565b61023a6102ce366004612452565b61065f565b6103006102e13660046124d1565b6001600160a01b03908116600090815261016260205260409020541690565b6040516001600160a01b03909116815260200161020a565b6102ab6103263660046124d1565b6106b8565b61033e6103393660046124d1565b6106c2565b60405163ffffffff909116815260200161020a565b61023a6103613660046124d1565b6001600160a01b031660009081526033602052604090205490565b6102ab6106e5565b6102ab610392366004612452565b6106f9565b61023a6103a53660046124d1565b61070e565b6102ab61072d565b60c9546001600160a01b0316610300565b61023a6103d13660046124b8565b6108e9565b6101fd610946565b6102ab610955565b61023a6103f43660046124b8565b610965565b61023a6104073660046124d1565b610990565b61022661041a366004612452565b610a19565b61022661042d366004612452565b610a94565b6102ab6104403660046124fd565b610aa2565b6102ab610453366004612555565b610bd8565b61023a6104663660046125bf565b610d3c565b61047e6104793660046125f2565b610d67565b60408051825163ffffffff1681526020928301516001600160e01b0316928101929092520161020a565b6102ab6104b63660046124d1565b610dec565b6060603680546104ca90612632565b80601f01602080910402602001604051908101604052809291908181526020018280546104f690612632565b80156105435780601f1061051857610100808354040283529160200191610543565b820191906000526020600020905b81548152906001019060200180831161052657829003601f168201915b5050505050905090565b60003361055b818585610e62565b60019150505b92915050565b600033610575858285610f86565b610580858585611000565b506001949350505050565b60006105956111bc565b905090565b60003361055b8185856105ad8383610d3c565b6105b7919061267c565b610e62565b60004382106106125760405162461bcd60e51b815260206004820152601f60248201527f4552433230566f7465733a20626c6f636b206e6f7420796574206d696e65640060448201526064015b60405180910390fd5b6001600160a01b0383166000908152610163602052604090206106359083611237565b9392505050565b61064461132e565b61064e8282611388565b5050565b61065c3382611392565b50565b6001600160a01b03821660009081526097602052604081208190819061068690859061139c565b91509150816106ad576001600160a01b0385166000908152603360205260409020546106af565b805b95945050505050565b61065c3382611498565b6001600160a01b0381166000908152610163602052604081205461056190611513565b6106ed61132e565b6106f7600061157c565b565b610704823383610f86565b61064e8282611392565b6001600160a01b038116600090815261012f6020526040812054610561565b600054610100900460ff161580801561074d5750600054600160ff909116105b806107675750303b158015610767575060005460ff166001145b6107ca5760405162461bcd60e51b815260206004820152602e60248201527f496e697469616c697a61626c653a20636f6e747261637420697320616c72656160448201526d191e481a5b9a5d1a585b1a5e995960921b6064820152608401610609565b6000805460ff1916600117905580156107ed576000805461ff0019166101001790555b6108346040518060400160405280600a8152602001691099585d995c919d5b9960b21b815250604051806040016040528060038152602001622c212360e91b8152506115ce565b61083c6115ff565b6108446115ff565b61084c611626565b6108776040518060400160405280600a8152602001691099585d995c919d5b9960b21b815250611655565b61087f6115ff565b6108a13361088f6012600a61276b565b61089c906298968061277a565b611388565b801561065c576000805461ff0019169055604051600181527f7f26b83ff96e1f2b6a682f133852f6798a09c465da95921460cefb38474024989060200160405180910390a150565b600043821061093a5760405162461bcd60e51b815260206004820152601f60248201527f4552433230566f7465733a20626c6f636b206e6f7420796574206d696e6564006044820152606401610609565b61056161016483611237565b6060603780546104ca90612632565b61095d61132e565b61065c61169f565b600080600061097584609861139c565b915091508161098657603554610988565b805b949350505050565b6001600160a01b038116600090815261016360205260408120548015610a06576001600160a01b0383166000908152610163602052604090206109d4600183612791565b815481106109e4576109e46127a4565b60009182526020909120015464010000000090046001600160e01b0316610a09565b60005b6001600160e01b03169392505050565b60003381610a278286610d3c565b905083811015610a875760405162461bcd60e51b815260206004820152602560248201527f45524332303a2064656372656173656420616c6c6f77616e63652062656c6f77604482015264207a65726f60d81b6064820152608401610609565b6105808286868403610e62565b60003361055b818585611000565b83421115610af25760405162461bcd60e51b815260206004820152601d60248201527f4552433230566f7465733a207369676e617475726520657870697265640000006044820152606401610609565b604080517fe48329057bfd03d55e49b547132e39cffd9c1820ad7b9d4c5307691425d15adf60208201526001600160a01b038816918101919091526060810186905260808101859052600090610b6c90610b649060a001604051602081830303815290604052805190602001206116f9565b858585611747565b9050610b778161176f565b8614610bc55760405162461bcd60e51b815260206004820152601960248201527f4552433230566f7465733a20696e76616c6964206e6f6e6365000000000000006044820152606401610609565b610bcf8188611498565b50505050505050565b83421115610c285760405162461bcd60e51b815260206004820152601d60248201527f45524332305065726d69743a206578706972656420646561646c696e650000006044820152606401610609565b60007f6e71edae12b1b97f4d1f60370fef10105fa2faae0126114a169c64845d6126c9888888610c578c61176f565b6040805160208101969096526001600160a01b0394851690860152929091166060840152608083015260a082015260c0810186905260e0016040516020818303038152906040528051906020012090506000610cb2826116f9565b90506000610cc282878787611747565b9050896001600160a01b0316816001600160a01b031614610d255760405162461bcd60e51b815260206004820152601e60248201527f45524332305065726d69743a20696e76616c6964207369676e617475726500006044820152606401610609565b610d308a8a8a610e62565b50505050505050505050565b6001600160a01b03918216600090815260346020908152604080832093909416825291909152205490565b60408051808201909152600080825260208201526001600160a01b038316600090815261016360205260409020805463ffffffff8416908110610dac57610dac6127a4565b60009182526020918290206040805180820190915291015463ffffffff8116825264010000000090046001600160e01b0316918101919091529392505050565b610df461132e565b6001600160a01b038116610e595760405162461bcd60e51b815260206004820152602660248201527f4f776e61626c653a206e6577206f776e657220697320746865207a65726f206160448201526564647265737360d01b6064820152608401610609565b61065c8161157c565b6001600160a01b038316610ec45760405162461bcd60e51b8152602060048201526024808201527f45524332303a20617070726f76652066726f6d20746865207a65726f206164646044820152637265737360e01b6064820152608401610609565b6001600160a01b038216610f255760405162461bcd60e51b815260206004820152602260248201527f45524332303a20617070726f766520746f20746865207a65726f206164647265604482015261737360f01b6064820152608401610609565b6001600160a01b0383811660008181526034602090815260408083209487168084529482529182902085905590518481527f8c5be1e5ebec7d5bd14f71427d1e84f3dd0314c0f7b2291e5b200ac8c7c3b925910160405180910390a3505050565b6000610f928484610d3c565b90506000198114610ffa5781811015610fed5760405162461bcd60e51b815260206004820152601d60248201527f45524332303a20696e73756666696369656e7420616c6c6f77616e63650000006044820152606401610609565b610ffa8484848403610e62565b50505050565b6001600160a01b0383166110645760405162461bcd60e51b815260206004820152602560248201527f45524332303a207472616e736665722066726f6d20746865207a65726f206164604482015264647265737360d81b6064820152608401610609565b6001600160a01b0382166110c65760405162461bcd60e51b815260206004820152602360248201527f45524332303a207472616e7366657220746f20746865207a65726f206164647260448201526265737360e81b6064820152608401610609565b6110d1838383611798565b6001600160a01b038316600090815260336020526040902054818110156111495760405162461bcd60e51b815260206004820152602660248201527f45524332303a207472616e7366657220616d6f756e7420657863656564732062604482015265616c616e636560d01b6064820152608401610609565b6001600160a01b0380851660008181526033602052604080822086860390559286168082529083902080548601905591517fddf252ad1be2c89b69c2b068fc378daa952ba7f163c4a11628f55a4df523b3ef906111a99086815260200190565b60405180910390a3610ffa8484846117a8565b60006105957f8b73c3c69bb8fe3d512ecc4cf759cc79239f7b179b0ffacaa9a75d522b39400f6111eb60fb5490565b60fc546040805160208101859052908101839052606081018290524660808201523060a082015260009060c0016040516020818303038152906040528051906020012090509392505050565b815460009081816005811115611291576000611252846117b3565b61125c9085612791565b600088815260209020909150869082015463ffffffff1611156112815780915061128f565b61128c81600161267c565b92505b505b808210156112de5760006112a5838361189b565b600088815260209020909150869082015463ffffffff1611156112ca578091506112d8565b6112d581600161267c565b92505b50611291565b801561131857611301866112f3600184612791565b600091825260209091200190565b5464010000000090046001600160e01b031661131b565b60005b6001600160e01b03169695505050505050565b60c9546001600160a01b031633146106f75760405162461bcd60e51b815260206004820181905260248201527f4f776e61626c653a2063616c6c6572206973206e6f7420746865206f776e65726044820152606401610609565b61064e82826118b6565b61064e8282611941565b600080600084116113e85760405162461bcd60e51b815260206004820152601660248201527504552433230536e617073686f743a20696420697320360541b6044820152606401610609565b6113f061195a565b84111561143f5760405162461bcd60e51b815260206004820152601d60248201527f4552433230536e617073686f743a206e6f6e6578697374656e742069640000006044820152606401610609565b600061144b8486611965565b84549091508103611463576000809250925050611491565b600184600101828154811061147a5761147a6127a4565b90600052602060002001549250925050611491565b505b9250929050565b6001600160a01b0382811660008181526101626020818152604080842080546033845282862054949093528787166001600160a01b03198416811790915590519190951694919391928592917f3134e8a2e6d97e929a7e54011ea5485d7d196dd5f0ba4d4ef95803e8e3fc257f9190a4610ffa828483611a04565b600063ffffffff8211156115785760405162461bcd60e51b815260206004820152602660248201527f53616665436173743a2076616c756520646f65736e27742066697420696e203360448201526532206269747360d01b6064820152608401610609565b5090565b60c980546001600160a01b038381166001600160a01b0319831681179093556040519116919082907f8be0079c531659141344cd1fd0a4f28419497f9722a3daafe3b4186f6b6457e090600090a35050565b600054610100900460ff166115f55760405162461bcd60e51b8152600401610609906127ba565b61064e8282611b43565b600054610100900460ff166106f75760405162461bcd60e51b8152600401610609906127ba565b600054610100900460ff1661164d5760405162461bcd60e51b8152600401610609906127ba565b6106f7611b83565b600054610100900460ff1661167c5760405162461bcd60e51b8152600401610609906127ba565b61065c81604051806040016040528060018152602001603160f81b815250611bb3565b60006116af609a80546001019055565b60006116b961195a565b90507f8030e83b04d87bef53480e26263266d6ca66863aa8506aca6f2559d18aa1cb67816040516116ec91815260200190565b60405180910390a1919050565b60006105616117066111bc565b8360405161190160f01b6020820152602281018390526042810182905260009060620160405160208183030381529060405280519060200120905092915050565b600080600061175887878787611bf4565b9150915061176581611cb8565b5095945050505050565b6001600160a01b038116600090815261012f602052604090208054600181018255905b50919050565b6117a3838383611e02565b505050565b6117a3838383611e4a565b6000816000036117c557506000919050565b600060016117d284611e7d565b901c6001901b905060018184816117eb576117eb612805565b048201901c9050600181848161180357611803612805565b048201901c9050600181848161181b5761181b612805565b048201901c9050600181848161183357611833612805565b048201901c9050600181848161184b5761184b612805565b048201901c9050600181848161186357611863612805565b048201901c9050600181848161187b5761187b612805565b048201901c90506106358182858161189557611895612805565b04611f11565b60006118aa600284841861281b565b6106359084841661267c565b6118c08282611f27565b6035546001600160e01b0310156119325760405162461bcd60e51b815260206004820152603060248201527f4552433230566f7465733a20746f74616c20737570706c79207269736b73206f60448201526f766572666c6f77696e6720766f74657360801b6064820152608401610609565b610ffa610164611ffc83612008565b61194b828261215c565b610ffa6101646122a383612008565b6000610595609a5490565b8154600090810361197857506000610561565b82546000905b808210156119c5576000611992838361189b565b600087815260209020909150859082015411156119b1578091506119bf565b6119bc81600161267c565b92505b5061197e565b6000821180156119e35750836119e0866112f3600186612791565b54145b156119fc576119f3600183612791565b92505050610561565b509050610561565b816001600160a01b0316836001600160a01b031614158015611a265750600081115b156117a3576001600160a01b03831615611ab5576001600160a01b0383166000908152610163602052604081208190611a62906122a385612008565b91509150846001600160a01b03167fdec2bacdd2f05b59de34da9b523dff8be42e5e38e818c82fdb0bae774387a7248383604051611aaa929190918252602082015260400190565b60405180910390a250505b6001600160a01b038216156117a3576001600160a01b0382166000908152610163602052604081208190611aec90611ffc85612008565b91509150836001600160a01b03167fdec2bacdd2f05b59de34da9b523dff8be42e5e38e818c82fdb0bae774387a7248383604051611b34929190918252602082015260400190565b60405180910390a25050505050565b600054610100900460ff16611b6a5760405162461bcd60e51b8152600401610609906127ba565b6036611b7683826128a1565b5060376117a382826128a1565b600054610100900460ff16611baa5760405162461bcd60e51b8152600401610609906127ba565b6106f73361157c565b600054610100900460ff16611bda5760405162461bcd60e51b8152600401610609906127ba565b81516020928301208151919092012060fb9190915560fc55565b6000807f7fffffffffffffffffffffffffffffff5d576e7357a4501ddfe92f46681b20a0831115611c2b5750600090506003611caf565b6040805160008082526020820180845289905260ff881692820192909252606081018690526080810185905260019060a0016020604051602081039080840390855afa158015611c7f573d6000803e3d6000fd5b5050604051601f1901519150506001600160a01b038116611ca857600060019250925050611caf565b9150600090505b94509492505050565b6000816004811115611ccc57611ccc612961565b03611cd45750565b6001816004811115611ce857611ce8612961565b03611d355760405162461bcd60e51b815260206004820152601860248201527f45434453413a20696e76616c6964207369676e617475726500000000000000006044820152606401610609565b6002816004811115611d4957611d49612961565b03611d965760405162461bcd60e51b815260206004820152601f60248201527f45434453413a20696e76616c6964207369676e6174757265206c656e677468006044820152606401610609565b6003816004811115611daa57611daa612961565b0361065c5760405162461bcd60e51b815260206004820152602260248201527f45434453413a20696e76616c6964207369676e6174757265202773272076616c604482015261756560f01b6064820152608401610609565b6001600160a01b038316611e2157611e19826122af565b6117a36122e2565b6001600160a01b038216611e3857611e19836122af565b611e41836122af565b6117a3826122af565b6001600160a01b03838116600090815261016260205260408082205485841683529120546117a392918216911683611a04565b600080608083901c15611e9257608092831c92015b604083901c15611ea457604092831c92015b602083901c15611eb657602092831c92015b601083901c15611ec857601092831c92015b600883901c15611eda57600892831c92015b600483901c15611eec57600492831c92015b600283901c15611efe57600292831c92015b600183901c156105615760010192915050565b6000818310611f205781610635565b5090919050565b6001600160a01b038216611f7d5760405162461bcd60e51b815260206004820152601f60248201527f45524332303a206d696e7420746f20746865207a65726f2061646472657373006044820152606401610609565b611f8960008383611798565b8060356000828254611f9b919061267c565b90915550506001600160a01b0382166000818152603360209081526040808320805486019055518481527fddf252ad1be2c89b69c2b068fc378daa952ba7f163c4a11628f55a4df523b3ef910160405180910390a361064e600083836117a8565b6000610635828461267c565b8254600090819081811561205557612025876112f3600185612791565b60408051808201909152905463ffffffff8116825264010000000090046001600160e01b0316602082015261206a565b60408051808201909152600080825260208201525b905080602001516001600160e01b0316935061208a84868863ffffffff16565b92506000821180156120a25750805163ffffffff1643145b156120e7576120b0836122f0565b6120bf886112f3600186612791565b80546001600160e01b03929092166401000000000263ffffffff909216919091179055612152565b8660405180604001604052806120fc43611513565b63ffffffff168152602001612110866122f0565b6001600160e01b0390811690915282546001810184556000938452602093849020835194909301519091166401000000000263ffffffff909316929092179101555b5050935093915050565b6001600160a01b0382166121bc5760405162461bcd60e51b815260206004820152602160248201527f45524332303a206275726e2066726f6d20746865207a65726f206164647265736044820152607360f81b6064820152608401610609565b6121c882600083611798565b6001600160a01b0382166000908152603360205260409020548181101561223c5760405162461bcd60e51b815260206004820152602260248201527f45524332303a206275726e20616d6f756e7420657863656564732062616c616e604482015261636560f01b6064820152608401610609565b6001600160a01b03831660008181526033602090815260408083208686039055603580548790039055518581529192917fddf252ad1be2c89b69c2b068fc378daa952ba7f163c4a11628f55a4df523b3ef910160405180910390a36117a3836000846117a8565b60006106358284612791565b6001600160a01b038116600090815260976020908152604080832060339092529091205461065c9190612359565b612359565b6106f760986122dd60355490565b60006001600160e01b038211156115785760405162461bcd60e51b815260206004820152602760248201527f53616665436173743a2076616c756520646f65736e27742066697420696e20326044820152663234206269747360c81b6064820152608401610609565b600061236361195a565b90508061236f846123a3565b10156117a3578254600180820185556000858152602080822090930193909355938401805494850181558252902090910155565b805460009081036123b657506000919050565b815482906123c690600190612791565b815481106123d6576123d66127a4565b90600052602060002001549050919050565b919050565b600060208083528351808285015260005b8181101561241a578581018301518582016040015282016123fe565b506000604082860101526040601f19601f8301168501019250505092915050565b80356001600160a01b03811681146123e857600080fd5b6000806040838503121561246557600080fd5b61246e8361243b565b946020939093013593505050565b60008060006060848603121561249157600080fd5b61249a8461243b565b92506124a86020850161243b565b9150604084013590509250925092565b6000602082840312156124ca57600080fd5b5035919050565b6000602082840312156124e357600080fd5b6106358261243b565b803560ff811681146123e857600080fd5b60008060008060008060c0878903121561251657600080fd5b61251f8761243b565b9550602087013594506040870135935061253b606088016124ec565b92506080870135915060a087013590509295509295509295565b600080600080600080600060e0888a03121561257057600080fd5b6125798861243b565b96506125876020890161243b565b955060408801359450606088013593506125a3608089016124ec565b925060a0880135915060c0880135905092959891949750929550565b600080604083850312156125d257600080fd5b6125db8361243b565b91506125e96020840161243b565b90509250929050565b6000806040838503121561260557600080fd5b61260e8361243b565b9150602083013563ffffffff8116811461262757600080fd5b809150509250929050565b600181811c9082168061264657607f821691505b60208210810361179257634e487b7160e01b600052602260045260246000fd5b634e487b7160e01b600052601160045260246000fd5b8082018082111561056157610561612666565b600181815b8085111561148f5781600019048211156126b0576126b0612666565b808516156126bd57918102915b93841c9390800290612694565b6000826126d957506001610561565b816126e657506000610561565b81600181146126fc576002811461270657612722565b6001915050610561565b60ff84111561271757612717612666565b50506001821b610561565b5060208310610133831016604e8410600b8410161715612745575081810a610561565b61274f838361268f565b806000190482111561276357612763612666565b029392505050565b600061063560ff8416836126ca565b808202811582820484141761056157610561612666565b8181038181111561056157610561612666565b634e487b7160e01b600052603260045260246000fd5b6020808252602b908201527f496e697469616c697a61626c653a20636f6e7472616374206973206e6f74206960408201526a6e697469616c697a696e6760a81b606082015260800190565b634e487b7160e01b600052601260045260246000fd5b60008261283857634e487b7160e01b600052601260045260246000fd5b500490565b634e487b7160e01b600052604160045260246000fd5b601f8211156117a357600081815260208120601f850160051c8101602086101561287a5750805b601f850160051c820191505b8181101561289957828155600101612886565b505050505050565b815167ffffffffffffffff8111156128bb576128bb61283d565b6128cf816128c98454612632565b84612853565b602080601f83116001811461290457600084156128ec5750858301515b600019600386901b1c1916600185901b178555612899565b600085815260208120601f198616915b8281101561293357888601518255948401946001909101908401612914565b50858210156129515787850151600019600388901b60f8161c191681555b5050505050600190811b01905550565b634e487b7160e01b600052602160045260246000fdfea264697066735822122008191113660c3c9721381aea5b092b1bbac6c92b66facae81b3f966098ed26c864736f6c63430008130033",
    "linkReferences": {}
  },
  "methodIdentifiers": {
    "DOMAIN_SEPARATOR()": "3644e515",
    "allowance(address,address)": "dd62ed3e",
    "approve(address,uint256)": "095ea7b3",
    "balanceOf(address)": "70a08231",
    "balanceOfAt(address,uint256)": "4ee2cd7e",
    "burn(uint256)": "42966c68",
    "burnFrom(address,uint256)": "79cc6790",
    "checkpoints(address,uint32)": "f1127ed8",
    "decimals()": "313ce567",
    "decreaseAllowance(address,uint256)": "a457c2d7",
    "delegate(address)": "5c19a95c",
    "delegateBySig(address,uint256,uint256,uint8,bytes32,bytes32)": "c3cda520",
    "delegates(address)": "587cde1e",
    "getPastTotalSupply(uint256)": "8e539e8c",
    "getPastVotes(address,uint256)": "3a46b1a8",
    "getVotes(address)": "9ab24eb0",
    "increaseAllowance(address,uint256)": "39509351",
    "initialize()": "8129fc1c",
    "mint(address,uint256)": "40c10f19",
    "name()": "06fdde03",
    "nonces(address)": "7ecebe00",
    "numCheckpoints(address)": "6fcfff45",
    "owner()": "8da5cb5b",
    "permit(address,address,uint256,uint256,uint8,bytes32,bytes32)": "d505accf",
    "renounceOwnership()": "715018a6",
    "snapshot()": "9711715a",
    "symbol()": "95d89b41",
    "totalSupply()": "18160ddd",
    "totalSupplyAt(uint256)": "981b24d0",
    "transfer(address,uint256)": "a9059cbb",
    "transferFrom(address,address,uint256)": "23b872dd",
    "transferOwnership(address)": "f2fde38b"
  },
  "id": 79
}