{
  "abi": [
    {
      "inputs": [
        {
          "internalType": "address",
          "name": "_owner",
          "type": "address"
        }
      ],
      "name": "getUserBalance",
      "outputs": [
        {
          "internalType": "uint256",
          "name": "",
          "type": "uint256"
        }
      ],
      "stateMutability": "view",
      "type": "function"
    },
    {
      "inputs": [
        {
          "internalType": "address payable",
          "name": "_investor",
          "type": "address"
        },
        {
          "internalType": "uint256",
          "name": "_amount",
          "type": "uint256"
        }
      ],
      "name": "invest",
      "outputs": [],
      "stateMutability": "nonpayable",
      "type": "function"
    },
    {
      "inputs": [
        {
          "internalType": "address",
          "name": "",
          "type": "address"
        }
      ],
      "name": "investments",
      "outputs": [
        {
          "internalType": "address payable",
          "name": "investor",
          "type": "address"
        },
        {
          "internalType": "uint256",
          "name": "amount",
          "type": "uint256"
        },
        {
          "internalType": "uint256",
          "name": "lastPayout",
          "type": "uint256"
        }
      ],
      "stateMutability": "view",
      "type": "function"
    },
    {
      "inputs": [
        {
          "internalType": "uint256",
          "name": "",
          "type": "uint256"
        }
      ],
      "name": "investors",
      "outputs": [
        {
          "internalType": "address payable",
          "name": "",
          "type": "address"
        }
      ],
      "stateMutability": "view",
      "type": "function"
    },
    {
      "inputs": [],
      "name": "payout",
      "outputs": [],
      "stateMutability": "nonpayable",
      "type": "function"
    }
  ],
  "bytecode": {
    "object": "0x608060405234801561001057600080fd5b506103d8806100206000396000f3fe608060405234801561001057600080fd5b50600436106100575760003560e01c80633feb5f2b1461005c578063477348921461008c57806363bd1d4a146100b557806396b98862146100bf578063b9b8c2461461011d575b600080fd5b61006f61006a3660046102aa565b6101a2565b6040516001600160a01b0390911681526020015b60405180910390f35b6100a761009a3660046102d8565b6001600160a01b03163190565b604051908152602001610083565b6100bd6101cc565b005b6100f86100cd3660046102d8565b6000602081905290815260409020805460018201546002909201546001600160a01b03909116919083565b604080516001600160a01b039094168452602084019290925290820152606001610083565b6100bd61012b3660046102fc565b6001600160a01b03909116600081815260208190526040812080546001600160a01b0319908116841782556001808301959095554260029092019190915583548085018555939091527fb10e2d527612073b26eecdfd717e6a320cf44b4afac2b0732d9fcbe2b7fa0cf69092018054909216179055565b600181815481106101b257600080fd5b6000918252602090912001546001600160a01b0316905081565b60005b600154811015610290576000600182815481106101ee576101ee610328565b60009182526020808320909101546001600160a01b03168083529082905260408220600281015491935091906102249042610354565b90506000610236836001015483610293565b6040519091506001600160a01b0385169082156108fc029083906000818181858888f1935050505015801561026f573d6000803e3d6000fd5b5042836002018190555050505050808061028890610367565b9150506101cf565b50565b60006102a16103e884610380565b90505b92915050565b6000602082840312156102bc57600080fd5b5035919050565b6001600160a01b038116811461029057600080fd5b6000602082840312156102ea57600080fd5b81356102f5816102c3565b9392505050565b6000806040838503121561030f57600080fd5b823561031a816102c3565b946020939093013593505050565b634e487b7160e01b600052603260045260246000fd5b634e487b7160e01b600052601160045260246000fd5b818103818111156102a4576102a461033e565b6000600182016103795761037961033e565b5060010190565b60008261039d57634e487b7160e01b600052601260045260246000fd5b50049056fea264697066735822122039a0c4dda915dfccfc1477fb7df48d31ccd59dc61c725856da47569711cc792164736f6c63430008130033",
    "linkReferences": {}
  },
  "methodIdentifiers": {
    "getUserBalance(address)": "47734892",
    "invest(address,uint256)": "b9b8c246",
    "investments(address)": "96b98862",
    "investors(uint256)": "3feb5f2b",
    "payout()": "63bd1d4a"
  },
  "id": 81
}