{
  "abi": [
    {
      "inputs": [],
      "stateMutability": "nonpayable",
      "type": "constructor"
    },
    {
      "anonymous": false,
      "inputs": [
        {
          "indexed": false,
          "internalType": "string",
          "name": "accountWarning",
          "type": "string"
        }
      ],
      "name": "CreateAccount",
      "type": "event"
    },
    {
      "anonymous": false,
      "inputs": [
        {
          "indexed": false,
          "internalType": "uint256",
          "name": "amountToWithdraw",
          "type": "uint256"
        },
        {
          "indexed": false,
          "internalType": "uint256",
          "name": "withdrawableRevenue",
          "type": "uint256"
        },
        {
          "indexed": false,
          "internalType": "string",
          "name": "infName",
          "type": "string"
        },
        {
          "indexed": false,
          "internalType": "address payable",
          "name": "infWallet",
          "type": "address"
        }
      ],
      "name": "insufficientFunds",
      "type": "event"
    },
    {
      "anonymous": false,
      "inputs": [
        {
          "indexed": false,
          "internalType": "string",
          "name": "infNotFoundWarning",
          "type": "string"
        }
      ],
      "name": "noInfFound",
      "type": "event"
    },
    {
      "anonymous": false,
      "inputs": [
        {
          "indexed": false,
          "internalType": "string",
          "name": "fname",
          "type": "string"
        },
        {
          "indexed": false,
          "internalType": "string",
          "name": "lname",
          "type": "string"
        },
        {
          "indexed": false,
          "internalType": "address payable",
          "name": "wallet",
          "type": "address"
        },
        {
          "indexed": false,
          "internalType": "uint256",
          "name": "totalPayed",
          "type": "uint256"
        },
        {
          "indexed": false,
          "internalType": "uint256",
          "name": "userType",
          "type": "uint256"
        }
      ],
      "name": "printIndUserArray",
      "type": "event"
    },
    {
      "anonymous": false,
      "inputs": [
        {
          "indexed": false,
          "internalType": "string",
          "name": "name",
          "type": "string"
        },
        {
          "indexed": false,
          "internalType": "address payable",
          "name": "wallet",
          "type": "address"
        },
        {
          "indexed": false,
          "internalType": "uint256",
          "name": "totalRevenue",
          "type": "uint256"
        },
        {
          "indexed": false,
          "internalType": "uint256",
          "name": "withdrawableRevenue",
          "type": "uint256"
        },
        {
          "indexed": false,
          "internalType": "uint256",
          "name": "totalVisits",
          "type": "uint256"
        }
      ],
      "name": "printinfArray",
      "type": "event"
    },
    {
      "anonymous": false,
      "inputs": [
        {
          "indexed": false,
          "internalType": "string",
          "name": "costString",
          "type": "string"
        },
        {
          "indexed": false,
          "internalType": "uint256",
          "name": "userCost",
          "type": "uint256"
        }
      ],
      "name": "sendCost",
      "type": "event"
    },
    {
      "anonymous": false,
      "inputs": [
        {
          "indexed": false,
          "internalType": "string",
          "name": "infName",
          "type": "string"
        },
        {
          "indexed": false,
          "internalType": "address payable",
          "name": "wallet",
          "type": "address"
        },
        {
          "indexed": false,
          "internalType": "string",
          "name": "successMessage",
          "type": "string"
        }
      ],
      "name": "successfulWithdrawal",
      "type": "event"
    },
    {
      "anonymous": false,
      "inputs": [
        {
          "indexed": false,
          "internalType": "uint256",
          "name": "userCost",
          "type": "uint256"
        },
        {
          "indexed": false,
          "internalType": "string",
          "name": "firstName",
          "type": "string"
        },
        {
          "indexed": false,
          "internalType": "string",
          "name": "lastName",
          "type": "string"
        },
        {
          "indexed": false,
          "internalType": "string",
          "name": "infName",
          "type": "string"
        }
      ],
      "name": "userPaymentSuccess",
      "type": "event"
    },
    {
      "inputs": [
        {
          "internalType": "string",
          "name": "infName",
          "type": "string"
        }
      ],
      "name": "IndUsrpayInfrustuctureWallet",
      "outputs": [],
      "stateMutability": "payable",
      "type": "function"
    },
    {
      "inputs": [
        {
          "internalType": "address payable",
          "name": "infWallet",
          "type": "address"
        },
        {
          "internalType": "string",
          "name": "infName",
          "type": "string"
        },
        {
          "internalType": "uint256",
          "name": "member_type1_cost",
          "type": "uint256"
        },
        {
          "internalType": "uint256",
          "name": "member_type2_cost",
          "type": "uint256"
        },
        {
          "internalType": "uint256",
          "name": "member_type3_cost",
          "type": "uint256"
        },
        {
          "internalType": "uint256",
          "name": "member_type1_threshold",
          "type": "uint256"
        },
        {
          "internalType": "uint256",
          "name": "member_type2_threshold",
          "type": "uint256"
        },
        {
          "internalType": "uint256",
          "name": "member_type3_threshold",
          "type": "uint256"
        }
      ],
      "name": "addInfStructure",
      "outputs": [],
      "stateMutability": "nonpayable",
      "type": "function"
    },
    {
      "inputs": [
        {
          "internalType": "string",
          "name": "firstname",
          "type": "string"
        },
        {
          "internalType": "string",
          "name": "lastname",
          "type": "string"
        },
        {
          "internalType": "string",
          "name": "infName",
          "type": "string"
        }
      ],
      "name": "addUserToDataBase",
      "outputs": [],
      "stateMutability": "nonpayable",
      "type": "function"
    },
    {
      "inputs": [
        {
          "internalType": "string",
          "name": "infName",
          "type": "string"
        }
      ],
      "name": "checkHowMuchIOwe",
      "outputs": [],
      "stateMutability": "nonpayable",
      "type": "function"
    },
    {
      "inputs": [
        {
          "internalType": "address",
          "name": "walletAddress",
          "type": "address"
        }
      ],
      "name": "deposit",
      "outputs": [],
      "stateMutability": "payable",
      "type": "function"
    },
    {
      "inputs": [],
      "name": "getAllIndUsersArrayItems",
      "outputs": [],
      "stateMutability": "nonpayable",
      "type": "function"
    },
    {
      "inputs": [],
      "name": "getAllInfArrayItems",
      "outputs": [],
      "stateMutability": "nonpayable",
      "type": "function"
    },
    {
      "inputs": [
        {
          "internalType": "uint256",
          "name": "amountToWithdraw",
          "type": "uint256"
        }
      ],
      "name": "withdrawRevenue",
      "outputs": [],
      "stateMutability": "nonpayable",
      "type": "function"
    }
  ],
  "bytecode": {
    "object": "0x60e0604052602a608081815290620023e160a03960039062000022908262000118565b506040518060800160405280604681526020016200240b604691396004906200004c908262000118565b503480156200005a57600080fd5b50600080546001600160a01b03191633179055620001e4565b634e487b7160e01b600052604160045260246000fd5b600181811c908216806200009e57607f821691505b602082108103620000bf57634e487b7160e01b600052602260045260246000fd5b50919050565b601f8211156200011357600081815260208120601f850160051c81016020861015620000ee5750805b601f850160051c820191505b818110156200010f57828155600101620000fa565b5050505b505050565b81516001600160401b0381111562000134576200013462000073565b6200014c8162000145845462000089565b84620000c5565b602080601f8311600181146200018457600084156200016b5750858301515b600019600386901b1c1916600185901b1785556200010f565b600085815260208120601f198616915b82811015620001b55788860151825594840194600190910190840162000194565b5085821015620001d45787850151600019600388901b60f8161c191681555b5050505050600190811b01905550565b6121ed80620001f46000396000f3fe60806040526004361061007b5760003560e01c8063977052dd1161004e578063977052dd146100f5578063a2077a8c1461010a578063b1ae74471461011f578063f340fa011461013f57600080fd5b80630ceff204146100805780631756ec2f146100a25780634c8b10dc146100c25780636f76f9c0146100e2575b600080fd5b34801561008c57600080fd5b506100a061009b366004611a66565b610150565b005b3480156100ae57600080fd5b506100a06100bd366004611b37565b61030b565b3480156100ce57600080fd5b506100a06100dd366004611bbc565b61056c565b6100a06100f0366004611c44565b6106a7565b34801561010157600080fd5b506100a061086d565b34801561011657600080fd5b506100a0610989565b34801561012b57600080fd5b506100a061013a366004611c44565b610aa6565b6100a061014d366004611c81565b50565b600081116101bf5760405162461bcd60e51b815260206004820152603160248201527f506c6561736520656e7465722061206e756d6265722067726561746572207468604482015270616e203020746f2077697468647261772160781b60648201526084015b60405180910390fd5b60006101ca33610c1b565b6040805180820190915260048152631395531360e21b6020918201528082015180519101209091506000805160206121988339815191520161020b57600080fd5b806101200151821115610278577f38d99d592e9e6d1ef31b4be874e7c296d83b0fe1883ba805ad2fc14773d1ee0d828261012001518360200151846000015160405161025a9493929190611ceb565b60405180910390a180610120015182111561027457600080fd5b5050565b80610120015182116102745780516040516001600160a01b039091169083156108fc029084906000818181858888f193505050501580156102bd573d6000803e3d6000fd5b506102c88183610e22565b602081015181516040517f4ab08970b81004d29e05173adcfe4eeaf173c552457c55f0ade786c4a2881a9c926102ff929091611d23565b60405180910390a15050565b6000546001600160a01b031633146103b15760405162461bcd60e51b815260206004820152605c60248201527f596f75206d75737420626520746865206f776e6572206f662074686520636f6e60448201527f747261637420746f206164642061206e657720696e667261737472756374757260648201527f652c20706c6561736520636f6e7461637420746865206f776e65722100000000608482015260a4016101b6565b6103ba87610eb8565b1561043c5760405162461bcd60e51b815260206004820152604660248201527f54686973204e616d6520697320616c726561647920696e207573652c20706c6560448201527f6173652063686f6f736520616e6f74686572206e616d6520616e64207472792060648201526530b3b0b4b71760d11b608482015260a4016101b6565b6104446119bd565b6001600160a01b0389811682526020820189815260a0830189905260c0830188905260e0830187905260408301869052606083018590526080830184905260018054808201825560009190915283517fb10e2d527612073b26eecdfd717e6a320cf44b4afac2b0732d9fcbe2b7fa0cf6600b90920291820180546001600160a01b0319169190941617835590518392917fb10e2d527612073b26eecdfd717e6a320cf44b4afac2b0732d9fcbe2b7fa0cf701906105019082611e42565b5060408201518160020155606082015181600301556080820151816004015560a0820151816005015560c0820151816006015560e082015181600701556101008201518160080155610120820151816009015561014082015181600a01555050505050505050505050565b6040805180820190915260048152631395531360e21b602091820152835190840120600080516020612198833981519152016105a757600080fd5b6105af611a20565b602081018481526040820184905233825260016060830181905260c0830184905260028054918201815560005282517f405787fa12a823e0f2b7631cc41b3ba8828b3321ca811111fa75cd3aa3bb5ace600790920291820180546001600160a01b0319166001600160a01b0390921691909117815591518392917f405787fa12a823e0f2b7631cc41b3ba8828b3321ca811111fa75cd3aa3bb5acf01906106569082611e42565b506040820151600282019061066b9082611e42565b50606082015160038201556080820151600482015560a0820151600582015560c0820151600682019061069e9082611e42565b50505050505050565b60006106b33383610f30565b905060006106c08361150a565b6040805180820190915260048152631395531360e21b602091820152838101518051910120909150600080516020612198833981519152016107445760405162461bcd60e51b815260206004820152601b60248201527f576520636f756c64206e6f742066696e6420746865207573657221000000000060448201526064016101b6565b6040805180820190915260048152631395531360e21b602091820152818101518051910120600080516020612198833981519152016107955760405162461bcd60e51b81526004016101b690611f02565b60006107a1838361158a565b90508034146107af57600080fd5b6107b93483611682565b60405163f340fa0160e01b815230600482018190529063f340fa0190602401600060405180830381600087803b1580156107f257600080fd5b505af1158015610806573d6000803e3d6000fd5b505050506108148383611753565b61081e8382611818565b7f6caf3b89584102498a16211120faf56edd97ec71b880d69f46c0b40e73cb37a68184602001518560400151856020015160405161085f9493929190611f50565b60405180910390a150505050565b60005b60025481101561014d577fe05cb3f2aa2e5f3d247d65eb3ac1b0dd1a8123428ca67e67e6148ad22285411a600282815481106108ae576108ae611f9a565b9060005260206000209060070201600101600283815481106108d2576108d2611f9a565b9060005260206000209060070201600201600284815481106108f6576108f6611f9a565b6000918252602090912060079091020154600280546001600160a01b03909216918690811061092757610927611f9a565b9060005260206000209060070201600501546002868154811061094c5761094c611f9a565b90600052602060002090600702016003015460405161096f95949392919061202d565b60405180910390a1806109818161208f565b915050610870565b60005b60015481101561014d577fb6a810c047954c1fd7c7ec1567ff647eddeaba9c5bbf381a7b5ba90fca76c6fd600182815481106109ca576109ca611f9a565b90600052602060002090600b0201600101600183815481106109ee576109ee611f9a565b60009182526020909120600b9091020154600180546001600160a01b039092169185908110610a1f57610a1f611f9a565b90600052602060002090600b02016008015460018581548110610a4457610a44611f9a565b90600052602060002090600b02016009015460018681548110610a6957610a69611f9a565b90600052602060002090600b0201600a0154604051610a8c9594939291906120a8565b60405180910390a180610a9e8161208f565b91505061098c565b6000610ab23383610f30565b90506000610abf8361150a565b6040805180820190915260048152631395531360e21b60209182015283810151805191012090915060008051602061219883398151915201610b435760405162461bcd60e51b815260206004820152601b60248201527f576520636f756c64206e6f742066696e6420746865207573657221000000000060448201526064016101b6565b6040805180820190915260048152631395531360e21b60209182015281810151805191012060008051602061219883398151915201610b945760405162461bcd60e51b81526004016101b690611f02565b6000610ba0838361158a565b90507fe85057cc277b93628da1ab485949c523f38cb52bbf1488f68af8e3e84444e8538160405161085f919060408082526027908201527f54686520616d6f756e7420796f75206f77652069732070726573656e7465642060608201526603132b637bb9d160cd1b6080820152602081019190915260a00190565b610c236119bd565b60005b600154811015610db657826001600160a01b031660018281548110610c4d57610c4d611f9a565b60009182526020909120600b90910201546001600160a01b031603610da45760018181548110610c7f57610c7f611f9a565b6000918252602091829020604080516101608101909152600b9092020180546001600160a01b031682526001810180549293919291840191610cc090611dba565b80601f0160208091040260200160405190810160405280929190818152602001828054610cec90611dba565b8015610d395780601f10610d0e57610100808354040283529160200191610d39565b820191906000526020600020905b815481529060010190602001808311610d1c57829003601f168201915b505050505081526020016002820154815260200160038201548152602001600482015481526020016005820154815260200160068201548152602001600782015481526020016008820154815260200160098201548152602001600a82015481525050915050919050565b80610dae8161208f565b915050610c26565b50610dbf6119bd565b604051806040016040528060048152602001631395531360e21b81525081602001819052507f787a41e1a6b3f6089118a939f8c42ba2aadd16d4b944769a6e9cfbe5e71e576d6004604051610e1491906120e8565b60405180910390a192915050565b60005b600154811015610eb35760018181548110610e4257610e42611f9a565b60009182526020909120600b909102015483516001600160a01b03918216911603610ea1578160018281548110610e7b57610e7b611f9a565b90600052602060002090600b02016009016000828254610e9b91906120fb565b90915550505b80610eab8161208f565b915050610e25565b505050565b6000805b600154811015610f275760018181548110610ed957610ed9611f9a565b90600052602060002090600b0201600101604051610ef7919061210e565b6040518091039020838051906020012003610f155750600192915050565b80610f1f8161208f565b915050610ebc565b50600092915050565b610f38611a20565b60005b6002548110156114a05760028181548110610f5857610f58611f9a565b60009182526020909120600790910201546001600160a01b038581169116148015610fc1575060028181548110610f9157610f91611f9a565b9060005260206000209060070201600601604051610faf919061210e565b60405180910390208380519060200120145b156111e55760028181548110610fd957610fd9611f9a565b60009182526020918290206040805160e0810190915260079092020180546001600160a01b03168252600181018054929391929184019161101990611dba565b80601f016020809104026020016040519081016040528092919081815260200182805461104590611dba565b80156110925780601f1061106757610100808354040283529160200191611092565b820191906000526020600020905b81548152906001019060200180831161107557829003601f168201915b505050505081526020016002820180546110ab90611dba565b80601f01602080910402602001604051908101604052809291908181526020018280546110d790611dba565b80156111245780601f106110f957610100808354040283529160200191611124565b820191906000526020600020905b81548152906001019060200180831161110757829003601f168201915b5050505050815260200160038201548152602001600482015481526020016005820154815260200160068201805461115b90611dba565b80601f016020809104026020016040519081016040528092919081815260200182805461118790611dba565b80156111d45780601f106111a9576101008083540402835291602001916111d4565b820191906000526020600020905b8154815290600101906020018083116111b757829003601f168201915b505050505081525050915050611504565b600281815481106111f8576111f8611f9a565b60009182526020909120600790910201546001600160a01b03858116911614801561126157506002818154811061123157611231611f9a565b906000526020600020906007020160060160405161124f919061210e565b60405180910390208380519060200120145b1561148e576114866002828154811061127c5761127c611f9a565b60009182526020918290206040805160e0810190915260079092020180546001600160a01b0316825260018101805492939192918401916112bc90611dba565b80601f01602080910402602001604051908101604052809291908181526020018280546112e890611dba565b80156113355780601f1061130a57610100808354040283529160200191611335565b820191906000526020600020905b81548152906001019060200180831161131857829003601f168201915b5050505050815260200160028201805461134e90611dba565b80601f016020809104026020016040519081016040528092919081815260200182805461137a90611dba565b80156113c75780601f1061139c576101008083540402835291602001916113c7565b820191906000526020600020905b8154815290600101906020018083116113aa57829003601f168201915b505050505081526020016003820154815260200160048201548152602001600582015481526020016006820180546113fe90611dba565b80601f016020809104026020016040519081016040528092919081815260200182805461142a90611dba565b80156114775780601f1061144c57610100808354040283529160200191611477565b820191906000526020600020905b81548152906001019060200180831161145a57829003601f168201915b505050505081525050846118a9565b915050611504565b806114988161208f565b915050610f3b565b506114a9611a20565b60408051808201825260048152631395531360e21b602080830191909152830152517fef6a4fe054576cbe805cc405f1ead20eb898ae06b015725485b7020f3c56e25b906114f9906003906120e8565b60405180910390a190505b92915050565b6115126119bd565b60005b600154811015610db6576001818154811061153257611532611f9a565b90600052602060002090600b0201600101604051611550919061210e565b60405180910390208380519060200120036115785760018181548110610c7f57610c7f611f9a565b806115828161208f565b915050611515565b60008160200151805190602001208360c00151805190602001201461163d5760405162461bcd60e51b815260206004820152605760248201527f5468652075736572277320696e66726173747275637475726520646f6573206e60448201527f6f74206d6174636820746865206e616d65206f662074686520696e667261737460648201527f7275637475726520796f7520617265207573696e672e2e000000000000000000608482015260a4016101b6565b8260600151600103611654575060a0810151611504565b826060015160020361166b575060c0810151611504565b8260600151600303611504575060e0810151611504565b60005b600154811015610eb357600181815481106116a2576116a2611f9a565b60009182526020909120600b909102015482516001600160a01b039182169116036117415782600182815481106116db576116db611f9a565b90600052602060002090600b020160080160008282546116fb9190612184565b92505081905550826001828154811061171657611716611f9a565b90600052602060002090600b020160090160008282546117369190612184565b90915550610eb39050565b8061174b8161208f565b915050611685565b60005b600254811015610eb3576002818154811061177357611773611f9a565b600091825260209091206007909102015483516001600160a01b03918216911603611806578160200151805190602001208360c0015180519060200120146117ba57600080fd5b81604001518360a0015111156117d257600260608401525b81606001518360a0015111156117ea57600360608401525b81608001518360a001511115610eb35760046060840152505050565b806118108161208f565b915050611756565b60005b600254811015610eb3576002818154811061183857611838611f9a565b600091825260209091206007909102015483516001600160a01b0391821691160361189757816002828154811061187157611871611f9a565b906000526020600020906007020160050160008282546118919190612184565b90915550505b806118a18161208f565b91505061181b565b6118b1611a20565b6118b9611a20565b6020848101519082019081526040808601519083015260c0820184905260016060830181905285516001600160a01b03908116845260028054928301815560005283517f405787fa12a823e0f2b7631cc41b3ba8828b3321ca811111fa75cd3aa3bb5ace600790930292830180546001600160a01b0319169190921617815591518392917f405787fa12a823e0f2b7631cc41b3ba8828b3321ca811111fa75cd3aa3bb5acf019061196a9082611e42565b506040820151600282019061197f9082611e42565b50606082015160038201556080820151600482015560a0820151600582015560c082015160068201906119b29082611e42565b509195945050505050565b60405180610160016040528060006001600160a01b03168152602001606081526020016000815260200160008152602001600081526020016000815260200160008152602001600081526020016000815260200160008152602001600081525090565b6040518060e0016040528060006001600160a01b031681526020016060815260200160608152602001600081526020016000815260200160008152602001606081525090565b600060208284031215611a7857600080fd5b5035919050565b6001600160a01b038116811461014d57600080fd5b634e487b7160e01b600052604160045260246000fd5b600082601f830112611abb57600080fd5b813567ffffffffffffffff80821115611ad657611ad6611a94565b604051601f8301601f19908116603f01168101908282118183101715611afe57611afe611a94565b81604052838152866020858801011115611b1757600080fd5b836020870160208301376000602085830101528094505050505092915050565b600080600080600080600080610100898b031215611b5457600080fd5b8835611b5f81611a7f565b9750602089013567ffffffffffffffff811115611b7b57600080fd5b611b878b828c01611aaa565b989b989a505050506040870135966060810135966080820135965060a0820135955060c0820135945060e09091013592509050565b600080600060608486031215611bd157600080fd5b833567ffffffffffffffff80821115611be957600080fd5b611bf587838801611aaa565b94506020860135915080821115611c0b57600080fd5b611c1787838801611aaa565b93506040860135915080821115611c2d57600080fd5b50611c3a86828701611aaa565b9150509250925092565b600060208284031215611c5657600080fd5b813567ffffffffffffffff811115611c6d57600080fd5b611c7984828501611aaa565b949350505050565b600060208284031215611c9357600080fd5b8135611c9e81611a7f565b9392505050565b6000815180845260005b81811015611ccb57602081850181015186830182015201611caf565b506000602082860101526020601f19601f83011685010191505092915050565b848152836020820152608060408201526000611d0a6080830185611ca5565b905060018060a01b038316606083015295945050505050565b606081526000611d366060830185611ca5565b6001600160a01b0393909316602083810191909152828403604093840152604684527f5468652066756e64732077657265207375636365737366756c6c79207769746890840152507f647261776e20696e746f2074686520696e6672617374756374757265732720779082015265616c6c65742160d01b6060820152608001919050565b600181811c90821680611dce57607f821691505b602082108103611dee57634e487b7160e01b600052602260045260246000fd5b50919050565b601f821115610eb357600081815260208120601f850160051c81016020861015611e1b5750805b601f850160051c820191505b81811015611e3a57828155600101611e27565b505050505050565b815167ffffffffffffffff811115611e5c57611e5c611a94565b611e7081611e6a8454611dba565b84611df4565b602080601f831160018114611ea55760008415611e8d5750858301515b600019600386901b1c1916600185901b178555611e3a565b600085815260208120601f198616915b82811015611ed457888601518255948401946001909101908401611eb5565b5085821015611ef25787850151600019600388901b60f8161c191681555b5050505050600190811b01905550565b6020808252602e908201527f576520636f756c64206e6f742066696e64207468652063757272656e7420696e60408201526d333930b9ba393ab1ba3ab932971760911b606082015260800190565b848152608060208201526000611f696080830186611ca5565b8281036040840152611f7b8186611ca5565b90508281036060840152611f8f8185611ca5565b979650505050505050565b634e487b7160e01b600052603260045260246000fd5b60008154611fbd81611dba565b808552602060018381168015611fda5760018114611ff457612022565b60ff1985168884015283151560051b880183019550612022565b866000528260002060005b8581101561201a5781548a8201860152908301908401611fff565b890184019650505b505050505092915050565b60a08152600061204060a0830188611fb0565b82810360208401526120528188611fb0565b6001600160a01b039690961660408401525050606081019290925260809091015292915050565b634e487b7160e01b600052601160045260246000fd5b6000600182016120a1576120a1612079565b5060010190565b60a0815260006120bb60a0830188611fb0565b6001600160a01b039690961660208301525060408101939093526060830191909152608090910152919050565b602081526000611c9e6020830184611fb0565b8181038181111561150457611504612079565b600080835461211c81611dba565b60018281168015612134576001811461214957612178565b60ff1984168752821515830287019450612178565b8760005260208060002060005b8581101561216f5781548a820152908401908201612156565b50505082870194505b50929695505050505050565b808201808211156115045761150461207956fe44b1e07bcb099e2b3ad33191ae245914636f60f4bad14dd6974aabe9134e704ba264697066735822122072b421cbd2988c82517e7d8a10b33559bc739e125cba2fa0e635c0c40b9e900164736f6c63430008130033506c656173652063616c6c207468652063726561746520616e206163636f756e742066756e6374696f6e54686520696e66726173747275637475726520796f7520617265206c6f6f6b696e6720666f7220776173206e6f742066696e642c20706c656173652074727920616761696e21",
    "linkReferences": {}
  },
  "methodIdentifiers": {
    "IndUsrpayInfrustuctureWallet(string)": "6f76f9c0",
    "addInfStructure(address,string,uint256,uint256,uint256,uint256,uint256,uint256)": "1756ec2f",
    "addUserToDataBase(string,string,string)": "4c8b10dc",
    "checkHowMuchIOwe(string)": "b1ae7447",
    "deposit(address)": "f340fa01",
    "getAllIndUsersArrayItems()": "977052dd",
    "getAllInfArrayItems()": "a2077a8c",
    "withdrawRevenue(uint256)": "0ceff204"
  },
  "id": 84
}