{
  "_format": "hh-sol-artifact-1",
  "contractName": "Lending",
  "sourceName": "contracts/lenders.sol",
  "abi": [
    {
      "inputs": [],
      "stateMutability": "nonpayable",
      "type": "constructor"
    },
    {
      "anonymous": false,
      "inputs": [
        {
          "indexed": false,
          "internalType": "address payable",
          "name": "lender",
          "type": "address"
        },
        {
          "indexed": false,
          "internalType": "address payable",
          "name": "lendee",
          "type": "address"
        },
        {
          "indexed": false,
          "internalType": "uint256",
          "name": "loanAmountLeft",
          "type": "uint256"
        },
        {
          "indexed": false,
          "internalType": "uint256",
          "name": "totalReceivedAmount",
          "type": "uint256"
        },
        {
          "indexed": false,
          "internalType": "uint256",
          "name": "principleLoanPayed",
          "type": "uint256"
        },
        {
          "indexed": false,
          "internalType": "bool",
          "name": "LoanRepaid",
          "type": "bool"
        }
      ],
      "name": "InstallmentRepaid",
      "type": "event"
    },
    {
      "anonymous": false,
      "inputs": [
        {
          "indexed": false,
          "internalType": "address payable",
          "name": "lender",
          "type": "address"
        },
        {
          "indexed": false,
          "internalType": "address payable",
          "name": "lendee",
          "type": "address"
        },
        {
          "indexed": false,
          "internalType": "uint256",
          "name": "interestLeft",
          "type": "uint256"
        },
        {
          "indexed": false,
          "internalType": "uint256",
          "name": "InterestRepaid",
          "type": "uint256"
        },
        {
          "indexed": false,
          "internalType": "uint256",
          "name": "totalReceivedAmount",
          "type": "uint256"
        }
      ],
      "name": "InterestRepaid",
      "type": "event"
    },
    {
      "anonymous": false,
      "inputs": [
        {
          "indexed": false,
          "internalType": "address payable",
          "name": "lendee",
          "type": "address"
        },
        {
          "indexed": false,
          "internalType": "address payable",
          "name": "lender",
          "type": "address"
        },
        {
          "indexed": false,
          "internalType": "uint256",
          "name": "loanAmount",
          "type": "uint256"
        }
      ],
      "name": "Lended",
      "type": "event"
    },
    {
      "anonymous": false,
      "inputs": [
        {
          "indexed": false,
          "internalType": "address payable",
          "name": "lender",
          "type": "address"
        },
        {
          "indexed": false,
          "internalType": "address payable",
          "name": "lendee",
          "type": "address"
        },
        {
          "indexed": false,
          "internalType": "uint256",
          "name": "loanAmount",
          "type": "uint256"
        },
        {
          "indexed": false,
          "internalType": "uint256",
          "name": "interestRate",
          "type": "uint256"
        },
        {
          "indexed": false,
          "internalType": "uint256",
          "name": "loanPeriod",
          "type": "uint256"
        },
        {
          "indexed": false,
          "internalType": "uint256",
          "name": "loanInstallmentPeriod",
          "type": "uint256"
        },
        {
          "indexed": false,
          "internalType": "uint256",
          "name": "installmentAmount",
          "type": "uint256"
        }
      ],
      "name": "LoanCreated",
      "type": "event"
    },
    {
      "anonymous": false,
      "inputs": [
        {
          "indexed": false,
          "internalType": "address payable",
          "name": "lender",
          "type": "address"
        },
        {
          "indexed": false,
          "internalType": "address payable",
          "name": "lendee",
          "type": "address"
        }
      ],
      "name": "LoanDefaulted",
      "type": "event"
    },
    {
      "anonymous": false,
      "inputs": [
        {
          "indexed": false,
          "internalType": "address payable",
          "name": "lender",
          "type": "address"
        },
        {
          "indexed": false,
          "internalType": "address payable",
          "name": "lendee",
          "type": "address"
        }
      ],
      "name": "LoanLate",
      "type": "event"
    },
    {
      "anonymous": false,
      "inputs": [
        {
          "indexed": false,
          "internalType": "address payable",
          "name": "lender",
          "type": "address"
        },
        {
          "indexed": false,
          "internalType": "address payable",
          "name": "lendee",
          "type": "address"
        },
        {
          "indexed": false,
          "internalType": "uint256",
          "name": "interestPayed",
          "type": "uint256"
        },
        {
          "indexed": false,
          "internalType": "uint256",
          "name": "principleLoanPayed",
          "type": "uint256"
        }
      ],
      "name": "LoanRepaidInFull",
      "type": "event"
    },
    {
      "inputs": [
        {
          "internalType": "address payable",
          "name": "_lendee",
          "type": "address"
        },
        {
          "internalType": "address payable",
          "name": "_lender",
          "type": "address"
        },
        {
          "internalType": "uint256",
          "name": "_loanAmount",
          "type": "uint256"
        },
        {
          "internalType": "uint256",
          "name": "_interestRate",
          "type": "uint256"
        },
        {
          "internalType": "uint256",
          "name": "_loanPeriod",
          "type": "uint256"
        },
        {
          "internalType": "uint256",
          "name": "_loanInstallmentPeriod",
          "type": "uint256"
        }
      ],
      "name": "createLoan",
      "outputs": [],
      "stateMutability": "nonpayable",
      "type": "function"
    },
    {
      "inputs": [],
      "name": "daysBetweenInstallments",
      "outputs": [
        {
          "internalType": "uint256",
          "name": "",
          "type": "uint256"
        }
      ],
      "stateMutability": "view",
      "type": "function"
    },
    {
      "inputs": [],
      "name": "defaultAmount",
      "outputs": [
        {
          "internalType": "uint256",
          "name": "",
          "type": "uint256"
        }
      ],
      "stateMutability": "view",
      "type": "function"
    },
    {
      "inputs": [],
      "name": "defaultLoan",
      "outputs": [],
      "stateMutability": "nonpayable",
      "type": "function"
    },
    {
      "inputs": [],
      "name": "gracePeriod",
      "outputs": [
        {
          "internalType": "uint256",
          "name": "",
          "type": "uint256"
        }
      ],
      "stateMutability": "view",
      "type": "function"
    },
    {
      "inputs": [],
      "name": "installmentAmount",
      "outputs": [
        {
          "internalType": "uint256",
          "name": "",
          "type": "uint256"
        }
      ],
      "stateMutability": "view",
      "type": "function"
    },
    {
      "inputs": [],
      "name": "interestLeft",
      "outputs": [
        {
          "internalType": "uint256",
          "name": "",
          "type": "uint256"
        }
      ],
      "stateMutability": "view",
      "type": "function"
    },
    {
      "inputs": [],
      "name": "interestPayed",
      "outputs": [
        {
          "internalType": "uint256",
          "name": "",
          "type": "uint256"
        }
      ],
      "stateMutability": "view",
      "type": "function"
    },
    {
      "inputs": [],
      "name": "interestRate",
      "outputs": [
        {
          "internalType": "uint256",
          "name": "",
          "type": "uint256"
        }
      ],
      "stateMutability": "view",
      "type": "function"
    },
    {
      "inputs": [],
      "name": "interestRepaid",
      "outputs": [
        {
          "internalType": "bool",
          "name": "",
          "type": "bool"
        }
      ],
      "stateMutability": "view",
      "type": "function"
    },
    {
      "inputs": [],
      "name": "lateFee",
      "outputs": [
        {
          "internalType": "uint256",
          "name": "",
          "type": "uint256"
        }
      ],
      "stateMutability": "view",
      "type": "function"
    },
    {
      "inputs": [],
      "name": "lendLoan",
      "outputs": [],
      "stateMutability": "payable",
      "type": "function"
    },
    {
      "inputs": [],
      "name": "lendee",
      "outputs": [
        {
          "internalType": "address payable",
          "name": "",
          "type": "address"
        }
      ],
      "stateMutability": "view",
      "type": "function"
    },
    {
      "inputs": [],
      "name": "lender",
      "outputs": [
        {
          "internalType": "address payable",
          "name": "",
          "type": "address"
        }
      ],
      "stateMutability": "view",
      "type": "function"
    },
    {
      "inputs": [],
      "name": "loanAmount",
      "outputs": [
        {
          "internalType": "uint256",
          "name": "",
          "type": "uint256"
        }
      ],
      "stateMutability": "view",
      "type": "function"
    },
    {
      "inputs": [],
      "name": "loanAmountLeft",
      "outputs": [
        {
          "internalType": "uint256",
          "name": "",
          "type": "uint256"
        }
      ],
      "stateMutability": "view",
      "type": "function"
    },
    {
      "inputs": [],
      "name": "loanEnd",
      "outputs": [
        {
          "internalType": "uint256",
          "name": "",
          "type": "uint256"
        }
      ],
      "stateMutability": "view",
      "type": "function"
    },
    {
      "inputs": [],
      "name": "loanInstallmentPeriod",
      "outputs": [
        {
          "internalType": "uint256",
          "name": "",
          "type": "uint256"
        }
      ],
      "stateMutability": "view",
      "type": "function"
    },
    {
      "inputs": [],
      "name": "loanPeriod",
      "outputs": [
        {
          "internalType": "uint256",
          "name": "",
          "type": "uint256"
        }
      ],
      "stateMutability": "view",
      "type": "function"
    },
    {
      "inputs": [],
      "name": "loanRepaid",
      "outputs": [
        {
          "internalType": "bool",
          "name": "",
          "type": "bool"
        }
      ],
      "stateMutability": "view",
      "type": "function"
    },
    {
      "inputs": [],
      "name": "loanStart",
      "outputs": [
        {
          "internalType": "uint256",
          "name": "",
          "type": "uint256"
        }
      ],
      "stateMutability": "view",
      "type": "function"
    },
    {
      "inputs": [],
      "name": "owner",
      "outputs": [
        {
          "internalType": "address",
          "name": "",
          "type": "address"
        }
      ],
      "stateMutability": "view",
      "type": "function"
    },
    {
      "inputs": [],
      "name": "previousLoanInstallmentDate",
      "outputs": [
        {
          "internalType": "uint256",
          "name": "",
          "type": "uint256"
        }
      ],
      "stateMutability": "view",
      "type": "function"
    },
    {
      "inputs": [],
      "name": "principleLoanPayed",
      "outputs": [
        {
          "internalType": "uint256",
          "name": "",
          "type": "uint256"
        }
      ],
      "stateMutability": "view",
      "type": "function"
    },
    {
      "inputs": [],
      "name": "repayCustAmountLoan",
      "outputs": [],
      "stateMutability": "payable",
      "type": "function"
    },
    {
      "inputs": [],
      "name": "repayInstallment",
      "outputs": [],
      "stateMutability": "payable",
      "type": "function"
    },
    {
      "inputs": [],
      "name": "repayInterest",
      "outputs": [],
      "stateMutability": "payable",
      "type": "function"
    },
    {
      "inputs": [],
      "name": "totalInterest",
      "outputs": [
        {
          "internalType": "uint256",
          "name": "",
          "type": "uint256"
        }
      ],
      "stateMutability": "view",
      "type": "function"
    },
    {
      "inputs": [],
      "name": "totalReceivedAmount",
      "outputs": [
        {
          "internalType": "uint256",
          "name": "",
          "type": "uint256"
        }
      ],
      "stateMutability": "view",
      "type": "function"
    }
  ],
  "bytecode": "0x608060405234801561001057600080fd5b50336000806101000a81548173ffffffffffffffffffffffffffffffffffffffff021916908373ffffffffffffffffffffffffffffffffffffffff160217905550611a34806100606000396000f3fe6080604052600436106101c25760003560e01c80638fc6b584116100f7578063bcead63e11610095578063e123177611610064578063e123177614610560578063ef2d7d501461058b578063f39a9199146105b6578063fc27ea83146105e1576101c2565b8063bcead63e146104f6578063bff1d2e314610521578063c9d0cf0a1461054c578063d611d4c814610556576101c2565b8063a3a94553116100d1578063a3a945531461047f578063a864bc73146104aa578063b541686f146104c1578063bc7a36d6146104cb576101c2565b80638fc6b584146103fe5780639d585f7f14610429578063a06db7dc14610454576101c2565b80633f4de62f116101645780637c3a00fd1161013e5780637c3a00fd146103525780638770998e1461037d5780638da5cb5b146103a85780638e9520ea146103d3576101c2565b80633f4de62f146102d15780633f7ba07e146102fc5780635af4cafb14610327576101c2565b80631a7f8b3f116101a05780631a7f8b3f146102485780631cd083e41461027357806320dfcae11461029c5780632a2b3a20146102a6576101c2565b80631702e22d146101c7578063175bbf6f146101f257806318b4dd3c1461021d575b600080fd5b3480156101d357600080fd5b506101dc61060c565b6040516101e991906114e8565b60405180910390f35b3480156101fe57600080fd5b50610207610612565b6040516102149190611544565b60405180910390f35b34801561022957600080fd5b50610232610638565b60405161023f91906114e8565b60405180910390f35b34801561025457600080fd5b5061025d61063e565b60405161026a91906114e8565b60405180910390f35b34801561027f57600080fd5b5061029a600480360381019061029591906115bc565b610644565b005b6102a461082d565b005b3480156102b257600080fd5b506102bb610d06565b6040516102c89190611664565b60405180910390f35b3480156102dd57600080fd5b506102e6610d19565b6040516102f391906114e8565b60405180910390f35b34801561030857600080fd5b50610311610d1f565b60405161031e91906114e8565b60405180910390f35b34801561033357600080fd5b5061033c610d25565b60405161034991906114e8565b60405180910390f35b34801561035e57600080fd5b50610367610d2b565b60405161037491906114e8565b60405180910390f35b34801561038957600080fd5b50610392610d31565b60405161039f91906114e8565b60405180910390f35b3480156103b457600080fd5b506103bd610d37565b6040516103ca91906116a0565b60405180910390f35b3480156103df57600080fd5b506103e8610d5b565b6040516103f591906114e8565b60405180910390f35b34801561040a57600080fd5b50610413610d61565b60405161042091906114e8565b60405180910390f35b34801561043557600080fd5b5061043e610d67565b60405161044b91906114e8565b60405180910390f35b34801561046057600080fd5b50610469610d6d565b60405161047691906114e8565b60405180910390f35b34801561048b57600080fd5b50610494610d73565b6040516104a191906114e8565b60405180910390f35b3480156104b657600080fd5b506104bf610d79565b005b6104c9610e87565b005b3480156104d757600080fd5b506104e0610f5a565b6040516104ed91906114e8565b60405180910390f35b34801561050257600080fd5b5061050b610f60565b6040516105189190611544565b60405180910390f35b34801561052d57600080fd5b50610536610f86565b6040516105439190611664565b60405180910390f35b610554610f99565b005b61055e61136f565b005b34801561056c57600080fd5b506105756114b7565b60405161058291906114e8565b60405180910390f35b34801561059757600080fd5b506105a06114bd565b6040516105ad91906114e8565b60405180910390f35b3480156105c257600080fd5b506105cb6114c3565b6040516105d891906114e8565b60405180910390f35b3480156105ed57600080fd5b506105f66114c9565b60405161060391906114e8565b60405180910390f35b60155481565b600260009054906101000a900473ffffffffffffffffffffffffffffffffffffffff1681565b600a5481565b60075481565b6000841161065157600080fd5b600083118015610662575060648311155b61066b57600080fd5b6000821161067857600080fd5b85600260006101000a81548173ffffffffffffffffffffffffffffffffffffffff021916908373ffffffffffffffffffffffffffffffffffffffff16021790555084600160006101000a81548173ffffffffffffffffffffffffffffffffffffffff021916908373ffffffffffffffffffffffffffffffffffffffff160217905550836003819055508260098190555081600a8190555080600b8190555080846107229190611719565b60128190555042600c81905550600a544261073d919061174a565b600d819055506064600954600354610755919061177e565b61075f9190611719565b60068190555060065460158190555083600481905550600060058190555060006007819055506000600881905550426013819055507f6c6945cc67d312f59c9b5fe07c61837ea8e810fa52ea8dcea0eaba9d93c1aa7e600160009054906101000a900473ffffffffffffffffffffffffffffffffffffffff16600260009054906101000a900473ffffffffffffffffffffffffffffffffffffffff16600354600954600a54600b5460125460405161081d97969594939291906117c0565b60405180910390a1505050505050565b600160009054906101000a900473ffffffffffffffffffffffffffffffffffffffff1673ffffffffffffffffffffffffffffffffffffffff163373ffffffffffffffffffffffffffffffffffffffff161461088757600080fd5b60125434101561089657600080fd5b6000601354426108a6919061182f565b9050620151806014546108b9919061177e565b811115610a3657600f546012546108d0919061174a565b3410156108dc57600080fd5b600160009054906101000a900473ffffffffffffffffffffffffffffffffffffffff1673ffffffffffffffffffffffffffffffffffffffff166108fc600f54601254610928919061174a565b9081150290604051600060405180830381858888f19350505050158015610953573d6000803e3d6000fd5b50601254600454610964919061182f565b600481905550600f5460125461097a919061174a565b6005600082825461098b919061174a565b92505081905550601254600760008282546109a6919061174a565b92505081905550426013819055507fc2af2d6e1838968d2a8371a00657bedcacf318cf60c709c98cc77f078b2a2848600160009054906101000a900473ffffffffffffffffffffffffffffffffffffffff16600260009054906101000a900473ffffffffffffffffffffffffffffffffffffffff16604051610a29929190611863565b60405180910390a1610bfb565b60145462015180601454610a4a919061177e565b82610a55919061182f565b1180610a625750600d5442115b15610b8f577f21006b857376c379dde3f87740e333147dbf9fe31aec32d37ddb228af0a3cd49600160009054906101000a900473ffffffffffffffffffffffffffffffffffffffff16600260009054906101000a900473ffffffffffffffffffffffffffffffffffffffff16604051610adc929190611863565b60405180910390a13073ffffffffffffffffffffffffffffffffffffffff1663fc27ea836040518163ffffffff1660e01b8152600401602060405180830381865afa158015610b2f573d6000803e3d6000fd5b505050506040513d601f19601f82011682018060405250810190610b5391906118a1565b50600160009054906101000a900473ffffffffffffffffffffffffffffffffffffffff1673ffffffffffffffffffffffffffffffffffffffff16ff5b600160009054906101000a900473ffffffffffffffffffffffffffffffffffffffff1673ffffffffffffffffffffffffffffffffffffffff166108fc6012549081150290604051600060405180830381858888f19350505050158015610bf9573d6000803e3d6000fd5b505b60006004541480610c0e57506000601554145b15610c69576001600e60006101000a81548160ff021916908315150217905550600160009054906101000a900473ffffffffffffffffffffffffffffffffffffffff1673ffffffffffffffffffffffffffffffffffffffff16ff5b7feb254407dc1f48422ded2837cc80aee744c93dc27d81ea84bff3cb1f82f4af45600160009054906101000a900473ffffffffffffffffffffffffffffffffffffffff16600260009054906101000a900473ffffffffffffffffffffffffffffffffffffffff16600454600554600754600e60009054906101000a900460ff16604051610cfb96959493929190611913565b60405180910390a150565b600e60019054906101000a900460ff1681565b600f5481565b600b5481565b60055481565b60095481565b60125481565b60008054906101000a900473ffffffffffffffffffffffffffffffffffffffff1681565b60145481565b60135481565b60035481565b60105481565b60085481565b600160009054906101000a900473ffffffffffffffffffffffffffffffffffffffff1673ffffffffffffffffffffffffffffffffffffffff163373ffffffffffffffffffffffffffffffffffffffff1614610dd357600080fd5b601054600d54610de3919061174a565b4211610dee57600080fd5b600e60009054906101000a900460ff1615610e0857600080fd5b7f21006b857376c379dde3f87740e333147dbf9fe31aec32d37ddb228af0a3cd49600160009054906101000a900473ffffffffffffffffffffffffffffffffffffffff16600260009054906101000a900473ffffffffffffffffffffffffffffffffffffffff16604051610e7d929190611863565b60405180910390a1565b600160009054906101000a900473ffffffffffffffffffffffffffffffffffffffff1673ffffffffffffffffffffffffffffffffffffffff163373ffffffffffffffffffffffffffffffffffffffff1614610ee157600080fd5b6000341015610eef57600080fd5b600160009054906101000a900473ffffffffffffffffffffffffffffffffffffffff1673ffffffffffffffffffffffffffffffffffffffff166108fc349081150290604051600060405180830381858888f19350505050158015610f57573d6000803e3d6000fd5b50565b60065481565b600160009054906101000a900473ffffffffffffffffffffffffffffffffffffffff1681565b600e60009054906101000a900460ff1681565b600160009054906101000a900473ffffffffffffffffffffffffffffffffffffffff1673ffffffffffffffffffffffffffffffffffffffff163373ffffffffffffffffffffffffffffffffffffffff1614610ff357600080fd5b600034101561100157600080fd5b600d54421115611133573073ffffffffffffffffffffffffffffffffffffffff1663fc27ea836040518163ffffffff1660e01b8152600401602060405180830381865afa158015611056573d6000803e3d6000fd5b505050506040513d601f19601f8201168201806040525081019061107a91906118a1565b507f21006b857376c379dde3f87740e333147dbf9fe31aec32d37ddb228af0a3cd49600160009054906101000a900473ffffffffffffffffffffffffffffffffffffffff16600260009054906101000a900473ffffffffffffffffffffffffffffffffffffffff166040516110f0929190611863565b60405180910390a1600160009054906101000a900473ffffffffffffffffffffffffffffffffffffffff1673ffffffffffffffffffffffffffffffffffffffff16ff5b60155434116111f157600160009054906101000a900473ffffffffffffffffffffffffffffffffffffffff1673ffffffffffffffffffffffffffffffffffffffff166108fc349081150290604051600060405180830381858888f193505050501580156111a4573d6000803e3d6000fd5b5034600860008282546111b7919061174a565b9250508190555034601560008282546111d0919061182f565b9250508190555034600560008282546111e9919061174a565b925050819055505b6000600454148061120457506000601554145b156112e4576001600e60006101000a81548160ff0219169083151502179055507f374391e4ee875ecb8cb35556bf894ef988afe39d871d122f5df72042b0b00063600160009054906101000a900473ffffffffffffffffffffffffffffffffffffffff16600260009054906101000a900473ffffffffffffffffffffffffffffffffffffffff166008546007546040516112a194939291906118ce565b60405180910390a1600160009054906101000a900473ffffffffffffffffffffffffffffffffffffffff1673ffffffffffffffffffffffffffffffffffffffff16ff5b7f6792eda5573710748e2cddfaccba32c112d05d1bf88bc3a2ff2faed942b7208c600160009054906101000a900473ffffffffffffffffffffffffffffffffffffffff16600260009054906101000a900473ffffffffffffffffffffffffffffffffffffffff16601554600854600554604051611365959493929190611974565b60405180910390a1565b600160009054906101000a900473ffffffffffffffffffffffffffffffffffffffff1673ffffffffffffffffffffffffffffffffffffffff163373ffffffffffffffffffffffffffffffffffffffff16146113c957600080fd5b600160009054906101000a900473ffffffffffffffffffffffffffffffffffffffff1673ffffffffffffffffffffffffffffffffffffffff166108fc6003549081150290604051600060405180830381858888f19350505050158015611433573d6000803e3d6000fd5b507f07fa3745b9e8f17098173872a5be345c09acc1337ca03d054e7b9b5944b6d226600260009054906101000a900473ffffffffffffffffffffffffffffffffffffffff16600160009054906101000a900473ffffffffffffffffffffffffffffffffffffffff166003546040516114ad939291906119c7565b60405180910390a1565b600c5481565b600d5481565b60045481565b60115481565b6000819050919050565b6114e2816114cf565b82525050565b60006020820190506114fd60008301846114d9565b92915050565b600073ffffffffffffffffffffffffffffffffffffffff82169050919050565b600061152e82611503565b9050919050565b61153e81611523565b82525050565b60006020820190506115596000830184611535565b92915050565b600080fd5b61156d81611523565b811461157857600080fd5b50565b60008135905061158a81611564565b92915050565b611599816114cf565b81146115a457600080fd5b50565b6000813590506115b681611590565b92915050565b60008060008060008060c087890312156115d9576115d861155f565b5b60006115e789828a0161157b565b96505060206115f889828a0161157b565b955050604061160989828a016115a7565b945050606061161a89828a016115a7565b935050608061162b89828a016115a7565b92505060a061163c89828a016115a7565b9150509295509295509295565b60008115159050919050565b61165e81611649565b82525050565b60006020820190506116796000830184611655565b92915050565b600061168a82611503565b9050919050565b61169a8161167f565b82525050565b60006020820190506116b56000830184611691565b92915050565b7f4e487b7100000000000000000000000000000000000000000000000000000000600052601260045260246000fd5b7f4e487b7100000000000000000000000000000000000000000000000000000000600052601160045260246000fd5b6000611724826114cf565b915061172f836114cf565b92508261173f5761173e6116bb565b5b828204905092915050565b6000611755826114cf565b9150611760836114cf565b9250828201905080821115611778576117776116ea565b5b92915050565b6000611789826114cf565b9150611794836114cf565b92508282026117a2816114cf565b915082820484148315176117b9576117b86116ea565b5b5092915050565b600060e0820190506117d5600083018a611535565b6117e26020830189611535565b6117ef60408301886114d9565b6117fc60608301876114d9565b61180960808301866114d9565b61181660a08301856114d9565b61182360c08301846114d9565b98975050505050505050565b600061183a826114cf565b9150611845836114cf565b925082820390508181111561185d5761185c6116ea565b5b92915050565b60006040820190506118786000830185611535565b6118856020830184611535565b9392505050565b60008151905061189b81611590565b92915050565b6000602082840312156118b7576118b661155f565b5b60006118c58482850161188c565b91505092915050565b60006080820190506118e36000830187611535565b6118f06020830186611535565b6118fd60408301856114d9565b61190a60608301846114d9565b95945050505050565b600060c0820190506119286000830189611535565b6119356020830188611535565b61194260408301876114d9565b61194f60608301866114d9565b61195c60808301856114d9565b61196960a0830184611655565b979650505050505050565b600060a0820190506119896000830188611535565b6119966020830187611535565b6119a360408301866114d9565b6119b060608301856114d9565b6119bd60808301846114d9565b9695505050505050565b60006060820190506119dc6000830186611535565b6119e96020830185611535565b6119f660408301846114d9565b94935050505056fea2646970667358221220e25e31f45b94ab8345a7538f88c6d54036e4a70af24ee9783f7c09bc2de97c5964736f6c63430008110033",
  "linkReferences": {},
  "deployedLinkReferences": {}
}