{
  "_format": "hh-sol-artifact-1",
  "contractName": "Lending",
  "sourceName": "contracts/lenders.sol",
  "abi": [
    {
      "inputs": [],
      "stateMutability": "nonpayable",
      "type": "constructor"
    },
    {
      "anonymous": false,
      "inputs": [
        {
          "indexed": false,
          "internalType": "address payable",
          "name": "lender",
          "type": "address"
        },
        {
          "indexed": false,
          "internalType": "address payable",
          "name": "lendee",
          "type": "address"
        },
        {
          "indexed": false,
          "internalType": "uint256",
          "name": "loanAmountLeft",
          "type": "uint256"
        },
        {
          "indexed": false,
          "internalType": "uint256",
          "name": "totalReceivedAmount",
          "type": "uint256"
        },
        {
          "indexed": false,
          "internalType": "uint256",
          "name": "principleLoanPayed",
          "type": "uint256"
        },
        {
          "indexed": false,
          "internalType": "bool",
          "name": "LoanRepaid",
          "type": "bool"
        }
      ],
      "name": "InstallmentRepaid",
      "type": "event"
    },
    {
      "anonymous": false,
      "inputs": [
        {
          "indexed": false,
          "internalType": "address payable",
          "name": "lender",
          "type": "address"
        },
        {
          "indexed": false,
          "internalType": "address payable",
          "name": "lendee",
          "type": "address"
        },
        {
          "indexed": false,
          "internalType": "uint256",
          "name": "interestLeft",
          "type": "uint256"
        },
        {
          "indexed": false,
          "internalType": "uint256",
          "name": "InterestRepaid",
          "type": "uint256"
        },
        {
          "indexed": false,
          "internalType": "uint256",
          "name": "totalReceivedAmount",
          "type": "uint256"
        }
      ],
      "name": "InterestRepaid",
      "type": "event"
    },
    {
      "anonymous": false,
      "inputs": [
        {
          "indexed": false,
          "internalType": "address payable",
          "name": "lendee",
          "type": "address"
        },
        {
          "indexed": false,
          "internalType": "address payable",
          "name": "lender",
          "type": "address"
        },
        {
          "indexed": false,
          "internalType": "uint256",
          "name": "loanAmount",
          "type": "uint256"
        }
      ],
      "name": "Lended",
      "type": "event"
    },
    {
      "anonymous": false,
      "inputs": [
        {
          "indexed": false,
          "internalType": "string",
          "name": "message",
          "type": "string"
        },
        {
          "indexed": false,
          "internalType": "uint256",
          "name": "loanId",
          "type": "uint256"
        },
        {
          "indexed": false,
          "internalType": "address payable",
          "name": "lender",
          "type": "address"
        },
        {
          "indexed": false,
          "internalType": "address payable",
          "name": "lendee",
          "type": "address"
        },
        {
          "indexed": false,
          "internalType": "uint256",
          "name": "loanAmount",
          "type": "uint256"
        },
        {
          "indexed": false,
          "internalType": "uint256",
          "name": "interestRate",
          "type": "uint256"
        },
        {
          "indexed": false,
          "internalType": "uint256",
          "name": "loanPeriod",
          "type": "uint256"
        },
        {
          "indexed": false,
          "internalType": "uint256",
          "name": "loanInstallmentPeriod",
          "type": "uint256"
        },
        {
          "indexed": false,
          "internalType": "uint256",
          "name": "installmentAmount",
          "type": "uint256"
        }
      ],
      "name": "LoanCreated",
      "type": "event"
    },
    {
      "anonymous": false,
      "inputs": [
        {
          "indexed": false,
          "internalType": "address payable",
          "name": "lender",
          "type": "address"
        },
        {
          "indexed": false,
          "internalType": "address payable",
          "name": "lendee",
          "type": "address"
        }
      ],
      "name": "LoanDefaulted",
      "type": "event"
    },
    {
      "anonymous": false,
      "inputs": [
        {
          "indexed": false,
          "internalType": "address payable",
          "name": "lender",
          "type": "address"
        },
        {
          "indexed": false,
          "internalType": "address payable",
          "name": "lendee",
          "type": "address"
        }
      ],
      "name": "LoanLate",
      "type": "event"
    },
    {
      "anonymous": false,
      "inputs": [
        {
          "indexed": false,
          "internalType": "address payable",
          "name": "lender",
          "type": "address"
        },
        {
          "indexed": false,
          "internalType": "address payable",
          "name": "lendee",
          "type": "address"
        },
        {
          "indexed": false,
          "internalType": "uint256",
          "name": "interestPayed",
          "type": "uint256"
        },
        {
          "indexed": false,
          "internalType": "uint256",
          "name": "principleLoanPayed",
          "type": "uint256"
        }
      ],
      "name": "LoanRepaidInFull",
      "type": "event"
    },
    {
      "anonymous": false,
      "inputs": [
        {
          "indexed": false,
          "internalType": "uint256",
          "name": "loanId",
          "type": "uint256"
        },
        {
          "indexed": false,
          "internalType": "uint256",
          "name": "amountLeft",
          "type": "uint256"
        }
      ],
      "name": "amountLeft",
      "type": "event"
    },
    {
      "anonymous": false,
      "inputs": [
        {
          "indexed": false,
          "internalType": "string",
          "name": "basicString",
          "type": "string"
        }
      ],
      "name": "basicString",
      "type": "event"
    },
    {
      "anonymous": false,
      "inputs": [
        {
          "indexed": false,
          "internalType": "uint256",
          "name": "blank",
          "type": "uint256"
        }
      ],
      "name": "emitUint",
      "type": "event"
    },
    {
      "anonymous": false,
      "inputs": [
        {
          "indexed": false,
          "internalType": "string",
          "name": "message",
          "type": "string"
        },
        {
          "indexed": false,
          "internalType": "uint256[]",
          "name": "_loanIds",
          "type": "uint256[]"
        },
        {
          "indexed": false,
          "internalType": "uint256[]",
          "name": "loanIds",
          "type": "uint256[]"
        }
      ],
      "name": "myActiveLoans",
      "type": "event"
    },
    {
      "anonymous": false,
      "inputs": [
        {
          "indexed": false,
          "internalType": "string",
          "name": "message",
          "type": "string"
        },
        {
          "indexed": false,
          "internalType": "address",
          "name": "scAddress",
          "type": "address"
        }
      ],
      "name": "thisSCAddress",
      "type": "event"
    },
    {
      "inputs": [],
      "name": "balanceOf",
      "outputs": [
        {
          "internalType": "uint256",
          "name": "",
          "type": "uint256"
        }
      ],
      "stateMutability": "view",
      "type": "function"
    },
    {
      "inputs": [
        {
          "internalType": "uint256",
          "name": "loanId",
          "type": "uint256"
        }
      ],
      "name": "checkPaidBalance",
      "outputs": [
        {
          "internalType": "uint256",
          "name": "",
          "type": "uint256"
        }
      ],
      "stateMutability": "nonpayable",
      "type": "function"
    },
    {
      "inputs": [
        {
          "internalType": "address payable",
          "name": "_lendee",
          "type": "address"
        },
        {
          "internalType": "address payable",
          "name": "_lender",
          "type": "address"
        },
        {
          "internalType": "uint256",
          "name": "_loanAmount",
          "type": "uint256"
        },
        {
          "internalType": "uint256",
          "name": "_interestRate",
          "type": "uint256"
        },
        {
          "internalType": "uint256",
          "name": "_loanPeriod",
          "type": "uint256"
        },
        {
          "internalType": "uint256",
          "name": "_loanInstallmentPeriod",
          "type": "uint256"
        }
      ],
      "name": "createLoan",
      "outputs": [],
      "stateMutability": "nonpayable",
      "type": "function"
    },
    {
      "inputs": [
        {
          "internalType": "uint256",
          "name": "loanId",
          "type": "uint256"
        }
      ],
      "name": "defaultLoan",
      "outputs": [],
      "stateMutability": "nonpayable",
      "type": "function"
    },
    {
      "inputs": [
        {
          "internalType": "address",
          "name": "walletAddress",
          "type": "address"
        }
      ],
      "name": "deposit",
      "outputs": [],
      "stateMutability": "payable",
      "type": "function"
    },
    {
      "inputs": [],
      "name": "getMyActiveLoans",
      "outputs": [],
      "stateMutability": "nonpayable",
      "type": "function"
    },
    {
      "inputs": [],
      "name": "getThisSmartContractAddress",
      "outputs": [],
      "stateMutability": "nonpayable",
      "type": "function"
    },
    {
      "inputs": [
        {
          "internalType": "uint256",
          "name": "loanId",
          "type": "uint256"
        }
      ],
      "name": "lendLoan",
      "outputs": [],
      "stateMutability": "payable",
      "type": "function"
    },
    {
      "inputs": [],
      "name": "owner",
      "outputs": [
        {
          "internalType": "address",
          "name": "",
          "type": "address"
        }
      ],
      "stateMutability": "view",
      "type": "function"
    },
    {
      "inputs": [
        {
          "internalType": "uint256",
          "name": "loanId",
          "type": "uint256"
        }
      ],
      "name": "remainingInterestBalance",
      "outputs": [],
      "stateMutability": "nonpayable",
      "type": "function"
    },
    {
      "inputs": [
        {
          "internalType": "uint256",
          "name": "loanId",
          "type": "uint256"
        }
      ],
      "name": "remainingLoanBalance",
      "outputs": [],
      "stateMutability": "nonpayable",
      "type": "function"
    },
    {
      "inputs": [
        {
          "internalType": "uint256",
          "name": "loanId",
          "type": "uint256"
        }
      ],
      "name": "remainingTimeForLoan",
      "outputs": [],
      "stateMutability": "nonpayable",
      "type": "function"
    },
    {
      "inputs": [
        {
          "internalType": "uint256",
          "name": "loanId",
          "type": "uint256"
        }
      ],
      "name": "repayCustAmountLoan",
      "outputs": [],
      "stateMutability": "payable",
      "type": "function"
    },
    {
      "inputs": [
        {
          "internalType": "uint256",
          "name": "loanId",
          "type": "uint256"
        }
      ],
      "name": "repayInstallment",
      "outputs": [],
      "stateMutability": "payable",
      "type": "function"
    },
    {
      "inputs": [
        {
          "internalType": "uint256",
          "name": "loanId",
          "type": "uint256"
        }
      ],
      "name": "repayInterest",
      "outputs": [],
      "stateMutability": "payable",
      "type": "function"
    }
  ],
  "bytecode": "0x608060405234801561001057600080fd5b5033600460006101000a81548173ffffffffffffffffffffffffffffffffffffffff021916908373ffffffffffffffffffffffffffffffffffffffff16021790555060006003819055506139ad806100696000396000f3fe6080604052600436106100e85760003560e01c806367bf61c41161008a578063a19b1ebc11610059578063a19b1ebc14610269578063caafa912146102a6578063d2285f09146102cf578063f340fa01146102eb576100e8565b806367bf61c4146101d3578063722713f7146101fc5780637a9f7be1146102275780638da5cb5b1461023e576100e8565b80630c1888e4116100c65780630c1888e41461015b5780631cd083e41461017757806339c61090146101a0578063627ea664146101bc576100e8565b806305cd86bc146100ed57806306639ad4146101095780630bf5b2d614610132575b600080fd5b61010760048036038101906101029190612cbf565b610307565b005b34801561011557600080fd5b50610130600480360381019061012b9190612cbf565b610955565b005b34801561013e57600080fd5b5061015960048036038101906101549190612cbf565b610a35565b005b61017560048036038101906101709190612cbf565b610b0a565b005b34801561018357600080fd5b5061019e60048036038101906101999190612d4a565b610de2565b005b6101ba60048036038101906101b59190612cbf565b6113b6565b005b3480156101c857600080fd5b506101d1611616565b005b3480156101df57600080fd5b506101fa60048036038101906101f59190612cbf565b61164f565b005b34801561020857600080fd5b50610211611752565b60405161021e9190612de6565b60405180910390f35b34801561023357600080fd5b5061023c6117b4565b005b34801561024a57600080fd5b50610253611988565b6040516102609190612e22565b60405180910390f35b34801561027557600080fd5b50610290600480360381019061028b9190612cbf565b6119ae565b60405161029d9190612de6565b60405180910390f35b3480156102b257600080fd5b506102cd60048036038101906102c89190612cbf565b611a50565b005b6102e960048036038101906102e49190612cbf565b611b25565b005b61030560048036038101906103009190612e69565b61258f565b005b60006103133383612592565b9050600115158115151461032657600080fd5b600034101561033457600080fd5b6000828154811061034857610347612e96565b5b9060005260206000209060160201600d0154421115610494573073ffffffffffffffffffffffffffffffffffffffff166367bf61c4836040518263ffffffff1660e01b815260040161039a9190612de6565b600060405180830381600087803b1580156103b457600080fd5b505af11580156103c8573d6000803e3d6000fd5b505050507f21006b857376c379dde3f87740e333147dbf9fe31aec32d37ddb228af0a3cd496000838154811061040157610400612e96565b5b906000526020600020906016020160010160009054906101000a900473ffffffffffffffffffffffffffffffffffffffff166000848154811061044757610446612e96565b5b906000526020600020906016020160000160009054906101000a900473ffffffffffffffffffffffffffffffffffffffff16604051610487929190612ed4565b60405180910390a161066d565b600082815481106104a8576104a7612e96565b5b906000526020600020906016020160150154341161066c573073ffffffffffffffffffffffffffffffffffffffff1663f340fa01306040518263ffffffff1660e01b81526004016104f99190612e22565b600060405180830381600087803b15801561051357600080fd5b505af1158015610527573d6000803e3d6000fd5b505050506000828154811061053f5761053e612e96565b5b906000526020600020906016020160010160009054906101000a900473ffffffffffffffffffffffffffffffffffffffff1673ffffffffffffffffffffffffffffffffffffffff166108fc349081150290604051600060405180830381858888f193505050501580156105b6573d6000803e3d6000fd5b5034600083815481106105cc576105cb612e96565b5b906000526020600020906016020160080160008282546105ec9190612f2c565b92505081905550346000838154811061060857610607612e96565b5b906000526020600020906016020160150160008282546106289190612f60565b92505081905550346000838154811061064457610643612e96565b5b906000526020600020906016020160050160008282546106649190612f2c565b925050819055505b5b600080838154811061068257610681612e96565b5b90600052602060002090601602016004015414806106c4575060008083815481106106b0576106af612e96565b5b906000526020600020906016020160150154145b15610819576001600083815481106106df576106de612e96565b5b9060005260206000209060160201600e0160006101000a81548160ff0219169083151502179055507f374391e4ee875ecb8cb35556bf894ef988afe39d871d122f5df72042b0b000636000838154811061073c5761073b612e96565b5b906000526020600020906016020160010160009054906101000a900473ffffffffffffffffffffffffffffffffffffffff166000848154811061078257610781612e96565b5b906000526020600020906016020160000160009054906101000a900473ffffffffffffffffffffffffffffffffffffffff16600085815481106107c8576107c7612e96565b5b906000526020600020906016020160080154600086815481106107ee576107ed612e96565b5b9060005260206000209060160201600701546040516108109493929190612f94565b60405180910390a15b7f6792eda5573710748e2cddfaccba32c112d05d1bf88bc3a2ff2faed942b7208c6000838154811061084e5761084d612e96565b5b906000526020600020906016020160010160009054906101000a900473ffffffffffffffffffffffffffffffffffffffff166000848154811061089457610893612e96565b5b906000526020600020906016020160000160009054906101000a900473ffffffffffffffffffffffffffffffffffffffff16600085815481106108da576108d9612e96565b5b90600052602060002090601602016015015460008681548110610900576108ff612e96565b5b9060005260206000209060160201600801546000878154811061092657610925612e96565b5b906000526020600020906016020160050154604051610949959493929190612fd9565b60405180910390a15050565b60006109613383612592565b9050600061096f3384612673565b9050600115158215151480610988575060011515811515145b6109c7576040517f08c379a00000000000000000000000000000000000000000000000000000000081526004016109be906130af565b60405180910390fd5b7f790907c37077c270dc37b4c54b5b60688782c3df192441b656af96ef25c57d3c8342600086815481106109fe576109fd612e96565b5b9060005260206000209060160201600d0154610a1a9190612f60565b604051610a289291906130cf565b60405180910390a1505050565b6000610a413383612592565b90506000610a4f3384612673565b9050600115158215151480610a68575060011515811515145b610aa7576040517f08c379a0000000000000000000000000000000000000000000000000000000008152600401610a9e906130af565b60405180910390fd5b7f790907c37077c270dc37b4c54b5b60688782c3df192441b656af96ef25c57d3c8360008581548110610add57610adc612e96565b5b906000526020600020906016020160150154604051610afd9291906130cf565b60405180910390a1505050565b60008181548110610b1e57610b1d612e96565b5b906000526020600020906016020160010160009054906101000a900473ffffffffffffffffffffffffffffffffffffffff1673ffffffffffffffffffffffffffffffffffffffff163373ffffffffffffffffffffffffffffffffffffffff1614610b8757600080fd5b60008181548110610b9b57610b9a612e96565b5b906000526020600020906016020160030154341015610bb957600080fd5b60011515600460149054906101000a900460ff16151514610bd957600080fd5b3073ffffffffffffffffffffffffffffffffffffffff1663f340fa01306040518263ffffffff1660e01b8152600401610c129190612e22565b600060405180830381600087803b158015610c2c57600080fd5b505af1158015610c40573d6000803e3d6000fd5b5050505060008181548110610c5857610c57612e96565b5b906000526020600020906016020160000160009054906101000a900473ffffffffffffffffffffffffffffffffffffffff1673ffffffffffffffffffffffffffffffffffffffff166108fc60008381548110610cb757610cb6612e96565b5b9060005260206000209060160201600301549081150290604051600060405180830381858888f19350505050158015610cf4573d6000803e3d6000fd5b507f07fa3745b9e8f17098173872a5be345c09acc1337ca03d054e7b9b5944b6d22660008281548110610d2a57610d29612e96565b5b906000526020600020906016020160000160009054906101000a900473ffffffffffffffffffffffffffffffffffffffff1660008381548110610d7057610d6f612e96565b5b906000526020600020906016020160010160009054906101000a900473ffffffffffffffffffffffffffffffffffffffff1660008481548110610db657610db5612e96565b5b906000526020600020906016020160030154604051610dd7939291906130f8565b60405180910390a150565b8473ffffffffffffffffffffffffffffffffffffffff163373ffffffffffffffffffffffffffffffffffffffff1614610e1a57600080fd5b60008411610e2757600080fd5b600083118015610e38575060648311155b610e4157600080fd5b60008211610e4e57600080fd5b610e56612adc565b600354816040018181525050600160036000828254610e759190612f2c565b9250508190555086816020019073ffffffffffffffffffffffffffffffffffffffff16908173ffffffffffffffffffffffffffffffffffffffff168152505085816020019073ffffffffffffffffffffffffffffffffffffffff16908173ffffffffffffffffffffffffffffffffffffffff16815250508481606001818152505083816101200181815250508281610140018181525050818161016001818152505081816102a00181815250508185610f2e919061315e565b8161026001818152505042816101800181815250508242610f4f9190612f2c565b816101a001818152505060648486610f67919061318f565b610f71919061315e565b8160c00181815250508060c00151816102c00181815250508481608001818152505060008160a001818152505060008160e00181815250506000816101000181815250504281610280018181525050600081908060018154018082558091505060019003906000526020600020906016020160009091909190915060008201518160000160006101000a81548173ffffffffffffffffffffffffffffffffffffffff021916908373ffffffffffffffffffffffffffffffffffffffff16021790555060208201518160010160006101000a81548173ffffffffffffffffffffffffffffffffffffffff021916908373ffffffffffffffffffffffffffffffffffffffff16021790555060408201518160020155606082015181600301556080820151816004015560a0820151816005015560c0820151816006015560e082015181600701556101008201518160080155610120820151816009015561014082015181600a015561016082015181600b015561018082015181600c01556101a082015181600d01556101c082015181600e0160006101000a81548160ff0219169083151502179055506101e082015181600e0160016101000a81548160ff02191690831515021790555061020082015181600f015561022082015181601001556102408201518160110155610260820151816012015561028082015181601301556102a082015181601401556102c0820151816015015550506001600460146101000a81548160ff02191690831515021790555060006111af87612754565b9050633b9ac9ff811461121157600281815481106111d0576111cf612e96565b5b906000526020600020906002020160010182604001519080600181540180825580915050600190039060005260206000200160009091909190915055611273565b61121a87612842565b600261122588612754565b8154811061123657611235612e96565b5b9060005260206000209060020201600101826040015190806001815401808255809150506001900390600052602060002001600090919091909150555b600061127e89612918565b9050633b9ac9ff81146112e0576001818154811061129f5761129e612e96565b5b906000526020600020906002020160010183604001519080600181540180825580915050600190039060005260206000200160009091909190915055611342565b6112e989612a06565b60016112f48a612918565b8154811061130557611304612e96565b5b9060005260206000209060020201600101836040015190806001815401808255809150506001900390600052602060002001600090919091909150555b7fa6463d4ad3dd79dfcf518f44a256018f2e88772a5277ad1e6da9b5f4b148c01c83604001518460200151856000015186606001518761012001518861014001518961016001518a61026001516040516113a3989796959493929190613269565b60405180910390a1505050505050505050565b60006113c23383612592565b9050600115158115151461140b576040517f08c379a0000000000000000000000000000000000000000000000000000000008152600401611402906130af565b60405180910390fd5b600034101561141957600080fd5b346000838154811061142e5761142d612e96565b5b90600052602060002090601602016004015461144a9190612f60565b6000838154811061145e5761145d612e96565b5b9060005260206000209060160201600401819055506000828154811061148757611486612e96565b5b9060005260206000209060160201600f0154346114a49190612f2c565b600083815481106114b8576114b7612e96565b5b906000526020600020906016020160050160008282546114d89190612f2c565b9250508190555034600083815481106114f4576114f3612e96565b5b906000526020600020906016020160070160008282546115149190612f2c565b925050819055503073ffffffffffffffffffffffffffffffffffffffff1663f340fa01306040518263ffffffff1660e01b81526004016115549190612e22565b600060405180830381600087803b15801561156e57600080fd5b505af1158015611582573d6000803e3d6000fd5b505050506000828154811061159a57611599612e96565b5b906000526020600020906016020160010160009054906101000a900473ffffffffffffffffffffffffffffffffffffffff1673ffffffffffffffffffffffffffffffffffffffff166108fc349081150290604051600060405180830381858888f19350505050158015611611573d6000803e3d6000fd5b505050565b7fedae38c413ed1abd60fbef78231d36535f0eb628d9251232ed9de38d0e8ed33430604051611645919061336d565b60405180910390a1565b6000818154811061166357611662612e96565b5b9060005260206000209060160201600e0160009054906101000a900460ff161561168c57600080fd5b7f21006b857376c379dde3f87740e333147dbf9fe31aec32d37ddb228af0a3cd49600082815481106116c1576116c0612e96565b5b906000526020600020906016020160010160009054906101000a900473ffffffffffffffffffffffffffffffffffffffff166000838154811061170757611706612e96565b5b906000526020600020906016020160000160009054906101000a900473ffffffffffffffffffffffffffffffffffffffff16604051611747929190612ed4565b60405180910390a150565b6000600460009054906101000a900473ffffffffffffffffffffffffffffffffffffffff1673ffffffffffffffffffffffffffffffffffffffff163373ffffffffffffffffffffffffffffffffffffffff16146117ae57600080fd5b47905090565b606060006117c133612754565b905060006117ce33612918565b9050633b9ac9ff821415806117e75750633b9ac9ff8114155b611826576040517f08c379a000000000000000000000000000000000000000000000000000000000815260040161181d90613459565b60405180910390fd5b633b9ac9ff8103611893577f852db8c01a3b84dc5c5190610b94aa9206f374629e207992428a6ef389d18c206002838154811061186657611865612e96565b5b90600052602060002090600202016001018460405161188692919061367f565b60405180910390a1611983565b633b9ac9ff8203611900577f852db8c01a3b84dc5c5190610b94aa9206f374629e207992428a6ef389d18c20600182815481106118d3576118d2612e96565b5b9060005260206000209060020201600101846040516118f392919061373b565b60405180910390a1611982565b7f852db8c01a3b84dc5c5190610b94aa9206f374629e207992428a6ef389d18c206001828154811061193557611934612e96565b5b90600052602060002090600202016001016002848154811061195a57611959612e96565b5b9060005260206000209060020201600101604051611979929190613869565b60405180910390a15b5b505050565b600460009054906101000a900473ffffffffffffffffffffffffffffffffffffffff1681565b6000806119bb3384612592565b905060006119c93385612673565b90506001151582151514806119e2575060011515811515145b611a21576040517f08c379a0000000000000000000000000000000000000000000000000000000008152600401611a18906130af565b60405180910390fd5b60008481548110611a3557611a34612e96565b5b90600052602060002090601602016005015492505050919050565b6000611a5c3383612592565b90506000611a6a3384612673565b9050600115158215151480611a83575060011515811515145b611ac2576040517f08c379a0000000000000000000000000000000000000000000000000000000008152600401611ab9906130af565b60405180910390fd5b7f790907c37077c270dc37b4c54b5b60688782c3df192441b656af96ef25c57d3c8360008581548110611af857611af7612e96565b5b906000526020600020906016020160040154604051611b189291906130cf565b60405180910390a1505050565b6000611b313383612592565b90506001151581151514611b4457600080fd5b60008281548110611b5857611b57612e96565b5b906000526020600020906016020160120154341015611b7657600080fd5b6000808381548110611b8b57611b8a612e96565b5b90600052602060002090601602016013015442611ba89190612f60565b905060008381548110611bbe57611bbd612e96565b5b9060005260206000209060160201601401546201518082611bdf919061318f565b1115611f87573073ffffffffffffffffffffffffffffffffffffffff1663f340fa01306040518263ffffffff1660e01b8152600401611c1e9190612e22565b600060405180830381600087803b158015611c3857600080fd5b505af1158015611c4c573d6000803e3d6000fd5b5050505060008381548110611c6457611c63612e96565b5b9060005260206000209060160201600f015460008481548110611c8a57611c89612e96565b5b906000526020600020906016020160120154611ca69190612f2c565b341015611cb257600080fd5b60008381548110611cc657611cc5612e96565b5b906000526020600020906016020160010160009054906101000a900473ffffffffffffffffffffffffffffffffffffffff1673ffffffffffffffffffffffffffffffffffffffff166108fc60008581548110611d2557611d24612e96565b5b9060005260206000209060160201600f015460008681548110611d4b57611d4a612e96565b5b906000526020600020906016020160120154611d679190612f2c565b9081150290604051600060405180830381858888f19350505050158015611d92573d6000803e3d6000fd5b503460008481548110611da857611da7612e96565b5b906000526020600020906016020160040154611dc49190612f60565b60008481548110611dd857611dd7612e96565b5b90600052602060002090601602016004018190555060008381548110611e0157611e00612e96565b5b9060005260206000209060160201600f015434611e1e9190612f2c565b60008481548110611e3257611e31612e96565b5b90600052602060002090601602016005016000828254611e529190612f2c565b925050819055503460008481548110611e6e57611e6d612e96565b5b90600052602060002090601602016007016000828254611e8e9190612f2c565b925050819055504260008481548110611eaa57611ea9612e96565b5b9060005260206000209060160201601301819055507fc2af2d6e1838968d2a8371a00657bedcacf318cf60c709c98cc77f078b2a284860008481548110611ef457611ef3612e96565b5b906000526020600020906016020160010160009054906101000a900473ffffffffffffffffffffffffffffffffffffffff1660008581548110611f3a57611f39612e96565b5b906000526020600020906016020160000160009054906101000a900473ffffffffffffffffffffffffffffffffffffffff16604051611f7a929190612ed4565b60405180910390a1612272565b60008381548110611f9b57611f9a612e96565b5b90600052602060002090601602016014015460008481548110611fc157611fc0612e96565b5b9060005260206000209060160201601401546201518083611fe2919061318f565b611fec9190612f60565b118061201c57506000838154811061200757612006612e96565b5b9060005260206000209060160201600d015442115b15612154577f21006b857376c379dde3f87740e333147dbf9fe31aec32d37ddb228af0a3cd496000848154811061205657612055612e96565b5b906000526020600020906016020160010160009054906101000a900473ffffffffffffffffffffffffffffffffffffffff166000858154811061209c5761209b612e96565b5b906000526020600020906016020160000160009054906101000a900473ffffffffffffffffffffffffffffffffffffffff166040516120dc929190612ed4565b60405180910390a13073ffffffffffffffffffffffffffffffffffffffff166367bf61c4846040518263ffffffff1660e01b815260040161211d9190612de6565b600060405180830381600087803b15801561213757600080fd5b505af115801561214b573d6000803e3d6000fd5b50505050612271565b3073ffffffffffffffffffffffffffffffffffffffff1663f340fa01306040518263ffffffff1660e01b815260040161218d9190612e22565b600060405180830381600087803b1580156121a757600080fd5b505af11580156121bb573d6000803e3d6000fd5b50505050600083815481106121d3576121d2612e96565b5b906000526020600020906016020160010160009054906101000a900473ffffffffffffffffffffffffffffffffffffffff1673ffffffffffffffffffffffffffffffffffffffff166108fc6000858154811061223257612231612e96565b5b9060005260206000209060160201601201549081150290604051600060405180830381858888f1935050505015801561226f573d6000803e3d6000fd5b505b5b600080848154811061228757612286612e96565b5b90600052602060002090601602016004015414806122c9575060008084815481106122b5576122b4612e96565b5b906000526020600020906016020160150154145b1561241e576001600084815481106122e4576122e3612e96565b5b9060005260206000209060160201600e0160006101000a81548160ff0219169083151502179055507f374391e4ee875ecb8cb35556bf894ef988afe39d871d122f5df72042b0b000636000848154811061234157612340612e96565b5b906000526020600020906016020160010160009054906101000a900473ffffffffffffffffffffffffffffffffffffffff166000858154811061238757612386612e96565b5b906000526020600020906016020160000160009054906101000a900473ffffffffffffffffffffffffffffffffffffffff16600086815481106123cd576123cc612e96565b5b906000526020600020906016020160080154600087815481106123f3576123f2612e96565b5b9060005260206000209060160201600701546040516124159493929190612f94565b60405180910390a15b7feb254407dc1f48422ded2837cc80aee744c93dc27d81ea84bff3cb1f82f4af456000848154811061245357612452612e96565b5b906000526020600020906016020160010160009054906101000a900473ffffffffffffffffffffffffffffffffffffffff166000858154811061249957612498612e96565b5b906000526020600020906016020160000160009054906101000a900473ffffffffffffffffffffffffffffffffffffffff16600086815481106124df576124de612e96565b5b9060005260206000209060160201600401546000878154811061250557612504612e96565b5b9060005260206000209060160201600501546000888154811061252b5761252a612e96565b5b9060005260206000209060160201600701546000898154811061255157612550612e96565b5b9060005260206000209060160201600e0160009054906101000a900460ff16604051612582969594939291906138ce565b60405180910390a1505050565b50565b60008061259e84612918565b90506000633b9ac9ff82036125b85760009250505061266d565b60005b600183815481106125cf576125ce612e96565b5b90600052602060002090600202016001018054905081101561265257600183815481106125ff576125fe612e96565b5b9060005260206000209060020201600101818154811061262257612621612e96565b5b9060005260206000200154850361263f576001935050505061266d565b808061264a9061392f565b9150506125bb565b50600015158115150361266a5760009250505061266d565b50505b92915050565b60008061267f84612754565b90506000633b9ac9ff82036126995760009250505061274e565b60005b600283815481106126b0576126af612e96565b5b90600052602060002090600202016001018054905081101561273357600283815481106126e0576126df612e96565b5b9060005260206000209060020201600101818154811061270357612702612e96565b5b90600052602060002001548503612720576001935050505061274e565b808061272b9061392f565b91505061269c565b50600015158115150361274b5760009250505061274e565b50505b92915050565b600080600090505b600280549050811015612834578273ffffffffffffffffffffffffffffffffffffffff166002828154811061279457612793612e96565b5b906000526020600020906002020160000160009054906101000a900473ffffffffffffffffffffffffffffffffffffffff1673ffffffffffffffffffffffffffffffffffffffff1603612821577f919402445ad72998974e2c04d45b8a0302a283714dc3d3b2b5454781079034aa816040516128109190612de6565b60405180910390a18091505061283d565b808061282c9061392f565b91505061275c565b50633b9ac9ff90505b919050565b61284a612bba565b81816000019073ffffffffffffffffffffffffffffffffffffffff16908173ffffffffffffffffffffffffffffffffffffffff1681525050600281908060018154018082558091505060019003906000526020600020906002020160009091909190915060008201518160000160006101000a81548173ffffffffffffffffffffffffffffffffffffffff021916908373ffffffffffffffffffffffffffffffffffffffff1602179055506020820151816001019080519060200190612911929190612bea565b5050505050565b600080600090505b6001805490508110156129f8578273ffffffffffffffffffffffffffffffffffffffff166001828154811061295857612957612e96565b5b906000526020600020906002020160000160009054906101000a900473ffffffffffffffffffffffffffffffffffffffff1673ffffffffffffffffffffffffffffffffffffffff16036129e5577f919402445ad72998974e2c04d45b8a0302a283714dc3d3b2b5454781079034aa816040516129d49190612de6565b60405180910390a180915050612a01565b80806129f09061392f565b915050612920565b50633b9ac9ff90505b919050565b612a0e612c37565b81816000019073ffffffffffffffffffffffffffffffffffffffff16908173ffffffffffffffffffffffffffffffffffffffff1681525050600181908060018154018082558091505060019003906000526020600020906002020160009091909190915060008201518160000160006101000a81548173ffffffffffffffffffffffffffffffffffffffff021916908373ffffffffffffffffffffffffffffffffffffffff1602179055506020820151816001019080519060200190612ad5929190612bea565b5050505050565b604051806102e00160405280600073ffffffffffffffffffffffffffffffffffffffff168152602001600073ffffffffffffffffffffffffffffffffffffffff168152602001600081526020016000815260200160008152602001600081526020016000815260200160008152602001600081526020016000815260200160008152602001600081526020016000815260200160008152602001600015158152602001600015158152602001600081526020016000815260200160008152602001600081526020016000815260200160008152602001600081525090565b6040518060400160405280600073ffffffffffffffffffffffffffffffffffffffff168152602001606081525090565b828054828255906000526020600020908101928215612c26579160200282015b82811115612c25578251825591602001919060010190612c0a565b5b509050612c339190612c67565b5090565b6040518060400160405280600073ffffffffffffffffffffffffffffffffffffffff168152602001606081525090565b5b80821115612c80576000816000905550600101612c68565b5090565b600080fd5b6000819050919050565b612c9c81612c89565b8114612ca757600080fd5b50565b600081359050612cb981612c93565b92915050565b600060208284031215612cd557612cd4612c84565b5b6000612ce384828501612caa565b91505092915050565b600073ffffffffffffffffffffffffffffffffffffffff82169050919050565b6000612d1782612cec565b9050919050565b612d2781612d0c565b8114612d3257600080fd5b50565b600081359050612d4481612d1e565b92915050565b60008060008060008060c08789031215612d6757612d66612c84565b5b6000612d7589828a01612d35565b9650506020612d8689828a01612d35565b9550506040612d9789828a01612caa565b9450506060612da889828a01612caa565b9350506080612db989828a01612caa565b92505060a0612dca89828a01612caa565b9150509295509295509295565b612de081612c89565b82525050565b6000602082019050612dfb6000830184612dd7565b92915050565b6000612e0c82612cec565b9050919050565b612e1c81612e01565b82525050565b6000602082019050612e376000830184612e13565b92915050565b612e4681612e01565b8114612e5157600080fd5b50565b600081359050612e6381612e3d565b92915050565b600060208284031215612e7f57612e7e612c84565b5b6000612e8d84828501612e54565b91505092915050565b7f4e487b7100000000000000000000000000000000000000000000000000000000600052603260045260246000fd5b612ece81612d0c565b82525050565b6000604082019050612ee96000830185612ec5565b612ef66020830184612ec5565b9392505050565b7f4e487b7100000000000000000000000000000000000000000000000000000000600052601160045260246000fd5b6000612f3782612c89565b9150612f4283612c89565b9250828201905080821115612f5a57612f59612efd565b5b92915050565b6000612f6b82612c89565b9150612f7683612c89565b9250828203905081811115612f8e57612f8d612efd565b5b92915050565b6000608082019050612fa96000830187612ec5565b612fb66020830186612ec5565b612fc36040830185612dd7565b612fd06060830184612dd7565b95945050505050565b600060a082019050612fee6000830188612ec5565b612ffb6020830187612ec5565b6130086040830186612dd7565b6130156060830185612dd7565b6130226080830184612dd7565b9695505050505050565b600082825260208201905092915050565b7f596f7520646f206e6f7420686176652061636365737320746f2074686973206c60008201527f6f616e2e00000000000000000000000000000000000000000000000000000000602082015250565b600061309960248361302c565b91506130a48261303d565b604082019050919050565b600060208201905081810360008301526130c88161308c565b9050919050565b60006040820190506130e46000830185612dd7565b6130f16020830184612dd7565b9392505050565b600060608201905061310d6000830186612ec5565b61311a6020830185612ec5565b6131276040830184612dd7565b949350505050565b7f4e487b7100000000000000000000000000000000000000000000000000000000600052601260045260246000fd5b600061316982612c89565b915061317483612c89565b9250826131845761318361312f565b5b828204905092915050565b600061319a82612c89565b91506131a583612c89565b92508282026131b381612c89565b915082820484148315176131ca576131c9612efd565b5b5092915050565b7f506c6561736520777269746520646f776e20796f7572206c6f616e496420736f60008201527f20796f752063616e206163636573732069742061742061206c6174657220646160208201527f74652e0000000000000000000000000000000000000000000000000000000000604082015250565b600061325360438361302c565b915061325e826131d1565b606082019050919050565b600061012082019050818103600083015261328381613246565b9050613292602083018b612dd7565b61329f604083018a612ec5565b6132ac6060830189612ec5565b6132b96080830188612dd7565b6132c660a0830187612dd7565b6132d360c0830186612dd7565b6132e060e0830185612dd7565b6132ee610100830184612dd7565b9998505050505050505050565b7f48657265206973207468652061646472657373206f66207468697320736d617260008201527f7420636f6e747261637400000000000000000000000000000000000000000000602082015250565b6000613357602a8361302c565b9150613362826132fb565b604082019050919050565b600060408201905081810360008301526133868161334a565b90506133956020830184612e13565b92915050565b7f546869732061646472657373206973206e65697468657220636f6e6e6563746560008201527f6420746f2061206c656e646572206f72206c656e64656520696e206f7572206460208201527f617461626173653b206d616b65207375726520796f7520617265207573696e6760408201527f2074686520636f72726563742077616c6c65742e000000000000000000000000606082015250565b600061344360748361302c565b915061344e8261339b565b608082019050919050565b6000602082019050818103600083015261347281613436565b9050919050565b7f596f75206172652061206c656e6465722c20686572652061726520796f75722060008201527f6c6f616e49647300000000000000000000000000000000000000000000000000602082015250565b60006134d560278361302c565b91506134e082613479565b604082019050919050565b600081549050919050565b600082825260208201905092915050565b60008190508160005260206000209050919050565b61352581612c89565b82525050565b6000613537838361351c565b60208301905092915050565b60008160001c9050919050565b6000819050919050565b600061356d61356883613543565b613550565b9050919050565b6000613580825461355a565b9050919050565b6000600182019050919050565b600061359f826134eb565b6135a981856134f6565b93506135b483613507565b8060005b838110156135ec576135c982613574565b6135d3888261352b565b97506135de83613587565b9250506001810190506135b8565b5085935050505092915050565b600081519050919050565b6000819050602082019050919050565b6000602082019050919050565b600061362c826135f9565b61363681856134f6565b935061364183613604565b8060005b83811015613672578151613659888261352b565b975061366483613614565b925050600181019050613645565b5085935050505092915050565b60006060820190508181036000830152613698816134c8565b905081810360208301526136ac8185613594565b905081810360408301526136c08184613621565b90509392505050565b7f596f75206172652061206c656e6465652c20686572652061726520796f75722060008201527f6c6f616e49647300000000000000000000000000000000000000000000000000602082015250565b600061372560278361302c565b9150613730826136c9565b604082019050919050565b6000606082019050818103600083015261375481613718565b905081810360208301526137688185613594565b9050818103604083015261377c8184613621565b90509392505050565b7f596f752061726520626f74682061206c656e64656520616e64206c656e64657260008201527f2c20686572652061726520796f7572206c6f616e49647320285468652066697260208201527f737420736572696573206f662049647320697320666f7220796f75206c656e6460408201527f656520706572736f6e612c20746865207365636f6e6420697320666f7220796f60608201527f7572206c656e64657220706572736f6e61292e20000000000000000000000000608082015250565b600061385360948361302c565b915061385e82613785565b60a082019050919050565b6000606082019050818103600083015261388281613846565b905081810360208301526138968185613594565b905081810360408301526138aa8184613594565b90509392505050565b60008115159050919050565b6138c8816138b3565b82525050565b600060c0820190506138e36000830189612ec5565b6138f06020830188612ec5565b6138fd6040830187612dd7565b61390a6060830186612dd7565b6139176080830185612dd7565b61392460a08301846138bf565b979650505050505050565b600061393a82612c89565b91507fffffffffffffffffffffffffffffffffffffffffffffffffffffffffffffffff820361396c5761396b612efd565b5b60018201905091905056fea264697066735822122069f1871a0e71ebed7e083442ae26da8e89a470ea0b061f0bb4f67e1509d0a44164736f6c63430008110033",
  "linkReferences": {},
  "deployedLinkReferences": {}
}