{
  "abi": [
    {
      "inputs": [],
      "stateMutability": "nonpayable",
      "type": "constructor"
    },
    {
      "inputs": [],
      "name": "empty",
      "outputs": [],
      "stateMutability": "nonpayable",
      "type": "function"
    }
  ],
  "bytecode": {
    "object": "0x6080604052348015600f57600080fd5b50606580601d6000396000f3fe6080604052348015600f57600080fd5b506004361060285760003560e01c8063f2a75fe414602d575b600080fd5b00fea264697066735822122027fcaa9f7ff36c68d76bc68c22c7d70675d428d01e9b5d1e9ac50b06117155b764736f6c63430008130033",
    "linkReferences": {}
  },
  "methodIdentifiers": {
    "empty()": "f2a75fe4"
  },
  "id": 80
}