{
  "_format": "hh-sol-artifact-1",
  "contractName": "INFToken",
  "sourceName": "contracts/OZToken.sol",
  "abi": [
    {
      "inputs": [
        {
          "internalType": "uint256",
          "name": "initialSupply",
          "type": "uint256"
        },
        {
          "internalType": "uint256",
          "name": "cap",
          "type": "uint256"
        }
      ],
      "stateMutability": "nonpayable",
      "type": "constructor"
    },
    {
      "anonymous": false,
      "inputs": [
        {
          "indexed": true,
          "internalType": "address",
          "name": "owner",
          "type": "address"
        },
        {
          "indexed": true,
          "internalType": "address",
          "name": "spender",
          "type": "address"
        },
        {
          "indexed": false,
          "internalType": "uint256",
          "name": "value",
          "type": "uint256"
        }
      ],
      "name": "Approval",
      "type": "event"
    },
    {
      "anonymous": false,
      "inputs": [
        {
          "indexed": true,
          "internalType": "address",
          "name": "from",
          "type": "address"
        },
        {
          "indexed": true,
          "internalType": "address",
          "name": "to",
          "type": "address"
        },
        {
          "indexed": false,
          "internalType": "uint256",
          "name": "value",
          "type": "uint256"
        }
      ],
      "name": "Transfer",
      "type": "event"
    },
    {
      "inputs": [
        {
          "internalType": "address",
          "name": "owner",
          "type": "address"
        },
        {
          "internalType": "address",
          "name": "spender",
          "type": "address"
        }
      ],
      "name": "allowance",
      "outputs": [
        {
          "internalType": "uint256",
          "name": "",
          "type": "uint256"
        }
      ],
      "stateMutability": "view",
      "type": "function"
    },
    {
      "inputs": [
        {
          "internalType": "address",
          "name": "spender",
          "type": "address"
        },
        {
          "internalType": "uint256",
          "name": "amount",
          "type": "uint256"
        }
      ],
      "name": "approve",
      "outputs": [
        {
          "internalType": "bool",
          "name": "",
          "type": "bool"
        }
      ],
      "stateMutability": "nonpayable",
      "type": "function"
    },
    {
      "inputs": [
        {
          "internalType": "address",
          "name": "account",
          "type": "address"
        }
      ],
      "name": "balanceOf",
      "outputs": [
        {
          "internalType": "uint256",
          "name": "",
          "type": "uint256"
        }
      ],
      "stateMutability": "view",
      "type": "function"
    },
    {
      "inputs": [],
      "name": "cap",
      "outputs": [
        {
          "internalType": "uint256",
          "name": "",
          "type": "uint256"
        }
      ],
      "stateMutability": "view",
      "type": "function"
    },
    {
      "inputs": [],
      "name": "decimals",
      "outputs": [
        {
          "internalType": "uint8",
          "name": "",
          "type": "uint8"
        }
      ],
      "stateMutability": "view",
      "type": "function"
    },
    {
      "inputs": [
        {
          "internalType": "address",
          "name": "spender",
          "type": "address"
        },
        {
          "internalType": "uint256",
          "name": "subtractedValue",
          "type": "uint256"
        }
      ],
      "name": "decreaseAllowance",
      "outputs": [
        {
          "internalType": "bool",
          "name": "",
          "type": "bool"
        }
      ],
      "stateMutability": "nonpayable",
      "type": "function"
    },
    {
      "inputs": [
        {
          "internalType": "address",
          "name": "spender",
          "type": "address"
        },
        {
          "internalType": "uint256",
          "name": "addedValue",
          "type": "uint256"
        }
      ],
      "name": "increaseAllowance",
      "outputs": [
        {
          "internalType": "bool",
          "name": "",
          "type": "bool"
        }
      ],
      "stateMutability": "nonpayable",
      "type": "function"
    },
    {
      "inputs": [],
      "name": "name",
      "outputs": [
        {
          "internalType": "string",
          "name": "",
          "type": "string"
        }
      ],
      "stateMutability": "view",
      "type": "function"
    },
    {
      "inputs": [],
      "name": "owner",
      "outputs": [
        {
          "internalType": "address payable",
          "name": "",
          "type": "address"
        }
      ],
      "stateMutability": "view",
      "type": "function"
    },
    {
      "inputs": [],
      "name": "symbol",
      "outputs": [
        {
          "internalType": "string",
          "name": "",
          "type": "string"
        }
      ],
      "stateMutability": "view",
      "type": "function"
    },
    {
      "inputs": [],
      "name": "totalSupply",
      "outputs": [
        {
          "internalType": "uint256",
          "name": "",
          "type": "uint256"
        }
      ],
      "stateMutability": "view",
      "type": "function"
    },
    {
      "inputs": [
        {
          "internalType": "address",
          "name": "to",
          "type": "address"
        },
        {
          "internalType": "uint256",
          "name": "amount",
          "type": "uint256"
        }
      ],
      "name": "transfer",
      "outputs": [
        {
          "internalType": "bool",
          "name": "",
          "type": "bool"
        }
      ],
      "stateMutability": "nonpayable",
      "type": "function"
    },
    {
      "inputs": [
        {
          "internalType": "address",
          "name": "from",
          "type": "address"
        },
        {
          "internalType": "address",
          "name": "to",
          "type": "address"
        },
        {
          "internalType": "uint256",
          "name": "amount",
          "type": "uint256"
        }
      ],
      "name": "transferFrom",
      "outputs": [
        {
          "internalType": "bool",
          "name": "",
          "type": "bool"
        }
      ],
      "stateMutability": "nonpayable",
      "type": "function"
    }
  ],
  "bytecode": "0x60a06040523480156200001157600080fd5b50604051620020c0380380620020c083398181016040528101906200003791906200042d565b62000047620001c860201b60201c565b600a62000055919062000604565b8162000062919062000655565b6040518060400160405280600881526020017f494e46546f6b656e0000000000000000000000000000000000000000000000008152506040518060400160405280600381526020017f494e4600000000000000000000000000000000000000000000000000000000008152508160039081620000df919062000910565b508060049081620000f1919062000910565b505050600081116200013a576040517f08c379a0000000000000000000000000000000000000000000000000000000008152600401620001319062000a58565b60405180910390fd5b80608081815250505033600560006101000a81548173ffffffffffffffffffffffffffffffffffffffff021916908373ffffffffffffffffffffffffffffffffffffffff160217905550620001c03362000199620001c860201b60201c565b600a620001a7919062000604565b84620001b4919062000655565b620001d160201b60201c565b505062000bc7565b60006012905090565b620001e16200026260201b60201c565b81620001f76200026c60201b6200038d1760201c565b62000203919062000a7a565b111562000247576040517f08c379a00000000000000000000000000000000000000000000000000000000081526004016200023e9062000b05565b60405180910390fd5b6200025e82826200027660201b6200064f1760201c565b5050565b6000608051905090565b6000600254905090565b600073ffffffffffffffffffffffffffffffffffffffff168273ffffffffffffffffffffffffffffffffffffffff1603620002e8576040517f08c379a0000000000000000000000000000000000000000000000000000000008152600401620002df9062000b77565b60405180910390fd5b620002fc60008383620003e360201b60201c565b806002600082825462000310919062000a7a565b92505081905550806000808473ffffffffffffffffffffffffffffffffffffffff1673ffffffffffffffffffffffffffffffffffffffff168152602001908152602001600020600082825401925050819055508173ffffffffffffffffffffffffffffffffffffffff16600073ffffffffffffffffffffffffffffffffffffffff167fddf252ad1be2c89b69c2b068fc378daa952ba7f163c4a11628f55a4df523b3ef83604051620003c3919062000baa565b60405180910390a3620003df60008383620003e860201b60201c565b5050565b505050565b505050565b600080fd5b6000819050919050565b6200040781620003f2565b81146200041357600080fd5b50565b6000815190506200042781620003fc565b92915050565b60008060408385031215620004475762000446620003ed565b5b6000620004578582860162000416565b92505060206200046a8582860162000416565b9150509250929050565b7f4e487b7100000000000000000000000000000000000000000000000000000000600052601160045260246000fd5b60008160011c9050919050565b6000808291508390505b60018511156200050257808604811115620004da57620004d962000474565b5b6001851615620004ea5780820291505b8081029050620004fa85620004a3565b9450620004ba565b94509492505050565b6000826200051d5760019050620005f0565b816200052d5760009050620005f0565b8160018114620005465760028114620005515762000587565b6001915050620005f0565b60ff84111562000566576200056562000474565b5b8360020a91508482111562000580576200057f62000474565b5b50620005f0565b5060208310610133831016604e8410600b8410161715620005c15782820a905083811115620005bb57620005ba62000474565b5b620005f0565b620005d08484846001620004b0565b92509050818404811115620005ea57620005e962000474565b5b81810290505b9392505050565b600060ff82169050919050565b60006200061182620003f2565b91506200061e83620005f7565b92506200064d7fffffffffffffffffffffffffffffffffffffffffffffffffffffffffffffffff84846200050b565b905092915050565b60006200066282620003f2565b91506200066f83620003f2565b92508282026200067f81620003f2565b9150828204841483151762000699576200069862000474565b5b5092915050565b600081519050919050565b7f4e487b7100000000000000000000000000000000000000000000000000000000600052604160045260246000fd5b7f4e487b7100000000000000000000000000000000000000000000000000000000600052602260045260246000fd5b600060028204905060018216806200072257607f821691505b602082108103620007385762000737620006da565b5b50919050565b60008190508160005260206000209050919050565b60006020601f8301049050919050565b600082821b905092915050565b600060088302620007a27fffffffffffffffffffffffffffffffffffffffffffffffffffffffffffffffff8262000763565b620007ae868362000763565b95508019841693508086168417925050509392505050565b6000819050919050565b6000620007f1620007eb620007e584620003f2565b620007c6565b620003f2565b9050919050565b6000819050919050565b6200080d83620007d0565b620008256200081c82620007f8565b84845462000770565b825550505050565b600090565b6200083c6200082d565b6200084981848462000802565b505050565b5b8181101562000871576200086560008262000832565b6001810190506200084f565b5050565b601f821115620008c0576200088a816200073e565b620008958462000753565b81016020851015620008a5578190505b620008bd620008b48562000753565b8301826200084e565b50505b505050565b600082821c905092915050565b6000620008e560001984600802620008c5565b1980831691505092915050565b6000620009008383620008d2565b9150826002028217905092915050565b6200091b82620006a0565b67ffffffffffffffff811115620009375762000936620006ab565b5b62000943825462000709565b6200095082828562000875565b600060209050601f83116001811462000988576000841562000973578287015190505b6200097f8582620008f2565b865550620009ef565b601f19841662000998866200073e565b60005b82811015620009c2578489015182556001820191506020850194506020810190506200099b565b86831015620009e25784890151620009de601f891682620008d2565b8355505b6001600288020188555050505b505050505050565b600082825260208201905092915050565b7f45524332304361707065643a2063617020697320300000000000000000000000600082015250565b600062000a40601583620009f7565b915062000a4d8262000a08565b602082019050919050565b6000602082019050818103600083015262000a738162000a31565b9050919050565b600062000a8782620003f2565b915062000a9483620003f2565b925082820190508082111562000aaf5762000aae62000474565b5b92915050565b7f45524332304361707065643a2063617020657863656564656400000000000000600082015250565b600062000aed601983620009f7565b915062000afa8262000ab5565b602082019050919050565b6000602082019050818103600083015262000b208162000ade565b9050919050565b7f45524332303a206d696e7420746f20746865207a65726f206164647265737300600082015250565b600062000b5f601f83620009f7565b915062000b6c8262000b27565b602082019050919050565b6000602082019050818103600083015262000b928162000b50565b9050919050565b62000ba481620003f2565b82525050565b600060208201905062000bc1600083018462000b99565b92915050565b6080516114dd62000be360003960006103d301526114dd6000f3fe608060405234801561001057600080fd5b50600436106100cf5760003560e01c8063395093511161008c57806395d89b411161006657806395d89b411461022a578063a457c2d714610248578063a9059cbb14610278578063dd62ed3e146102a8576100cf565b806339509351146101ac57806370a08231146101dc5780638da5cb5b1461020c576100cf565b806306fdde03146100d4578063095ea7b3146100f257806318160ddd1461012257806323b872dd14610140578063313ce56714610170578063355274ea1461018e575b600080fd5b6100dc6102d8565b6040516100e99190610d12565b60405180910390f35b61010c60048036038101906101079190610dcd565b61036a565b6040516101199190610e28565b60405180910390f35b61012a61038d565b6040516101379190610e52565b60405180910390f35b61015a60048036038101906101559190610e6d565b610397565b6040516101679190610e28565b60405180910390f35b6101786103c6565b6040516101859190610edc565b60405180910390f35b6101966103cf565b6040516101a39190610e52565b60405180910390f35b6101c660048036038101906101c19190610dcd565b6103f7565b6040516101d39190610e28565b60405180910390f35b6101f660048036038101906101f19190610ef7565b61042e565b6040516102039190610e52565b60405180910390f35b610214610476565b6040516102219190610f45565b60405180910390f35b61023261049c565b60405161023f9190610d12565b60405180910390f35b610262600480360381019061025d9190610dcd565b61052e565b60405161026f9190610e28565b60405180910390f35b610292600480360381019061028d9190610dcd565b6105a5565b60405161029f9190610e28565b60405180910390f35b6102c260048036038101906102bd9190610f60565b6105c8565b6040516102cf9190610e52565b60405180910390f35b6060600380546102e790610fcf565b80601f016020809104026020016040519081016040528092919081815260200182805461031390610fcf565b80156103605780601f1061033557610100808354040283529160200191610360565b820191906000526020600020905b81548152906001019060200180831161034357829003601f168201915b5050505050905090565b6000806103756107a5565b90506103828185856107ad565b600191505092915050565b6000600254905090565b6000806103a26107a5565b90506103af858285610976565b6103ba858585610a02565b60019150509392505050565b60006012905090565b60007f0000000000000000000000000000000000000000000000000000000000000000905090565b6000806104026107a5565b905061042381858561041485896105c8565b61041e919061102f565b6107ad565b600191505092915050565b60008060008373ffffffffffffffffffffffffffffffffffffffff1673ffffffffffffffffffffffffffffffffffffffff168152602001908152602001600020549050919050565b600560009054906101000a900473ffffffffffffffffffffffffffffffffffffffff1681565b6060600480546104ab90610fcf565b80601f01602080910402602001604051908101604052809291908181526020018280546104d790610fcf565b80156105245780601f106104f957610100808354040283529160200191610524565b820191906000526020600020905b81548152906001019060200180831161050757829003601f168201915b5050505050905090565b6000806105396107a5565b9050600061054782866105c8565b90508381101561058c576040517f08c379a0000000000000000000000000000000000000000000000000000000008152600401610583906110d5565b60405180910390fd5b61059982868684036107ad565b60019250505092915050565b6000806105b06107a5565b90506105bd818585610a02565b600191505092915050565b6000600160008473ffffffffffffffffffffffffffffffffffffffff1673ffffffffffffffffffffffffffffffffffffffff16815260200190815260200160002060008373ffffffffffffffffffffffffffffffffffffffff1673ffffffffffffffffffffffffffffffffffffffff16815260200190815260200160002054905092915050565b600073ffffffffffffffffffffffffffffffffffffffff168273ffffffffffffffffffffffffffffffffffffffff16036106be576040517f08c379a00000000000000000000000000000000000000000000000000000000081526004016106b590611141565b60405180910390fd5b6106ca60008383610c78565b80600260008282546106dc919061102f565b92505081905550806000808473ffffffffffffffffffffffffffffffffffffffff1673ffffffffffffffffffffffffffffffffffffffff168152602001908152602001600020600082825401925050819055508173ffffffffffffffffffffffffffffffffffffffff16600073ffffffffffffffffffffffffffffffffffffffff167fddf252ad1be2c89b69c2b068fc378daa952ba7f163c4a11628f55a4df523b3ef8360405161078d9190610e52565b60405180910390a36107a160008383610c7d565b5050565b600033905090565b600073ffffffffffffffffffffffffffffffffffffffff168373ffffffffffffffffffffffffffffffffffffffff160361081c576040517f08c379a0000000000000000000000000000000000000000000000000000000008152600401610813906111d3565b60405180910390fd5b600073ffffffffffffffffffffffffffffffffffffffff168273ffffffffffffffffffffffffffffffffffffffff160361088b576040517f08c379a000000000000000000000000000000000000000000000000000000000815260040161088290611265565b60405180910390fd5b80600160008573ffffffffffffffffffffffffffffffffffffffff1673ffffffffffffffffffffffffffffffffffffffff16815260200190815260200160002060008473ffffffffffffffffffffffffffffffffffffffff1673ffffffffffffffffffffffffffffffffffffffff168152602001908152602001600020819055508173ffffffffffffffffffffffffffffffffffffffff168373ffffffffffffffffffffffffffffffffffffffff167f8c5be1e5ebec7d5bd14f71427d1e84f3dd0314c0f7b2291e5b200ac8c7c3b925836040516109699190610e52565b60405180910390a3505050565b600061098284846105c8565b90507fffffffffffffffffffffffffffffffffffffffffffffffffffffffffffffffff81146109fc57818110156109ee576040517f08c379a00000000000000000000000000000000000000000000000000000000081526004016109e5906112d1565b60405180910390fd5b6109fb84848484036107ad565b5b50505050565b600073ffffffffffffffffffffffffffffffffffffffff168373ffffffffffffffffffffffffffffffffffffffff1603610a71576040517f08c379a0000000000000000000000000000000000000000000000000000000008152600401610a6890611363565b60405180910390fd5b600073ffffffffffffffffffffffffffffffffffffffff168273ffffffffffffffffffffffffffffffffffffffff1603610ae0576040517f08c379a0000000000000000000000000000000000000000000000000000000008152600401610ad7906113f5565b60405180910390fd5b610aeb838383610c78565b60008060008573ffffffffffffffffffffffffffffffffffffffff1673ffffffffffffffffffffffffffffffffffffffff16815260200190815260200160002054905081811015610b71576040517f08c379a0000000000000000000000000000000000000000000000000000000008152600401610b6890611487565b60405180910390fd5b8181036000808673ffffffffffffffffffffffffffffffffffffffff1673ffffffffffffffffffffffffffffffffffffffff16815260200190815260200160002081905550816000808573ffffffffffffffffffffffffffffffffffffffff1673ffffffffffffffffffffffffffffffffffffffff168152602001908152602001600020600082825401925050819055508273ffffffffffffffffffffffffffffffffffffffff168473ffffffffffffffffffffffffffffffffffffffff167fddf252ad1be2c89b69c2b068fc378daa952ba7f163c4a11628f55a4df523b3ef84604051610c5f9190610e52565b60405180910390a3610c72848484610c7d565b50505050565b505050565b505050565b600081519050919050565b600082825260208201905092915050565b60005b83811015610cbc578082015181840152602081019050610ca1565b60008484015250505050565b6000601f19601f8301169050919050565b6000610ce482610c82565b610cee8185610c8d565b9350610cfe818560208601610c9e565b610d0781610cc8565b840191505092915050565b60006020820190508181036000830152610d2c8184610cd9565b905092915050565b600080fd5b600073ffffffffffffffffffffffffffffffffffffffff82169050919050565b6000610d6482610d39565b9050919050565b610d7481610d59565b8114610d7f57600080fd5b50565b600081359050610d9181610d6b565b92915050565b6000819050919050565b610daa81610d97565b8114610db557600080fd5b50565b600081359050610dc781610da1565b92915050565b60008060408385031215610de457610de3610d34565b5b6000610df285828601610d82565b9250506020610e0385828601610db8565b9150509250929050565b60008115159050919050565b610e2281610e0d565b82525050565b6000602082019050610e3d6000830184610e19565b92915050565b610e4c81610d97565b82525050565b6000602082019050610e676000830184610e43565b92915050565b600080600060608486031215610e8657610e85610d34565b5b6000610e9486828701610d82565b9350506020610ea586828701610d82565b9250506040610eb686828701610db8565b9150509250925092565b600060ff82169050919050565b610ed681610ec0565b82525050565b6000602082019050610ef16000830184610ecd565b92915050565b600060208284031215610f0d57610f0c610d34565b5b6000610f1b84828501610d82565b91505092915050565b6000610f2f82610d39565b9050919050565b610f3f81610f24565b82525050565b6000602082019050610f5a6000830184610f36565b92915050565b60008060408385031215610f7757610f76610d34565b5b6000610f8585828601610d82565b9250506020610f9685828601610d82565b9150509250929050565b7f4e487b7100000000000000000000000000000000000000000000000000000000600052602260045260246000fd5b60006002820490506001821680610fe757607f821691505b602082108103610ffa57610ff9610fa0565b5b50919050565b7f4e487b7100000000000000000000000000000000000000000000000000000000600052601160045260246000fd5b600061103a82610d97565b915061104583610d97565b925082820190508082111561105d5761105c611000565b5b92915050565b7f45524332303a2064656372656173656420616c6c6f77616e63652062656c6f7760008201527f207a65726f000000000000000000000000000000000000000000000000000000602082015250565b60006110bf602583610c8d565b91506110ca82611063565b604082019050919050565b600060208201905081810360008301526110ee816110b2565b9050919050565b7f45524332303a206d696e7420746f20746865207a65726f206164647265737300600082015250565b600061112b601f83610c8d565b9150611136826110f5565b602082019050919050565b6000602082019050818103600083015261115a8161111e565b9050919050565b7f45524332303a20617070726f76652066726f6d20746865207a65726f2061646460008201527f7265737300000000000000000000000000000000000000000000000000000000602082015250565b60006111bd602483610c8d565b91506111c882611161565b604082019050919050565b600060208201905081810360008301526111ec816111b0565b9050919050565b7f45524332303a20617070726f766520746f20746865207a65726f20616464726560008201527f7373000000000000000000000000000000000000000000000000000000000000602082015250565b600061124f602283610c8d565b915061125a826111f3565b604082019050919050565b6000602082019050818103600083015261127e81611242565b9050919050565b7f45524332303a20696e73756666696369656e7420616c6c6f77616e6365000000600082015250565b60006112bb601d83610c8d565b91506112c682611285565b602082019050919050565b600060208201905081810360008301526112ea816112ae565b9050919050565b7f45524332303a207472616e736665722066726f6d20746865207a65726f20616460008201527f6472657373000000000000000000000000000000000000000000000000000000602082015250565b600061134d602583610c8d565b9150611358826112f1565b604082019050919050565b6000602082019050818103600083015261137c81611340565b9050919050565b7f45524332303a207472616e7366657220746f20746865207a65726f206164647260008201527f6573730000000000000000000000000000000000000000000000000000000000602082015250565b60006113df602383610c8d565b91506113ea82611383565b604082019050919050565b6000602082019050818103600083015261140e816113d2565b9050919050565b7f45524332303a207472616e7366657220616d6f756e742065786365656473206260008201527f616c616e63650000000000000000000000000000000000000000000000000000602082015250565b6000611471602683610c8d565b915061147c82611415565b604082019050919050565b600060208201905081810360008301526114a081611464565b905091905056fea264697066735822122007c53d129db0da3150fd0dace6a992cea7ad0cc48660e628393895edf46e8df464736f6c63430008110033",
  "linkReferences": {},
  "deployedLinkReferences": {}
}