{
  "_format": "hh-sol-artifact-1",
  "contractName": "Lending",
  "sourceName": "contracts/investments.sol",
  "abi": [
    {
      "inputs": [],
      "stateMutability": "nonpayable",
      "type": "constructor"
    },
    {
      "inputs": [
        {
          "internalType": "uint256",
          "name": "percToBuy",
          "type": "uint256"
        }
      ],
      "name": "buyEQuity",
      "outputs": [],
      "stateMutability": "nonpayable",
      "type": "function"
    },
    {
      "inputs": [],
      "name": "checkEquityValue",
      "outputs": [
        {
          "internalType": "uint256",
          "name": "",
          "type": "uint256"
        }
      ],
      "stateMutability": "nonpayable",
      "type": "function"
    },
    {
      "inputs": [
        {
          "internalType": "address",
          "name": "walletAddress",
          "type": "address"
        }
      ],
      "name": "deposit",
      "outputs": [],
      "stateMutability": "payable",
      "type": "function"
    },
    {
      "inputs": [],
      "name": "getAllContractors",
      "outputs": [],
      "stateMutability": "nonpayable",
      "type": "function"
    },
    {
      "inputs": [],
      "name": "getAllInvestors",
      "outputs": [],
      "stateMutability": "nonpayable",
      "type": "function"
    },
    {
      "inputs": [],
      "name": "getTotalInvestmentPrincipleValue",
      "outputs": [],
      "stateMutability": "nonpayable",
      "type": "function"
    },
    {
      "inputs": [],
      "name": "getTotalREvenueGenerated",
      "outputs": [],
      "stateMutability": "nonpayable",
      "type": "function"
    },
    {
      "inputs": [
        {
          "internalType": "uint256",
          "name": "percToSell",
          "type": "uint256"
        }
      ],
      "name": "sellEquity",
      "outputs": [],
      "stateMutability": "nonpayable",
      "type": "function"
    },
    {
      "inputs": [
        {
          "internalType": "uint256",
          "name": "amountToWithdraw",
          "type": "uint256"
        }
      ],
      "name": "withdrawFunds",
      "outputs": [],
      "stateMutability": "nonpayable",
      "type": "function"
    }
  ],
  "bytecode": "0x608060405234801561001057600080fd5b50600033905050610315806100266000396000f3fe6080604052600436106100865760003560e01c80635a531aa2116100595780635a531aa21461011f5780636ab0bd4c14610136578063b8df14571461014d578063d0a2f2c414610176578063f340fa011461018d57610086565b8063155dd5ee1461008b578063249d5d89146100b4578063497b39e9146100df57806351631e84146100f6575b600080fd5b34801561009757600080fd5b506100b260048036038101906100ad91906101fd565b6101a9565b005b3480156100c057600080fd5b506100c96101ac565b6040516100d69190610239565b60405180910390f35b3480156100eb57600080fd5b506100f46101b1565b005b34801561010257600080fd5b5061011d600480360381019061011891906101fd565b6101b3565b005b34801561012b57600080fd5b506101346101b6565b005b34801561014257600080fd5b5061014b6101b8565b005b34801561015957600080fd5b50610174600480360381019061016f91906101fd565b6101ba565b005b34801561018257600080fd5b5061018b6101bd565b005b6101a760048036038101906101a291906102b2565b6101bf565b005b50565b600090565b565b50565b565b565b50565b565b50565b600080fd5b6000819050919050565b6101da816101c7565b81146101e557600080fd5b50565b6000813590506101f7816101d1565b92915050565b600060208284031215610213576102126101c2565b5b6000610221848285016101e8565b91505092915050565b610233816101c7565b82525050565b600060208201905061024e600083018461022a565b92915050565b600073ffffffffffffffffffffffffffffffffffffffff82169050919050565b600061027f82610254565b9050919050565b61028f81610274565b811461029a57600080fd5b50565b6000813590506102ac81610286565b92915050565b6000602082840312156102c8576102c76101c2565b5b60006102d68482850161029d565b9150509291505056fea2646970667358221220db2b21c589c912b9030fe9cbadfa857bd5446b15437d93b6dd810b9d562b56f464736f6c63430008110033",
  "linkReferences": {},
  "deployedLinkReferences": {}
}