{
  "abi": [
    {
      "inputs": [],
      "stateMutability": "nonpayable",
      "type": "constructor"
    },
    {
      "inputs": [
        {
          "internalType": "uint256",
          "name": "percToBuy",
          "type": "uint256"
        }
      ],
      "name": "buyEquity",
      "outputs": [],
      "stateMutability": "nonpayable",
      "type": "function"
    },
    {
      "inputs": [],
      "name": "checkEquityValue",
      "outputs": [
        {
          "internalType": "uint256",
          "name": "",
          "type": "uint256"
        }
      ],
      "stateMutability": "nonpayable",
      "type": "function"
    },
    {
      "inputs": [
        {
          "internalType": "address",
          "name": "walletAddress",
          "type": "address"
        }
      ],
      "name": "deposit",
      "outputs": [],
      "stateMutability": "payable",
      "type": "function"
    },
    {
      "inputs": [],
      "name": "getAllContractors",
      "outputs": [],
      "stateMutability": "nonpayable",
      "type": "function"
    },
    {
      "inputs": [],
      "name": "getAllInvestors",
      "outputs": [],
      "stateMutability": "nonpayable",
      "type": "function"
    },
    {
      "inputs": [],
      "name": "getTotalInvestmentPrincipleValue",
      "outputs": [],
      "stateMutability": "nonpayable",
      "type": "function"
    },
    {
      "inputs": [],
      "name": "getTotalREvenueGenerated",
      "outputs": [],
      "stateMutability": "nonpayable",
      "type": "function"
    },
    {
      "inputs": [],
      "name": "owner",
      "outputs": [
        {
          "internalType": "address",
          "name": "",
          "type": "address"
        }
      ],
      "stateMutability": "view",
      "type": "function"
    },
    {
      "inputs": [
        {
          "internalType": "uint256",
          "name": "percToSell",
          "type": "uint256"
        }
      ],
      "name": "sellEquity",
      "outputs": [],
      "stateMutability": "nonpayable",
      "type": "function"
    },
    {
      "inputs": [
        {
          "internalType": "uint256",
          "name": "amountToWithdraw",
          "type": "uint256"
        }
      ],
      "name": "withdrawFunds",
      "outputs": [],
      "stateMutability": "nonpayable",
      "type": "function"
    }
  ],
  "bytecode": {
    "object": "0x608060405234801561001057600080fd5b50600080546001600160a01b031916331790556101a8806100326000396000f3fe6080604052600436106100915760003560e01c80636ab0bd4c116100595780636ab0bd4c146100d75780637176e1a5146100965780638da5cb5b146100e3578063d0a2f2c4146100d7578063f340fa011461011b57600080fd5b8063155dd5ee14610096578063249d5d89146100b6578063497b39e9146100d757806351631e84146100965780635a531aa2146100d7575b600080fd5b3480156100a257600080fd5b506100b46100b1366004610129565b50565b005b3480156100c257600080fd5b50604051600081526020015b60405180910390f35b3480156100b457600080fd5b3480156100ef57600080fd5b50600054610103906001600160a01b031681565b6040516001600160a01b0390911681526020016100ce565b6100b46100b1366004610142565b60006020828403121561013b57600080fd5b5035919050565b60006020828403121561015457600080fd5b81356001600160a01b038116811461016b57600080fd5b939250505056fea2646970667358221220d8bde4f5ea20bfc8a7c7a6348e9872ab2668872afc8b14aac13eb984831a5a2164736f6c63430008130033",
    "linkReferences": {}
  },
  "methodIdentifiers": {
    "buyEquity(uint256)": "7176e1a5",
    "checkEquityValue()": "249d5d89",
    "deposit(address)": "f340fa01",
    "getAllContractors()": "6ab0bd4c",
    "getAllInvestors()": "d0a2f2c4",
    "getTotalInvestmentPrincipleValue()": "5a531aa2",
    "getTotalREvenueGenerated()": "497b39e9",
    "owner()": "8da5cb5b",
    "sellEquity(uint256)": "51631e84",
    "withdrawFunds(uint256)": "155dd5ee"
  },
  "id": 82
}