{
  "abi": [
    {
      "inputs": [],
      "stateMutability": "nonpayable",
      "type": "constructor"
    },
    {
      "anonymous": false,
      "inputs": [
        {
          "indexed": false,
          "internalType": "address payable",
          "name": "lender",
          "type": "address"
        },
        {
          "indexed": false,
          "internalType": "address payable",
          "name": "lendee",
          "type": "address"
        },
        {
          "indexed": false,
          "internalType": "uint256",
          "name": "loanAmountLeft",
          "type": "uint256"
        },
        {
          "indexed": false,
          "internalType": "uint256",
          "name": "totalReceivedAmount",
          "type": "uint256"
        },
        {
          "indexed": false,
          "internalType": "uint256",
          "name": "principleLoanPayed",
          "type": "uint256"
        },
        {
          "indexed": false,
          "internalType": "bool",
          "name": "LoanRepaid",
          "type": "bool"
        }
      ],
      "name": "InstallmentRepaid",
      "type": "event"
    },
    {
      "anonymous": false,
      "inputs": [
        {
          "indexed": false,
          "internalType": "address payable",
          "name": "lender",
          "type": "address"
        },
        {
          "indexed": false,
          "internalType": "address payable",
          "name": "lendee",
          "type": "address"
        },
        {
          "indexed": false,
          "internalType": "uint256",
          "name": "interestLeft",
          "type": "uint256"
        },
        {
          "indexed": false,
          "internalType": "uint256",
          "name": "InterestRepaid",
          "type": "uint256"
        },
        {
          "indexed": false,
          "internalType": "uint256",
          "name": "totalReceivedAmount",
          "type": "uint256"
        }
      ],
      "name": "InterestRepaid",
      "type": "event"
    },
    {
      "anonymous": false,
      "inputs": [
        {
          "indexed": false,
          "internalType": "address payable",
          "name": "lendee",
          "type": "address"
        },
        {
          "indexed": false,
          "internalType": "address payable",
          "name": "lender",
          "type": "address"
        },
        {
          "indexed": false,
          "internalType": "uint256",
          "name": "loanAmount",
          "type": "uint256"
        }
      ],
      "name": "Lended",
      "type": "event"
    },
    {
      "anonymous": false,
      "inputs": [
        {
          "indexed": false,
          "internalType": "string",
          "name": "message",
          "type": "string"
        },
        {
          "indexed": false,
          "internalType": "uint256",
          "name": "loanId",
          "type": "uint256"
        },
        {
          "indexed": false,
          "internalType": "address payable",
          "name": "lender",
          "type": "address"
        },
        {
          "indexed": false,
          "internalType": "address payable",
          "name": "lendee",
          "type": "address"
        },
        {
          "indexed": false,
          "internalType": "uint256",
          "name": "loanAmount",
          "type": "uint256"
        },
        {
          "indexed": false,
          "internalType": "uint256",
          "name": "interestRate",
          "type": "uint256"
        },
        {
          "indexed": false,
          "internalType": "uint256",
          "name": "loanPeriod",
          "type": "uint256"
        },
        {
          "indexed": false,
          "internalType": "uint256",
          "name": "loanInstallmentPeriod",
          "type": "uint256"
        },
        {
          "indexed": false,
          "internalType": "uint256",
          "name": "installmentAmount",
          "type": "uint256"
        }
      ],
      "name": "LoanCreated",
      "type": "event"
    },
    {
      "anonymous": false,
      "inputs": [
        {
          "indexed": false,
          "internalType": "address payable",
          "name": "lender",
          "type": "address"
        },
        {
          "indexed": false,
          "internalType": "address payable",
          "name": "lendee",
          "type": "address"
        }
      ],
      "name": "LoanDefaulted",
      "type": "event"
    },
    {
      "anonymous": false,
      "inputs": [
        {
          "indexed": false,
          "internalType": "address payable",
          "name": "lender",
          "type": "address"
        },
        {
          "indexed": false,
          "internalType": "address payable",
          "name": "lendee",
          "type": "address"
        }
      ],
      "name": "LoanLate",
      "type": "event"
    },
    {
      "anonymous": false,
      "inputs": [
        {
          "indexed": false,
          "internalType": "address payable",
          "name": "lender",
          "type": "address"
        },
        {
          "indexed": false,
          "internalType": "address payable",
          "name": "lendee",
          "type": "address"
        },
        {
          "indexed": false,
          "internalType": "uint256",
          "name": "interestPayed",
          "type": "uint256"
        },
        {
          "indexed": false,
          "internalType": "uint256",
          "name": "principleLoanPayed",
          "type": "uint256"
        }
      ],
      "name": "LoanRepaidInFull",
      "type": "event"
    },
    {
      "anonymous": false,
      "inputs": [
        {
          "indexed": false,
          "internalType": "uint256",
          "name": "loanId",
          "type": "uint256"
        },
        {
          "indexed": false,
          "internalType": "uint256",
          "name": "amountLeft",
          "type": "uint256"
        }
      ],
      "name": "amountLeft",
      "type": "event"
    },
    {
      "anonymous": false,
      "inputs": [
        {
          "indexed": false,
          "internalType": "string",
          "name": "basicString",
          "type": "string"
        }
      ],
      "name": "basicString",
      "type": "event"
    },
    {
      "anonymous": false,
      "inputs": [
        {
          "indexed": false,
          "internalType": "uint256",
          "name": "blank",
          "type": "uint256"
        }
      ],
      "name": "emitUint",
      "type": "event"
    },
    {
      "anonymous": false,
      "inputs": [
        {
          "indexed": false,
          "internalType": "string",
          "name": "message",
          "type": "string"
        },
        {
          "indexed": false,
          "internalType": "uint256[]",
          "name": "_loanIds",
          "type": "uint256[]"
        },
        {
          "indexed": false,
          "internalType": "uint256[]",
          "name": "loanIds",
          "type": "uint256[]"
        }
      ],
      "name": "myActiveLoans",
      "type": "event"
    },
    {
      "anonymous": false,
      "inputs": [
        {
          "indexed": false,
          "internalType": "string",
          "name": "message",
          "type": "string"
        },
        {
          "indexed": false,
          "internalType": "address",
          "name": "scAddress",
          "type": "address"
        }
      ],
      "name": "thisSCAddress",
      "type": "event"
    },
    {
      "inputs": [],
      "name": "balanceOf",
      "outputs": [
        {
          "internalType": "uint256",
          "name": "",
          "type": "uint256"
        }
      ],
      "stateMutability": "view",
      "type": "function"
    },
    {
      "inputs": [
        {
          "internalType": "uint256",
          "name": "loanId",
          "type": "uint256"
        }
      ],
      "name": "checkPaidBalance",
      "outputs": [
        {
          "internalType": "uint256",
          "name": "",
          "type": "uint256"
        }
      ],
      "stateMutability": "nonpayable",
      "type": "function"
    },
    {
      "inputs": [
        {
          "internalType": "address payable",
          "name": "_lendee",
          "type": "address"
        },
        {
          "internalType": "address payable",
          "name": "_lender",
          "type": "address"
        },
        {
          "internalType": "uint256",
          "name": "_loanAmount",
          "type": "uint256"
        },
        {
          "internalType": "uint256",
          "name": "_interestRate",
          "type": "uint256"
        },
        {
          "internalType": "uint256",
          "name": "_loanPeriod",
          "type": "uint256"
        },
        {
          "internalType": "uint256",
          "name": "_loanInstallmentPeriod",
          "type": "uint256"
        }
      ],
      "name": "createLoan",
      "outputs": [],
      "stateMutability": "nonpayable",
      "type": "function"
    },
    {
      "inputs": [
        {
          "internalType": "uint256",
          "name": "loanId",
          "type": "uint256"
        }
      ],
      "name": "defaultLoan",
      "outputs": [],
      "stateMutability": "nonpayable",
      "type": "function"
    },
    {
      "inputs": [
        {
          "internalType": "address",
          "name": "walletAddress",
          "type": "address"
        }
      ],
      "name": "deposit",
      "outputs": [],
      "stateMutability": "payable",
      "type": "function"
    },
    {
      "inputs": [],
      "name": "getMyActiveLoans",
      "outputs": [],
      "stateMutability": "nonpayable",
      "type": "function"
    },
    {
      "inputs": [],
      "name": "getThisSmartContractAddress",
      "outputs": [],
      "stateMutability": "nonpayable",
      "type": "function"
    },
    {
      "inputs": [
        {
          "internalType": "uint256",
          "name": "loanId",
          "type": "uint256"
        }
      ],
      "name": "lendLoan",
      "outputs": [],
      "stateMutability": "payable",
      "type": "function"
    },
    {
      "inputs": [],
      "name": "owner",
      "outputs": [
        {
          "internalType": "address",
          "name": "",
          "type": "address"
        }
      ],
      "stateMutability": "view",
      "type": "function"
    },
    {
      "inputs": [
        {
          "internalType": "uint256",
          "name": "loanId",
          "type": "uint256"
        }
      ],
      "name": "remainingInterestBalance",
      "outputs": [],
      "stateMutability": "nonpayable",
      "type": "function"
    },
    {
      "inputs": [
        {
          "internalType": "uint256",
          "name": "loanId",
          "type": "uint256"
        }
      ],
      "name": "remainingLoanBalance",
      "outputs": [],
      "stateMutability": "nonpayable",
      "type": "function"
    },
    {
      "inputs": [
        {
          "internalType": "uint256",
          "name": "loanId",
          "type": "uint256"
        }
      ],
      "name": "remainingTimeForLoan",
      "outputs": [],
      "stateMutability": "nonpayable",
      "type": "function"
    },
    {
      "inputs": [
        {
          "internalType": "uint256",
          "name": "loanId",
          "type": "uint256"
        }
      ],
      "name": "repayCustAmountLoan",
      "outputs": [],
      "stateMutability": "payable",
      "type": "function"
    },
    {
      "inputs": [
        {
          "internalType": "uint256",
          "name": "loanId",
          "type": "uint256"
        }
      ],
      "name": "repayInstallment",
      "outputs": [],
      "stateMutability": "payable",
      "type": "function"
    },
    {
      "inputs": [
        {
          "internalType": "uint256",
          "name": "loanId",
          "type": "uint256"
        }
      ],
      "name": "repayInterest",
      "outputs": [],
      "stateMutability": "payable",
      "type": "function"
    }
  ],
  "bytecode": {
    "object": "0x608060405234801561001057600080fd5b50600480546001600160a01b031916331790556000600355612c52806100376000396000f3fe6080604052600436106100e85760003560e01c806367bf61c41161008a578063a19b1ebc11610059578063a19b1ebc14610232578063caafa91214610252578063d2285f0914610272578063f340fa011461028557600080fd5b806367bf61c41461019d578063722713f7146101bd5780637a9f7be1146101e55780638da5cb5b146101fa57600080fd5b80630c1888e4116100c65780630c1888e4146101425780631cd083e41461015557806339c6109014610175578063627ea6641461018857600080fd5b806305cd86bc146100ed57806306639ad4146101025780630bf5b2d614610122575b600080fd5b6101006100fb366004612864565b610296565b005b34801561010e57600080fd5b5061010061011d366004612864565b610832565b34801561012e57600080fd5b5061010061013d366004612864565b6108f6565b610100610150366004612864565b61099f565b34801561016157600080fd5b50610100610170366004612892565b610bda565b610100610183366004612864565b61140a565b34801561019457600080fd5b506101006115e7565b3480156101a957600080fd5b506101006101b8366004612864565b611661565b3480156101c957600080fd5b506101d2611738565b6040519081526020015b60405180910390f35b3480156101f157600080fd5b50610100611757565b34801561020657600080fd5b5060045461021a906001600160a01b031681565b6040516001600160a01b0390911681526020016101dc565b34801561023e57600080fd5b506101d261024d366004612864565b611974565b34801561025e57600080fd5b5061010061026d366004612864565b6119ee565b610100610280366004612864565b611a97565b6101006102933660046128eb565b50565b60006102a233836123ec565b90506001811515146102b357600080fd5b600082815481106102c6576102c661290f565b9060005260206000209060160201600d01544211156103e0576040516319efd87160e21b81526004810183905230906367bf61c490602401600060405180830381600087803b15801561031857600080fd5b505af115801561032c573d6000803e3d6000fd5b505050507f21006b857376c379dde3f87740e333147dbf9fe31aec32d37ddb228af0a3cd49600083815481106103645761036461290f565b6000918252602082206001601690920201015481546001600160a01b039091169190859081106103965761039661290f565b60009182526020909120601690910201546040516103d392916001600160a01b0316906001600160a01b0392831681529116602082015260400190565b60405180910390a1610569565b600082815481106103f3576103f361290f565b90600052602060002090601602016015015434116105695760405163f340fa0160e01b815230600482018190529063f340fa0190602401600060405180830381600087803b15801561044457600080fd5b505af1158015610458573d6000803e3d6000fd5b505050506000828154811061046f5761046f61290f565b600091825260208220600160169092020101546040516001600160a01b03909116913480156108fc02929091818181858888f193505050501580156104b8573d6000803e3d6000fd5b5034600083815481106104cd576104cd61290f565b906000526020600020906016020160080160008282546104ed919061293b565b9250508190555034600083815481106105085761050861290f565b90600052602060002090601602016015016000828254610528919061294e565b9250508190555034600083815481106105435761054361290f565b90600052602060002090601602016005016000828254610563919061293b565b90915550505b6000828154811061057c5761057c61290f565b906000526020600020906016020160040154600014806105c05750600082815481106105aa576105aa61290f565b9060005260206000209060160201601501546000145b15610702576001600083815481106105da576105da61290f565b9060005260206000209060160201600e0160006101000a81548160ff0219169083151502179055507f374391e4ee875ecb8cb35556bf894ef988afe39d871d122f5df72042b0b00063600083815481106106365761063661290f565b6000918252602082206001601690920201015481546001600160a01b039091169190859081106106685761066861290f565b6000918252602082206016909102015481546001600160a01b039091169190869081106106975761069761290f565b906000526020600020906016020160080154600086815481106106bc576106bc61290f565b600091825260209182902060076016909202010154604080516001600160a01b039687168152959094169185019190915291830152606082015260800160405180910390a15b7f6792eda5573710748e2cddfaccba32c112d05d1bf88bc3a2ff2faed942b7208c600083815481106107365761073661290f565b6000918252602082206001601690920201015481546001600160a01b039091169190859081106107685761076861290f565b6000918252602082206016909102015481546001600160a01b039091169190869081106107975761079761290f565b906000526020600020906016020160150154600086815481106107bc576107bc61290f565b906000526020600020906016020160080154600087815481106107e1576107e161290f565b600091825260209182902060056016909202010154604080516001600160a01b0397881681529690951691860191909152928401919091526060830152608082015260a00160405180910390a15050565b600061083e33836123ec565b9050600061084c33846124c8565b90506001821515148061086157506001811515145b6108865760405162461bcd60e51b815260040161087d90612961565b60405180910390fd5b7f790907c37077c270dc37b4c54b5b60688782c3df192441b656af96ef25c57d3c8342600086815481106108bc576108bc61290f565b9060005260206000209060160201600d01546108d8919061294e565b604080519283526020830191909152015b60405180910390a1505050565b600061090233836123ec565b9050600061091033846124c8565b90506001821515148061092557506001811515145b6109415760405162461bcd60e51b815260040161087d90612961565b7f790907c37077c270dc37b4c54b5b60688782c3df192441b656af96ef25c57d3c83600085815481106109765761097661290f565b9060005260206000209060160201601501546040516108e9929190918252602082015260400190565b600081815481106109b2576109b261290f565b60009182526020909120601690910201600101546001600160a01b031633146109da57600080fd5b600081815481106109ed576109ed61290f565b906000526020600020906016020160030154341015610a0b57600080fd5b600454600160a01b900460ff161515600114610a2657600080fd5b60405163f340fa0160e01b815230600482018190529063f340fa0190602401600060405180830381600087803b158015610a5f57600080fd5b505af1158015610a73573d6000803e3d6000fd5b5050505060008181548110610a8a57610a8a61290f565b6000918252602082206016909102015481546001600160a01b03909116916108fc9184908110610abc57610abc61290f565b9060005260206000209060160201600301549081150290604051600060405180830381858888f19350505050158015610af9573d6000803e3d6000fd5b507f07fa3745b9e8f17098173872a5be345c09acc1337ca03d054e7b9b5944b6d22660008281548110610b2e57610b2e61290f565b6000918252602082206016909102015481546001600160a01b03909116919084908110610b5d57610b5d61290f565b6000918252602082206001601690920201015481546001600160a01b03909116919085908110610b8f57610b8f61290f565b906000526020600020906016020160030154604051610bcf939291906001600160a01b039384168152919092166020820152604081019190915260600190565b60405180910390a150565b336001600160a01b03861614610bef57600080fd5b60008411610bfc57600080fd5b600083118015610c0d575060648311155b610c1657600080fd5b60008211610c2357600080fd5b610cea604051806102e0016040528060006001600160a01b0316815260200160006001600160a01b03168152602001600081526020016000815260200160008152602001600081526020016000815260200160008152602001600081526020016000815260200160008152602001600081526020016000815260200160008152602001600015158152602001600015158152602001600081526020016000815260200160008152602001600081526020016000815260200160008152602001600081525090565b600380546040830181905260019190600090610d0790849061293b565b90915550506001600160a01b0386166020820152606081018590526101208101849052610140810183905261016081018290526102a08101829052610d4c82866129a5565b610260820152426101808201819052610d6690849061293b565b6101a08201526064610d7885876129c7565b610d8291906129a5565b60c082018181526102c0830191825260808301878152600060a0850181815260e08601828152610100808801848152426102808a0190815285546001810187558680528a5160169091027f290decd9548b62a8d60345a988386fc84ba6bc95484008f6362f93160ef3e563810180546001600160a01b039384166001600160a01b03199182161790915560208d01517f290decd9548b62a8d60345a988386fc84ba6bc95484008f6362f93160ef3e564830180549190941691161790915560408b01517f290decd9548b62a8d60345a988386fc84ba6bc95484008f6362f93160ef3e56582015560608b01517f290decd9548b62a8d60345a988386fc84ba6bc95484008f6362f93160ef3e56682015596517f290decd9548b62a8d60345a988386fc84ba6bc95484008f6362f93160ef3e56788015593517f290decd9548b62a8d60345a988386fc84ba6bc95484008f6362f93160ef3e56887015595517f290decd9548b62a8d60345a988386fc84ba6bc95484008f6362f93160ef3e56986015590517f290decd9548b62a8d60345a988386fc84ba6bc95484008f6362f93160ef3e56a85015593517f290decd9548b62a8d60345a988386fc84ba6bc95484008f6362f93160ef3e56b8401556101208601517f290decd9548b62a8d60345a988386fc84ba6bc95484008f6362f93160ef3e56c8401556101408601517f290decd9548b62a8d60345a988386fc84ba6bc95484008f6362f93160ef3e56d8401556101608601517f290decd9548b62a8d60345a988386fc84ba6bc95484008f6362f93160ef3e56e8401556101808601517f290decd9548b62a8d60345a988386fc84ba6bc95484008f6362f93160ef3e56f8401556101a08601517f290decd9548b62a8d60345a988386fc84ba6bc95484008f6362f93160ef3e5708401556101c08601517f290decd9548b62a8d60345a988386fc84ba6bc95484008f6362f93160ef3e571840180546101e0890151151590960261ff00199215159290921661ffff1990961695909517179093556102008501517f290decd9548b62a8d60345a988386fc84ba6bc95484008f6362f93160ef3e5728301556102208501517f290decd9548b62a8d60345a988386fc84ba6bc95484008f6362f93160ef3e5738301556102408501517f290decd9548b62a8d60345a988386fc84ba6bc95484008f6362f93160ef3e5748301556102608501517f290decd9548b62a8d60345a988386fc84ba6bc95484008f6362f93160ef3e57583015591517f290decd9548b62a8d60345a988386fc84ba6bc95484008f6362f93160ef3e5768201556102a08401517f290decd9548b62a8d60345a988386fc84ba6bc95484008f6362f93160ef3e57782015591517f290decd9548b62a8d60345a988386fc84ba6bc95484008f6362f93160ef3e578909201919091556004805460ff60a01b1916600160a01b1790556111b087612584565b905080633b9ac9ff146111fd57600281815481106111d0576111d061290f565b6000918252602080832060408601516001600290940290910183018054938401815584529220015561124a565b61120687612626565b600261121188612584565b815481106112215761122161290f565b600091825260208083206040860151600160029094029091018301805493840181558452922001555b6000611255896126d2565b905080633b9ac9ff146112a257600181815481106112755761127561290f565b600091825260208083206040870151600160029094029091018301805493840181558452922001556112ef565b6112ab8961275e565b60016112b68a6126d2565b815481106112c6576112c661290f565b600091825260208083206040870151600160029094029091018301805493840181558452922001555b6040808401516020850151855160608701516101208801516101408901516101608a01516102608b015197517fa6463d4ad3dd79dfcf518f44a256018f2e88772a5277ad1e6da9b5f4b148c01c986113f798979695949392916101208082526043908201527f506c6561736520777269746520646f776e20796f7572206c6f616e496420736f6101408201527f20796f752063616e206163636573732069742061742061206c61746572206461610160820152623a329760e91b61018082015260208101989098526001600160a01b039687166040890152949095166060870152608086019290925260a085015260c084015260e08301919091526101008201526101a00190565b60405180910390a1505050505050505050565b600061141633836123ec565b905060018115151461143a5760405162461bcd60e51b815260040161087d90612961565b346000838154811061144e5761144e61290f565b90600052602060002090601602016004015461146a919061294e565b6000838154811061147d5761147d61290f565b906000526020600020906016020160040181905550600082815481106114a5576114a561290f565b9060005260206000209060160201600f0154346114c2919061293b565b600083815481106114d5576114d561290f565b906000526020600020906016020160050160008282546114f5919061293b565b9250508190555034600083815481106115105761151061290f565b90600052602060002090601602016007016000828254611530919061293b565b909155505060405163f340fa0160e01b815230600482018190529063f340fa0190602401600060405180830381600087803b15801561156e57600080fd5b505af1158015611582573d6000803e3d6000fd5b50505050600082815481106115995761159961290f565b600091825260208220600160169092020101546040516001600160a01b03909116913480156108fc02929091818181858888f193505050501580156115e2573d6000803e3d6000fd5b505050565b60408051818152602a818301527f48657265206973207468652061646472657373206f66207468697320736d61726060820152691d0818dbdb9d1c9858dd60b21b608082015230602082015290517fedae38c413ed1abd60fbef78231d36535f0eb628d9251232ed9de38d0e8ed3349181900360a00190a1565b600081815481106116745761167461290f565b60009182526020909120600e601690920201015460ff161561169557600080fd5b7f21006b857376c379dde3f87740e333147dbf9fe31aec32d37ddb228af0a3cd49600082815481106116c9576116c961290f565b6000918252602082206001601690920201015481546001600160a01b039091169190849081106116fb576116fb61290f565b6000918252602090912060169091020154604051610bcf92916001600160a01b0316906001600160a01b0392831681529116602082015260400190565b6004546000906001600160a01b0316331461175257600080fd5b504790565b6060600061176433612584565b90506000611771336126d2565b905081633b9ac9ff14158061178a575080633b9ac9ff14155b61183f5760405162461bcd60e51b815260206004820152607460248201527f546869732061646472657373206973206e65697468657220636f6e6e6563746560448201527f6420746f2061206c656e646572206f72206c656e64656520696e206f7572206460648201527f617461626173653b206d616b65207375726520796f7520617265207573696e67608482015273103a34329031b7b93932b1ba103bb0b63632ba1760611b60a482015260c40161087d565b80633b9ac9ff0361189e577f852db8c01a3b84dc5c5190610b94aa9206f374629e207992428a6ef389d18c206002838154811061187e5761187e61290f565b9060005260206000209060020201600101846040516108e9929190612a4e565b81633b9ac9ff036118fd577f852db8c01a3b84dc5c5190610b94aa9206f374629e207992428a6ef389d18c20600182815481106118dd576118dd61290f565b9060005260206000209060020201600101846040516108e9929190612ac0565b7f852db8c01a3b84dc5c5190610b94aa9206f374629e207992428a6ef389d18c20600182815481106119315761193161290f565b9060005260206000209060020201600101600284815481106119555761195561290f565b90600052602060002090600202016001016040516108e9929190612b17565b60008061198133846123ec565b9050600061198f33856124c8565b9050600182151514806119a457506001811515145b6119c05760405162461bcd60e51b815260040161087d90612961565b600084815481106119d3576119d361290f565b90600052602060002090601602016005015492505050919050565b60006119fa33836123ec565b90506000611a0833846124c8565b905060018215151480611a1d57506001811515145b611a395760405162461bcd60e51b815260040161087d90612961565b7f790907c37077c270dc37b4c54b5b60688782c3df192441b656af96ef25c57d3c8360008581548110611a6e57611a6e61290f565b9060005260206000209060160201600401546040516108e9929190918252602082015260400190565b6000611aa333836123ec565b9050600181151514611ab457600080fd5b60008281548110611ac757611ac761290f565b906000526020600020906016020160120154341015611ae557600080fd5b6000808381548110611af957611af961290f565b90600052602060002090601602016013015442611b16919061294e565b905060008381548110611b2b57611b2b61290f565b9060005260206000209060160201601401548162015180611b4c91906129c7565b1115611e8b5760405163f340fa0160e01b815230600482018190529063f340fa0190602401600060405180830381600087803b158015611b8b57600080fd5b505af1158015611b9f573d6000803e3d6000fd5b5050505060008381548110611bb657611bb661290f565b9060005260206000209060160201600f015460008481548110611bdb57611bdb61290f565b906000526020600020906016020160120154611bf7919061293b565b341015611c0357600080fd5b60008381548110611c1657611c1661290f565b6000918252602082206001601690920201015481546001600160a01b03909116916108fc9186908110611c4b57611c4b61290f565b9060005260206000209060160201600f015460008681548110611c7057611c7061290f565b906000526020600020906016020160120154611c8c919061293b565b6040518115909202916000818181858888f19350505050158015611cb4573d6000803e3d6000fd5b503460008481548110611cc957611cc961290f565b906000526020600020906016020160040154611ce5919061294e565b60008481548110611cf857611cf861290f565b90600052602060002090601602016004018190555060008381548110611d2057611d2061290f565b9060005260206000209060160201600f015434611d3d919061293b565b60008481548110611d5057611d5061290f565b90600052602060002090601602016005016000828254611d70919061293b565b925050819055503460008481548110611d8b57611d8b61290f565b90600052602060002090601602016007016000828254611dab919061293b565b925050819055504260008481548110611dc657611dc661290f565b9060005260206000209060160201601301819055507fc2af2d6e1838968d2a8371a00657bedcacf318cf60c709c98cc77f078b2a284860008481548110611e0f57611e0f61290f565b6000918252602082206001601690920201015481546001600160a01b03909116919086908110611e4157611e4161290f565b6000918252602090912060169091020154604051611e7e92916001600160a01b0316906001600160a01b0392831681529116602082015260400190565b60405180910390a16120fb565b60008381548110611e9e57611e9e61290f565b90600052602060002090601602016014015460008481548110611ec357611ec361290f565b9060005260206000209060160201601401548262015180611ee491906129c7565b611eee919061294e565b1180611f1d575060008381548110611f0857611f0861290f565b9060005260206000209060160201600d015442115b15612023577f21006b857376c379dde3f87740e333147dbf9fe31aec32d37ddb228af0a3cd4960008481548110611f5657611f5661290f565b6000918252602082206001601690920201015481546001600160a01b03909116919086908110611f8857611f8861290f565b6000918252602090912060169091020154604051611fc592916001600160a01b0316906001600160a01b0392831681529116602082015260400190565b60405180910390a16040516319efd87160e21b81526004810184905230906367bf61c490602401600060405180830381600087803b15801561200657600080fd5b505af115801561201a573d6000803e3d6000fd5b505050506120fb565b60405163f340fa0160e01b815230600482018190529063f340fa0190602401600060405180830381600087803b15801561205c57600080fd5b505af1158015612070573d6000803e3d6000fd5b50505050600083815481106120875761208761290f565b6000918252602082206001601690920201015481546001600160a01b03909116916108fc91869081106120bc576120bc61290f565b9060005260206000209060160201601201549081150290604051600060405180830381858888f193505050501580156120f9573d6000803e3d6000fd5b505b6000838154811061210e5761210e61290f565b9060005260206000209060160201600401546000148061215257506000838154811061213c5761213c61290f565b9060005260206000209060160201601501546000145b156122945760016000848154811061216c5761216c61290f565b9060005260206000209060160201600e0160006101000a81548160ff0219169083151502179055507f374391e4ee875ecb8cb35556bf894ef988afe39d871d122f5df72042b0b00063600084815481106121c8576121c861290f565b6000918252602082206001601690920201015481546001600160a01b039091169190869081106121fa576121fa61290f565b6000918252602082206016909102015481546001600160a01b039091169190879081106122295761222961290f565b9060005260206000209060160201600801546000878154811061224e5761224e61290f565b600091825260209182902060076016909202010154604080516001600160a01b039687168152959094169185019190915291830152606082015260800160405180910390a15b7feb254407dc1f48422ded2837cc80aee744c93dc27d81ea84bff3cb1f82f4af45600084815481106122c8576122c861290f565b6000918252602082206001601690920201015481546001600160a01b039091169190869081106122fa576122fa61290f565b6000918252602082206016909102015481546001600160a01b039091169190879081106123295761232961290f565b9060005260206000209060160201600401546000878154811061234e5761234e61290f565b906000526020600020906016020160050154600088815481106123735761237361290f565b906000526020600020906016020160070154600089815481106123985761239861290f565b6000918252602091829020601690910201600e0154604080516001600160a01b0398891681529790961691870191909152938501929092526060840152608083015260ff16151560a082015260c0016108e9565b6000806123f8846126d2565b9050600081633b9ac9ff03612412576000925050506124c2565b60005b600183815481106124285761242861290f565b9060005260206000209060020201600101805490508110156124a957600183815481106124575761245761290f565b906000526020600020906002020160010181815481106124795761247961290f565b906000526020600020015485036124975750600192506124c2915050565b806124a181612c03565b915050612415565b508015156000036124bf576000925050506124c2565b50505b92915050565b6000806124d484612584565b9050600081633b9ac9ff036124ee576000925050506124c2565b60005b600283815481106125045761250461290f565b9060005260206000209060020201600101805490508110156124a957600283815481106125335761253361290f565b906000526020600020906002020160010181815481106125555761255561290f565b9060005260206000200154850361257257600193505050506124c2565b8061257c81612c03565b9150506124f1565b6000805b60025481101561261a57826001600160a01b0316600282815481106125af576125af61290f565b60009182526020909120600290910201546001600160a01b031603612608576040518181527f919402445ad72998974e2c04d45b8a0302a283714dc3d3b2b5454781079034aa906020015b60405180910390a192915050565b8061261281612c03565b915050612588565b50633b9ac9ff92915050565b60408051808201909152606060208083019182526001600160a01b038481168452600280546001810182556000829052855191027f405787fa12a823e0f2b7631cc41b3ba8828b3321ca811111fa75cd3aa3bb5ace81018054929093166001600160a01b031990921691909117825592518051859492936126cb937f405787fa12a823e0f2b7631cc41b3ba8828b3321ca811111fa75cd3aa3bb5acf01920190612804565b5050505050565b6000805b60015481101561261a57826001600160a01b0316600182815481106126fd576126fd61290f565b60009182526020909120600290910201546001600160a01b03160361274c576040518181527f919402445ad72998974e2c04d45b8a0302a283714dc3d3b2b5454781079034aa906020016125fa565b8061275681612c03565b9150506126d6565b6040805180820190915260008152606060208201526001600160a01b03828116825260018054808201825560009190915282517fb10e2d527612073b26eecdfd717e6a320cf44b4afac2b0732d9fcbe2b7fa0cf6600290920291820180546001600160a01b0319169190931617825560208084015180518594936126cb937fb10e2d527612073b26eecdfd717e6a320cf44b4afac2b0732d9fcbe2b7fa0cf79091019201905b82805482825590600052602060002090810192821561283f579160200282015b8281111561283f578251825591602001919060010190612824565b5061284b92915061284f565b5090565b5b8082111561284b5760008155600101612850565b60006020828403121561287657600080fd5b5035919050565b6001600160a01b038116811461029357600080fd5b60008060008060008060c087890312156128ab57600080fd5b86356128b68161287d565b955060208701356128c68161287d565b95989597505050506040840135936060810135936080820135935060a0909101359150565b6000602082840312156128fd57600080fd5b81356129088161287d565b9392505050565b634e487b7160e01b600052603260045260246000fd5b634e487b7160e01b600052601160045260246000fd5b808201808211156124c2576124c2612925565b818103818111156124c2576124c2612925565b60208082526024908201527f596f7520646f206e6f7420686176652061636365737320746f2074686973206c60408201526337b0b71760e11b606082015260800190565b6000826129c257634e487b7160e01b600052601260045260246000fd5b500490565b80820281158282048414176124c2576124c2612925565b6000815480845260208085019450836000528060002060005b83811015612a13578154875295820195600191820191016129f7565b509495945050505050565b600081518084526020808501945080840160005b83811015612a1357815187529582019590820190600101612a32565b60608152602760608201527f596f75206172652061206c656e6465722c20686572652061726520796f7572206080820152666c6f616e49647360c81b60a082015260c060208201526000612aa560c08301856129de565b8281036040840152612ab78185612a1e565b95945050505050565b60608152602760608201527f596f75206172652061206c656e6465652c20686572652061726520796f7572206080820152666c6f616e49647360c81b60a082015260c060208201526000612aa560c08301856129de565b60608152609460608201527f596f752061726520626f74682061206c656e64656520616e64206c656e64657260808201527f2c20686572652061726520796f7572206c6f616e49647320285468652066697260a08201527f737420736572696573206f662049647320697320666f7220796f75206c656e6460c08201527f656520706572736f6e612c20746865207365636f6e6420697320666f7220796f60e08201527303ab9103632b73232b9103832b939b7b7309497160651b6101008201526000610120806020840152612bef818401866129de565b90508281036040840152612ab781856129de565b600060018201612c1557612c15612925565b506001019056fea264697066735822122018c6d1ab3ed923e1b5a098e22b9a6110dfa4436d8ebc3cd0284646ad9f3ed97964736f6c63430008130033",
    "linkReferences": {}
  },
  "methodIdentifiers": {
    "balanceOf()": "722713f7",
    "checkPaidBalance(uint256)": "a19b1ebc",
    "createLoan(address,address,uint256,uint256,uint256,uint256)": "1cd083e4",
    "defaultLoan(uint256)": "67bf61c4",
    "deposit(address)": "f340fa01",
    "getMyActiveLoans()": "7a9f7be1",
    "getThisSmartContractAddress()": "627ea664",
    "lendLoan(uint256)": "0c1888e4",
    "owner()": "8da5cb5b",
    "remainingInterestBalance(uint256)": "0bf5b2d6",
    "remainingLoanBalance(uint256)": "caafa912",
    "remainingTimeForLoan(uint256)": "06639ad4",
    "repayCustAmountLoan(uint256)": "39c61090",
    "repayInstallment(uint256)": "d2285f09",
    "repayInterest(uint256)": "05cd86bc"
  },
  "id": 83
}