{
  "_format": "hh-sol-artifact-1",
  "contractName": "tollInfrastructure",
  "sourceName": "contracts/tollBasedInfastructure.sol",
  "abi": [
    {
      "inputs": [],
      "stateMutability": "nonpayable",
      "type": "constructor"
    },
    {
      "anonymous": false,
      "inputs": [
        {
          "indexed": false,
          "internalType": "string",
          "name": "accountWarning",
          "type": "string"
        }
      ],
      "name": "CreateAccount",
      "type": "event"
    },
    {
      "anonymous": false,
      "inputs": [
        {
          "indexed": false,
          "internalType": "uint256",
          "name": "amountToWithdraw",
          "type": "uint256"
        },
        {
          "indexed": false,
          "internalType": "uint256",
          "name": "withdrawableRevenue",
          "type": "uint256"
        },
        {
          "indexed": false,
          "internalType": "string",
          "name": "infName",
          "type": "string"
        },
        {
          "indexed": false,
          "internalType": "address payable",
          "name": "infWallet",
          "type": "address"
        }
      ],
      "name": "insufficientFunds",
      "type": "event"
    },
    {
      "anonymous": false,
      "inputs": [
        {
          "indexed": false,
          "internalType": "string",
          "name": "infNotFoundWarning",
          "type": "string"
        }
      ],
      "name": "noInfFound",
      "type": "event"
    },
    {
      "anonymous": false,
      "inputs": [
        {
          "indexed": false,
          "internalType": "string",
          "name": "fname",
          "type": "string"
        },
        {
          "indexed": false,
          "internalType": "string",
          "name": "lname",
          "type": "string"
        },
        {
          "indexed": false,
          "internalType": "address payable",
          "name": "wallet",
          "type": "address"
        },
        {
          "indexed": false,
          "internalType": "uint256",
          "name": "totalPayed",
          "type": "uint256"
        },
        {
          "indexed": false,
          "internalType": "uint256",
          "name": "userType",
          "type": "uint256"
        }
      ],
      "name": "printIndUserArray",
      "type": "event"
    },
    {
      "anonymous": false,
      "inputs": [
        {
          "indexed": false,
          "internalType": "string",
          "name": "name",
          "type": "string"
        },
        {
          "indexed": false,
          "internalType": "address payable",
          "name": "wallet",
          "type": "address"
        },
        {
          "indexed": false,
          "internalType": "uint256",
          "name": "totalRevenue",
          "type": "uint256"
        },
        {
          "indexed": false,
          "internalType": "uint256",
          "name": "withdrawableRevenue",
          "type": "uint256"
        },
        {
          "indexed": false,
          "internalType": "uint256",
          "name": "totalVisits",
          "type": "uint256"
        }
      ],
      "name": "printinfArray",
      "type": "event"
    },
    {
      "anonymous": false,
      "inputs": [
        {
          "indexed": false,
          "internalType": "string",
          "name": "costString",
          "type": "string"
        },
        {
          "indexed": false,
          "internalType": "uint256",
          "name": "userCost",
          "type": "uint256"
        }
      ],
      "name": "sendCost",
      "type": "event"
    },
    {
      "anonymous": false,
      "inputs": [
        {
          "indexed": false,
          "internalType": "string",
          "name": "infName",
          "type": "string"
        },
        {
          "indexed": false,
          "internalType": "address payable",
          "name": "wallet",
          "type": "address"
        },
        {
          "indexed": false,
          "internalType": "string",
          "name": "successMessage",
          "type": "string"
        }
      ],
      "name": "successfulWithdrawal",
      "type": "event"
    },
    {
      "anonymous": false,
      "inputs": [
        {
          "indexed": false,
          "internalType": "uint256",
          "name": "userCost",
          "type": "uint256"
        },
        {
          "indexed": false,
          "internalType": "string",
          "name": "firstName",
          "type": "string"
        },
        {
          "indexed": false,
          "internalType": "string",
          "name": "lastName",
          "type": "string"
        },
        {
          "indexed": false,
          "internalType": "string",
          "name": "infName",
          "type": "string"
        }
      ],
      "name": "userPaymentSuccess",
      "type": "event"
    },
    {
      "inputs": [
        {
          "internalType": "string",
          "name": "infName",
          "type": "string"
        }
      ],
      "name": "IndUsrpayInfrustuctureWallet",
      "outputs": [],
      "stateMutability": "payable",
      "type": "function"
    },
    {
      "inputs": [
        {
          "internalType": "address payable",
          "name": "infWallet",
          "type": "address"
        },
        {
          "internalType": "string",
          "name": "infName",
          "type": "string"
        },
        {
          "internalType": "uint256",
          "name": "member_type1_cost",
          "type": "uint256"
        },
        {
          "internalType": "uint256",
          "name": "member_type2_cost",
          "type": "uint256"
        },
        {
          "internalType": "uint256",
          "name": "member_type3_cost",
          "type": "uint256"
        },
        {
          "internalType": "uint256",
          "name": "member_type1_threshold",
          "type": "uint256"
        },
        {
          "internalType": "uint256",
          "name": "member_type2_threshold",
          "type": "uint256"
        },
        {
          "internalType": "uint256",
          "name": "member_type3_threshold",
          "type": "uint256"
        }
      ],
      "name": "addInfStructure",
      "outputs": [],
      "stateMutability": "nonpayable",
      "type": "function"
    },
    {
      "inputs": [
        {
          "internalType": "string",
          "name": "firstname",
          "type": "string"
        },
        {
          "internalType": "string",
          "name": "lastname",
          "type": "string"
        },
        {
          "internalType": "string",
          "name": "infName",
          "type": "string"
        }
      ],
      "name": "addUserToDataBase",
      "outputs": [],
      "stateMutability": "nonpayable",
      "type": "function"
    },
    {
      "inputs": [
        {
          "internalType": "string",
          "name": "infName",
          "type": "string"
        }
      ],
      "name": "checkHowMuchIOwe",
      "outputs": [],
      "stateMutability": "nonpayable",
      "type": "function"
    },
    {
      "inputs": [
        {
          "internalType": "address",
          "name": "walletAddress",
          "type": "address"
        }
      ],
      "name": "deposit",
      "outputs": [],
      "stateMutability": "payable",
      "type": "function"
    },
    {
      "inputs": [],
      "name": "getAllIndUsersArrayItems",
      "outputs": [],
      "stateMutability": "nonpayable",
      "type": "function"
    },
    {
      "inputs": [],
      "name": "getAllInfArrayItems",
      "outputs": [],
      "stateMutability": "nonpayable",
      "type": "function"
    },
    {
      "inputs": [
        {
          "internalType": "uint256",
          "name": "amountToWithdraw",
          "type": "uint256"
        }
      ],
      "name": "withdrawRevenue",
      "outputs": [],
      "stateMutability": "nonpayable",
      "type": "function"
    }
  ],
  "bytecode": "0x60806040526040518060600160405280602a8152602001620035e5602a9139600390816200002e919062000328565b506040518060800160405280604681526020016200360f604691396004908162000059919062000328565b503480156200006757600080fd5b50336000806101000a81548173ffffffffffffffffffffffffffffffffffffffff021916908373ffffffffffffffffffffffffffffffffffffffff1602179055506200040f565b600081519050919050565b7f4e487b7100000000000000000000000000000000000000000000000000000000600052604160045260246000fd5b7f4e487b7100000000000000000000000000000000000000000000000000000000600052602260045260246000fd5b600060028204905060018216806200013057607f821691505b602082108103620001465762000145620000e8565b5b50919050565b60008190508160005260206000209050919050565b60006020601f8301049050919050565b600082821b905092915050565b600060088302620001b07fffffffffffffffffffffffffffffffffffffffffffffffffffffffffffffffff8262000171565b620001bc868362000171565b95508019841693508086168417925050509392505050565b6000819050919050565b6000819050919050565b60006200020962000203620001fd84620001d4565b620001de565b620001d4565b9050919050565b6000819050919050565b6200022583620001e8565b6200023d620002348262000210565b8484546200017e565b825550505050565b600090565b6200025462000245565b620002618184846200021a565b505050565b5b8181101562000289576200027d6000826200024a565b60018101905062000267565b5050565b601f821115620002d857620002a2816200014c565b620002ad8462000161565b81016020851015620002bd578190505b620002d5620002cc8562000161565b83018262000266565b50505b505050565b600082821c905092915050565b6000620002fd60001984600802620002dd565b1980831691505092915050565b6000620003188383620002ea565b9150826002028217905092915050565b6200033382620000ae565b67ffffffffffffffff8111156200034f576200034e620000b9565b5b6200035b825462000117565b620003688282856200028d565b600060209050601f831160018114620003a057600084156200038b578287015190505b6200039785826200030a565b86555062000407565b601f198416620003b0866200014c565b60005b82811015620003da57848901518255600182019150602085019450602081019050620003b3565b86831015620003fa5784890151620003f6601f891682620002ea565b8355505b6001600288020188555050505b505050505050565b6131c6806200041f6000396000f3fe60806040526004361061007b5760003560e01c8063977052dd1161004e578063977052dd14610117578063a2077a8c1461012e578063b1ae744714610145578063f340fa011461016e5761007b565b80630ceff204146100805780631756ec2f146100a95780634c8b10dc146100d25780636f76f9c0146100fb575b600080fd5b34801561008c57600080fd5b506100a760048036038101906100a291906120eb565b61018a565b005b3480156100b557600080fd5b506100d060048036038101906100cb91906122bc565b610343565b005b3480156100de57600080fd5b506100f960048036038101906100f4919061238e565b610598565b005b61011560048036038101906101109190612435565b610728565b005b34801561012357600080fd5b5061012c610947565b005b34801561013a57600080fd5b50610143610a83565b005b34801561015157600080fd5b5061016c60048036038101906101679190612435565b610bc0565b005b610188600480360381019061018391906124bc565b610d38565b005b600081116101cd576040517f08c379a00000000000000000000000000000000000000000000000000000000081526004016101c49061256c565b60405180910390fd5b60006101d833610d3b565b90506040518060400160405280600481526020017f4e554c4c00000000000000000000000000000000000000000000000000000000815250805190602001208160200151805190602001200361022d57600080fd5b80610120015182111561029b577f38d99d592e9e6d1ef31b4be874e7c296d83b0fe1883ba805ad2fc14773d1ee0d828261012001518360200151846000015160405161027c9493929190612618565b60405180910390a180610120015182111561029657600080fd5b61033f565b806101200151821161033e57806000015173ffffffffffffffffffffffffffffffffffffffff166108fc839081150290604051600060405180830381858888f193505050501580156102f1573d6000803e3d6000fd5b506102fc8183610fdf565b7f4ab08970b81004d29e05173adcfe4eeaf173c552457c55f0ade786c4a2881a9c816020015182600001516040516103359291906126fc565b60405180910390a15b5b5050565b60008054906101000a900473ffffffffffffffffffffffffffffffffffffffff1673ffffffffffffffffffffffffffffffffffffffff163373ffffffffffffffffffffffffffffffffffffffff16146103d1576040517f08c379a00000000000000000000000000000000000000000000000000000000081526004016103c8906127d7565b60405180910390fd5b600015156103de886110c0565b151514610420576040517f08c379a00000000000000000000000000000000000000000000000000000000081526004016104179061288f565b60405180910390fd5b610428611fde565b88816000019073ffffffffffffffffffffffffffffffffffffffff16908173ffffffffffffffffffffffffffffffffffffffff1681525050878160200181905250868160a0018181525050858160c0018181525050848160e001818152505083816040018181525050828160600181815250508181608001818152505060018190806001815401808255809150506001900390600052602060002090600b020160009091909190915060008201518160000160006101000a81548173ffffffffffffffffffffffffffffffffffffffff021916908373ffffffffffffffffffffffffffffffffffffffff160217905550602082015181600101908161052d9190612abb565b5060408201518160020155606082015181600301556080820151816004015560a0820151816005015560c0820151816006015560e082015181600701556101008201518160080155610120820151816009015561014082015181600a01555050505050505050505050565b6040518060400160405280600481526020017f4e554c4c00000000000000000000000000000000000000000000000000000000815250805190602001208380519060200120036105e757600080fd5b6105ef61204e565b83816020018190525082816040018190525033816000019073ffffffffffffffffffffffffffffffffffffffff16908173ffffffffffffffffffffffffffffffffffffffff16815250506001816060018181525050818160c00181905250600281908060018154018082558091505060019003906000526020600020906007020160009091909190915060008201518160000160006101000a81548173ffffffffffffffffffffffffffffffffffffffff021916908373ffffffffffffffffffffffffffffffffffffffff16021790555060208201518160010190816106d59190612abb565b5060408201518160020190816106eb9190612abb565b50606082015181600301556080820151816004015560a0820151816005015560c082015181600601908161071f9190612abb565b50505050505050565b60006107343383611144565b9050600061074183611848565b90506040518060400160405280600481526020017f4e554c4c0000000000000000000000000000000000000000000000000000000081525080519060200120826020015180519060200120036107cc576040517f08c379a00000000000000000000000000000000000000000000000000000000081526004016107c390612bd9565b60405180910390fd5b6040518060400160405280600481526020017f4e554c4c000000000000000000000000000000000000000000000000000000008152508051906020012081602001518051906020012003610855576040517f08c379a000000000000000000000000000000000000000000000000000000000815260040161084c90612c6b565b60405180910390fd5b60006108618383611abb565b905080341461086f57600080fd5b6108793483611b64565b3073ffffffffffffffffffffffffffffffffffffffff1663f340fa01306040518263ffffffff1660e01b81526004016108b29190612c9a565b600060405180830381600087803b1580156108cc57600080fd5b505af11580156108e0573d6000803e3d6000fd5b505050506108ee8383611c85565b6108f88382611da4565b7f6caf3b89584102498a16211120faf56edd97ec71b880d69f46c0b40e73cb37a6818460200151856040015185602001516040516109399493929190612cb5565b60405180910390a150505050565b60005b600280549050811015610a80577fe05cb3f2aa2e5f3d247d65eb3ac1b0dd1a8123428ca67e67e6148ad22285411a6002828154811061098c5761098b612d0f565b5b9060005260206000209060070201600101600283815481106109b1576109b0612d0f565b5b9060005260206000209060070201600201600284815481106109d6576109d5612d0f565b5b906000526020600020906007020160000160009054906101000a900473ffffffffffffffffffffffffffffffffffffffff1660028581548110610a1c57610a1b612d0f565b5b90600052602060002090600702016005015460028681548110610a4257610a41612d0f565b5b906000526020600020906007020160030154604051610a65959493929190612dc2565b60405180910390a18080610a7890612e52565b91505061094a565b50565b60005b600180549050811015610bbd577fb6a810c047954c1fd7c7ec1567ff647eddeaba9c5bbf381a7b5ba90fca76c6fd60018281548110610ac857610ac7612d0f565b5b90600052602060002090600b020160010160018381548110610aed57610aec612d0f565b5b90600052602060002090600b020160000160009054906101000a900473ffffffffffffffffffffffffffffffffffffffff1660018481548110610b3357610b32612d0f565b5b90600052602060002090600b02016008015460018581548110610b5957610b58612d0f565b5b90600052602060002090600b02016009015460018681548110610b7f57610b7e612d0f565b5b90600052602060002090600b0201600a0154604051610ba2959493929190612e9a565b60405180910390a18080610bb590612e52565b915050610a86565b50565b6000610bcc3383611144565b90506000610bd983611848565b90506040518060400160405280600481526020017f4e554c4c000000000000000000000000000000000000000000000000000000008152508051906020012082602001518051906020012003610c64576040517f08c379a0000000000000000000000000000000000000000000000000000000008152600401610c5b90612bd9565b60405180910390fd5b6040518060400160405280600481526020017f4e554c4c000000000000000000000000000000000000000000000000000000008152508051906020012081602001518051906020012003610ced576040517f08c379a0000000000000000000000000000000000000000000000000000000008152600401610ce490612c6b565b60405180910390fd5b6000610cf98383611abb565b90507fe85057cc277b93628da1ab485949c523f38cb52bbf1488f68af8e3e84444e85381604051610d2a9190612f66565b60405180910390a150505050565b50565b610d43611fde565b60005b600180549050811015610f56578273ffffffffffffffffffffffffffffffffffffffff1660018281548110610d7e57610d7d612d0f565b5b90600052602060002090600b020160000160009054906101000a900473ffffffffffffffffffffffffffffffffffffffff1673ffffffffffffffffffffffffffffffffffffffff1603610f435760018181548110610ddf57610dde612d0f565b5b90600052602060002090600b0201604051806101600160405290816000820160009054906101000a900473ffffffffffffffffffffffffffffffffffffffff1673ffffffffffffffffffffffffffffffffffffffff1673ffffffffffffffffffffffffffffffffffffffff168152602001600182018054610e5f906128de565b80601f0160208091040260200160405190810160405280929190818152602001828054610e8b906128de565b8015610ed85780601f10610ead57610100808354040283529160200191610ed8565b820191906000526020600020905b815481529060010190602001808311610ebb57829003601f168201915b505050505081526020016002820154815260200160038201548152602001600482015481526020016005820154815260200160068201548152602001600782015481526020016008820154815260200160098201548152602001600a82015481525050915050610fda565b8080610f4e90612e52565b915050610d46565b50610f5f611fde565b6040518060400160405280600481526020017f4e554c4c0000000000000000000000000000000000000000000000000000000081525081602001819052507f787a41e1a6b3f6089118a939f8c42ba2aadd16d4b944769a6e9cfbe5e71e576d6004604051610fcd9190612f94565b60405180910390a1809150505b919050565b60005b6001805490508110156110bb576001818154811061100357611002612d0f565b5b90600052602060002090600b020160000160009054906101000a900473ffffffffffffffffffffffffffffffffffffffff1673ffffffffffffffffffffffffffffffffffffffff16836000015173ffffffffffffffffffffffffffffffffffffffff16036110a85781600182815481106110805761107f612d0f565b5b90600052602060002090600b020160090160008282546110a09190612fb6565b925050819055505b80806110b390612e52565b915050610fe2565b505050565b600080600090505b60018054905081101561113957600181815481106110e9576110e8612d0f565b5b90600052602060002090600b0201600101604051611107919061308d565b604051809103902083805190602001200361112657600191505061113f565b808061113190612e52565b9150506110c8565b50600090505b919050565b61114c61204e565b60005b6002805490508110156117be57600281815481106111705761116f612d0f565b5b906000526020600020906007020160000160009054906101000a900473ffffffffffffffffffffffffffffffffffffffff1673ffffffffffffffffffffffffffffffffffffffff168473ffffffffffffffffffffffffffffffffffffffff1614801561121b5750600281815481106111eb576111ea612d0f565b5b9060005260206000209060070201600601604051611209919061308d565b60405180910390208380519060200120145b1561147f576002818154811061123457611233612d0f565b5b90600052602060002090600702016040518060e00160405290816000820160009054906101000a900473ffffffffffffffffffffffffffffffffffffffff1673ffffffffffffffffffffffffffffffffffffffff1673ffffffffffffffffffffffffffffffffffffffff1681526020016001820180546112b3906128de565b80601f01602080910402602001604051908101604052809291908181526020018280546112df906128de565b801561132c5780601f106113015761010080835404028352916020019161132c565b820191906000526020600020905b81548152906001019060200180831161130f57829003601f168201915b50505050508152602001600282018054611345906128de565b80601f0160208091040260200160405190810160405280929190818152602001828054611371906128de565b80156113be5780601f10611393576101008083540402835291602001916113be565b820191906000526020600020905b8154815290600101906020018083116113a157829003601f168201915b505050505081526020016003820154815260200160048201548152602001600582015481526020016006820180546113f5906128de565b80601f0160208091040260200160405190810160405280929190818152602001828054611421906128de565b801561146e5780601f106114435761010080835404028352916020019161146e565b820191906000526020600020905b81548152906001019060200180831161145157829003601f168201915b505050505081525050915050611842565b6002818154811061149357611492612d0f565b5b906000526020600020906007020160000160009054906101000a900473ffffffffffffffffffffffffffffffffffffffff1673ffffffffffffffffffffffffffffffffffffffff168473ffffffffffffffffffffffffffffffffffffffff1614801561153e57506002818154811061150e5761150d612d0f565b5b906000526020600020906007020160060160405161152c919061308d565b60405180910390208380519060200120145b156117ab576117a36002828154811061155a57611559612d0f565b5b90600052602060002090600702016040518060e00160405290816000820160009054906101000a900473ffffffffffffffffffffffffffffffffffffffff1673ffffffffffffffffffffffffffffffffffffffff1673ffffffffffffffffffffffffffffffffffffffff1681526020016001820180546115d9906128de565b80601f0160208091040260200160405190810160405280929190818152602001828054611605906128de565b80156116525780601f1061162757610100808354040283529160200191611652565b820191906000526020600020905b81548152906001019060200180831161163557829003601f168201915b5050505050815260200160028201805461166b906128de565b80601f0160208091040260200160405190810160405280929190818152602001828054611697906128de565b80156116e45780601f106116b9576101008083540402835291602001916116e4565b820191906000526020600020905b8154815290600101906020018083116116c757829003601f168201915b5050505050815260200160038201548152602001600482015481526020016005820154815260200160068201805461171b906128de565b80601f0160208091040260200160405190810160405280929190818152602001828054611747906128de565b80156117945780601f1061176957610100808354040283529160200191611794565b820191906000526020600020905b81548152906001019060200180831161177757829003601f168201915b50505050508152505084611e85565b915050611842565b80806117b690612e52565b91505061114f565b506117c761204e565b6040518060400160405280600481526020017f4e554c4c0000000000000000000000000000000000000000000000000000000081525081602001819052507fef6a4fe054576cbe805cc405f1ead20eb898ae06b015725485b7020f3c56e25b60036040516118359190612f94565b60405180910390a1809150505b92915050565b611850611fde565b60005b600180549050811015611a32576001818154811061187457611873612d0f565b5b90600052602060002090600b0201600101604051611892919061308d565b6040518091039020838051906020012003611a1f57600181815481106118bb576118ba612d0f565b5b90600052602060002090600b0201604051806101600160405290816000820160009054906101000a900473ffffffffffffffffffffffffffffffffffffffff1673ffffffffffffffffffffffffffffffffffffffff1673ffffffffffffffffffffffffffffffffffffffff16815260200160018201805461193b906128de565b80601f0160208091040260200160405190810160405280929190818152602001828054611967906128de565b80156119b45780601f10611989576101008083540402835291602001916119b4565b820191906000526020600020905b81548152906001019060200180831161199757829003601f168201915b505050505081526020016002820154815260200160038201548152602001600482015481526020016005820154815260200160068201548152602001600782015481526020016008820154815260200160098201548152602001600a82015481525050915050611ab6565b8080611a2a90612e52565b915050611853565b50611a3b611fde565b6040518060400160405280600481526020017f4e554c4c0000000000000000000000000000000000000000000000000000000081525081602001819052507f787a41e1a6b3f6089118a939f8c42ba2aadd16d4b944769a6e9cfbe5e71e576d6004604051611aa99190612f94565b60405180910390a1809150505b919050565b60008160200151805190602001208360c001518051906020012014611b15576040517f08c379a0000000000000000000000000000000000000000000000000000000008152600401611b0c9061313c565b60405180910390fd5b6001836060015103611b2d578160a001519050611b5e565b6002836060015103611b45578160c001519050611b5e565b6003836060015103611b5d578160e001519050611b5e565b5b92915050565b60005b600180549050811015611c805760018181548110611b8857611b87612d0f565b5b90600052602060002090600b020160000160009054906101000a900473ffffffffffffffffffffffffffffffffffffffff1673ffffffffffffffffffffffffffffffffffffffff16826000015173ffffffffffffffffffffffffffffffffffffffff1603611c6d578260018281548110611c0557611c04612d0f565b5b90600052602060002090600b02016008016000828254611c25919061315c565b925050819055508260018281548110611c4157611c40612d0f565b5b90600052602060002090600b02016009016000828254611c61919061315c565b92505081905550611c80565b8080611c7890612e52565b915050611b67565b505050565b60005b600280549050811015611d9f5760028181548110611ca957611ca8612d0f565b5b906000526020600020906007020160000160009054906101000a900473ffffffffffffffffffffffffffffffffffffffff1673ffffffffffffffffffffffffffffffffffffffff16836000015173ffffffffffffffffffffffffffffffffffffffff1603611d8c578160200151805190602001208360c001518051906020012014611d3357600080fd5b81604001518360a001511115611d4f5760028360600181815250505b81606001518360a001511115611d6b5760038360600181815250505b81608001518360a001511115611d875760048360600181815250505b611d9f565b8080611d9790612e52565b915050611c88565b505050565b60005b600280549050811015611e805760028181548110611dc857611dc7612d0f565b5b906000526020600020906007020160000160009054906101000a900473ffffffffffffffffffffffffffffffffffffffff1673ffffffffffffffffffffffffffffffffffffffff16836000015173ffffffffffffffffffffffffffffffffffffffff1603611e6d578160028281548110611e4557611e44612d0f565b5b90600052602060002090600702016005016000828254611e65919061315c565b925050819055505b8080611e7890612e52565b915050611da7565b505050565b611e8d61204e565b611e9561204e565b8360200151816020018190525083604001518160400181905250828160c0018190525060018160600181815250508360000151816000019073ffffffffffffffffffffffffffffffffffffffff16908173ffffffffffffffffffffffffffffffffffffffff1681525050600281908060018154018082558091505060019003906000526020600020906007020160009091909190915060008201518160000160006101000a81548173ffffffffffffffffffffffffffffffffffffffff021916908373ffffffffffffffffffffffffffffffffffffffff1602179055506020820151816001019081611f879190612abb565b506040820151816002019081611f9d9190612abb565b50606082015181600301556080820151816004015560a0820151816005015560c0820151816006019081611fd19190612abb565b5050508091505092915050565b604051806101600160405280600073ffffffffffffffffffffffffffffffffffffffff168152602001606081526020016000815260200160008152602001600081526020016000815260200160008152602001600081526020016000815260200160008152602001600081525090565b6040518060e00160405280600073ffffffffffffffffffffffffffffffffffffffff1681526020016060815260200160608152602001600081526020016000815260200160008152602001606081525090565b6000604051905090565b600080fd5b600080fd5b6000819050919050565b6120c8816120b5565b81146120d357600080fd5b50565b6000813590506120e5816120bf565b92915050565b600060208284031215612101576121006120ab565b5b600061210f848285016120d6565b91505092915050565b600073ffffffffffffffffffffffffffffffffffffffff82169050919050565b600061214382612118565b9050919050565b61215381612138565b811461215e57600080fd5b50565b6000813590506121708161214a565b92915050565b600080fd5b600080fd5b6000601f19601f8301169050919050565b7f4e487b7100000000000000000000000000000000000000000000000000000000600052604160045260246000fd5b6121c982612180565b810181811067ffffffffffffffff821117156121e8576121e7612191565b5b80604052505050565b60006121fb6120a1565b905061220782826121c0565b919050565b600067ffffffffffffffff82111561222757612226612191565b5b61223082612180565b9050602081019050919050565b82818337600083830152505050565b600061225f61225a8461220c565b6121f1565b90508281526020810184848401111561227b5761227a61217b565b5b61228684828561223d565b509392505050565b600082601f8301126122a3576122a2612176565b5b81356122b384826020860161224c565b91505092915050565b600080600080600080600080610100898b0312156122dd576122dc6120ab565b5b60006122eb8b828c01612161565b985050602089013567ffffffffffffffff81111561230c5761230b6120b0565b5b6123188b828c0161228e565b97505060406123298b828c016120d6565b965050606061233a8b828c016120d6565b955050608061234b8b828c016120d6565b94505060a061235c8b828c016120d6565b93505060c061236d8b828c016120d6565b92505060e061237e8b828c016120d6565b9150509295985092959890939650565b6000806000606084860312156123a7576123a66120ab565b5b600084013567ffffffffffffffff8111156123c5576123c46120b0565b5b6123d18682870161228e565b935050602084013567ffffffffffffffff8111156123f2576123f16120b0565b5b6123fe8682870161228e565b925050604084013567ffffffffffffffff81111561241f5761241e6120b0565b5b61242b8682870161228e565b9150509250925092565b60006020828403121561244b5761244a6120ab565b5b600082013567ffffffffffffffff811115612469576124686120b0565b5b6124758482850161228e565b91505092915050565b600061248982612118565b9050919050565b6124998161247e565b81146124a457600080fd5b50565b6000813590506124b681612490565b92915050565b6000602082840312156124d2576124d16120ab565b5b60006124e0848285016124a7565b91505092915050565b600082825260208201905092915050565b7f506c6561736520656e7465722061206e756d626572206772656174657220746860008201527f616e203020746f20776974686472617721000000000000000000000000000000602082015250565b60006125566031836124e9565b9150612561826124fa565b604082019050919050565b6000602082019050818103600083015261258581612549565b9050919050565b612595816120b5565b82525050565b600081519050919050565b60005b838110156125c45780820151818401526020810190506125a9565b60008484015250505050565b60006125db8261259b565b6125e581856124e9565b93506125f58185602086016125a6565b6125fe81612180565b840191505092915050565b61261281612138565b82525050565b600060808201905061262d600083018761258c565b61263a602083018661258c565b818103604083015261264c81856125d0565b905061265b6060830184612609565b95945050505050565b7f5468652066756e64732077657265207375636365737366756c6c79207769746860008201527f647261776e20696e746f2074686520696e66726173747563747572657327207760208201527f616c6c6574210000000000000000000000000000000000000000000000000000604082015250565b60006126e66046836124e9565b91506126f182612664565b606082019050919050565b6000606082019050818103600083015261271681856125d0565b90506127256020830184612609565b8181036040830152612736816126d9565b90509392505050565b7f596f75206d75737420626520746865206f776e6572206f662074686520636f6e60008201527f747261637420746f206164642061206e657720696e667261737472756374757260208201527f652c20706c6561736520636f6e7461637420746865206f776e65722100000000604082015250565b60006127c1605c836124e9565b91506127cc8261273f565b606082019050919050565b600060208201905081810360008301526127f0816127b4565b9050919050565b7f54686973204e616d6520697320616c726561647920696e207573652c20706c6560008201527f6173652063686f6f736520616e6f74686572206e616d6520616e64207472792060208201527f616761696e2e0000000000000000000000000000000000000000000000000000604082015250565b60006128796046836124e9565b9150612884826127f7565b606082019050919050565b600060208201905081810360008301526128a88161286c565b9050919050565b7f4e487b7100000000000000000000000000000000000000000000000000000000600052602260045260246000fd5b600060028204905060018216806128f657607f821691505b602082108103612909576129086128af565b5b50919050565b60008190508160005260206000209050919050565b60006020601f8301049050919050565b600082821b905092915050565b6000600883026129717fffffffffffffffffffffffffffffffffffffffffffffffffffffffffffffffff82612934565b61297b8683612934565b95508019841693508086168417925050509392505050565b6000819050919050565b60006129b86129b36129ae846120b5565b612993565b6120b5565b9050919050565b6000819050919050565b6129d28361299d565b6129e66129de826129bf565b848454612941565b825550505050565b600090565b6129fb6129ee565b612a068184846129c9565b505050565b5b81811015612a2a57612a1f6000826129f3565b600181019050612a0c565b5050565b601f821115612a6f57612a408161290f565b612a4984612924565b81016020851015612a58578190505b612a6c612a6485612924565b830182612a0b565b50505b505050565b600082821c905092915050565b6000612a9260001984600802612a74565b1980831691505092915050565b6000612aab8383612a81565b9150826002028217905092915050565b612ac48261259b565b67ffffffffffffffff811115612add57612adc612191565b5b612ae782546128de565b612af2828285612a2e565b600060209050601f831160018114612b255760008415612b13578287015190505b612b1d8582612a9f565b865550612b85565b601f198416612b338661290f565b60005b82811015612b5b57848901518255600182019150602085019450602081019050612b36565b86831015612b785784890151612b74601f891682612a81565b8355505b6001600288020188555050505b505050505050565b7f576520636f756c64206e6f742066696e64207468652075736572210000000000600082015250565b6000612bc3601b836124e9565b9150612bce82612b8d565b602082019050919050565b60006020820190508181036000830152612bf281612bb6565b9050919050565b7f576520636f756c64206e6f742066696e64207468652063757272656e7420696e60008201527f6672617374727563747572652e2e000000000000000000000000000000000000602082015250565b6000612c55602e836124e9565b9150612c6082612bf9565b604082019050919050565b60006020820190508181036000830152612c8481612c48565b9050919050565b612c948161247e565b82525050565b6000602082019050612caf6000830184612c8b565b92915050565b6000608082019050612cca600083018761258c565b8181036020830152612cdc81866125d0565b90508181036040830152612cf081856125d0565b90508181036060830152612d0481846125d0565b905095945050505050565b7f4e487b7100000000000000000000000000000000000000000000000000000000600052603260045260246000fd5b60008154612d4b816128de565b612d5581866124e9565b94506001821660008114612d705760018114612d8657612db9565b60ff198316865281151560200286019350612db9565b612d8f8561290f565b60005b83811015612db157815481890152600182019150602081019050612d92565b808801955050505b50505092915050565b600060a0820190508181036000830152612ddc8188612d3e565b90508181036020830152612df08187612d3e565b9050612dff6040830186612609565b612e0c606083018561258c565b612e19608083018461258c565b9695505050505050565b7f4e487b7100000000000000000000000000000000000000000000000000000000600052601160045260246000fd5b6000612e5d826120b5565b91507fffffffffffffffffffffffffffffffffffffffffffffffffffffffffffffffff8203612e8f57612e8e612e23565b5b600182019050919050565b600060a0820190508181036000830152612eb48188612d3e565b9050612ec36020830187612609565b612ed0604083018661258c565b612edd606083018561258c565b612eea608083018461258c565b9695505050505050565b7f54686520616d6f756e7420796f75206f77652069732070726573656e7465642060008201527f62656c6f773a2000000000000000000000000000000000000000000000000000602082015250565b6000612f506027836124e9565b9150612f5b82612ef4565b604082019050919050565b60006040820190508181036000830152612f7f81612f43565b9050612f8e602083018461258c565b92915050565b60006020820190508181036000830152612fae8184612d3e565b905092915050565b6000612fc1826120b5565b9150612fcc836120b5565b9250828203905081811115612fe457612fe3612e23565b5b92915050565b600081905092915050565b60008190508160005260206000209050919050565b60008154613017816128de565b6130218186612fea565b9450600182166000811461303c576001811461305157613084565b60ff1983168652811515820286019350613084565b61305a85612ff5565b60005b8381101561307c5781548189015260018201915060208101905061305d565b838801955050505b50505092915050565b6000613099828461300a565b915081905092915050565b7f5468652075736572277320696e66726173747275637475726520646f6573206e60008201527f6f74206d6174636820746865206e616d65206f662074686520696e667261737460208201527f7275637475726520796f7520617265207573696e672e2e000000000000000000604082015250565b60006131266057836124e9565b9150613131826130a4565b606082019050919050565b6000602082019050818103600083015261315581613119565b9050919050565b6000613167826120b5565b9150613172836120b5565b925082820190508082111561318a57613189612e23565b5b9291505056fea264697066735822122013982f7e119fd77db284934620c2ef9e2b9de66863e1fe23eda27a5efeddd6f764736f6c63430008110033506c656173652063616c6c207468652063726561746520616e206163636f756e742066756e6374696f6e54686520696e66726173747275637475726520796f7520617265206c6f6f6b696e6720666f7220776173206e6f742066696e642c20706c656173652074727920616761696e21",
  "linkReferences": {},
  "deployedLinkReferences": {}
}